:020000040000fa
:080000000002040000000000f2
:020000040000fa
:040008008803000069
:020000040000fa
:04000c008803000065
:020000040000fa
:040010008803000061
:020000040000fa
:04001400880300005d
:020000040000fa
:040018008803000059
:020000040000fa
:04001c008803000055
:020000040000fa
:040020008803000051
:020000040000fa
:04002400880300004d
:020000040000fa
:040028008803000049
:020000040000fa
:04002c008803000045
:020000040000fa
:040030008803000041
:020000040000fa
:04003400880300003d
:020000040000fa
:040038008803000039
:020000040000fa
:04003c008803000035
:020000040000fa
:040040008803000031
:020000040000fa
:04004400880300002d
:020000040000fa
:040048008803000029
:020000040000fa
:04004c008803000025
:020000040000fa
:040050008803000021
:020000040000fa
:04005400880300001d
:020000040000fa
:04005800c8020000da
:020000040000fa
:04005c008803000015
:020000040000fa
:040060008803000011
:020000040000fa
:04006400880300000d
:020000040000fa
:040068008803000009
:020000040000fa
:04006c008803000005
:020000040000fa
:040070008803000001
:020000040000fa
:0400740088030000fd
:020000040000fa
:0400780088030000f9
:020000040000fa
:04007c0088030000f5
:020000040000fa
:0400800088030000f1
:020000040000fa
:0400840088030000ed
:020000040000fa
:0400880088030000e9
:020000040000fa
:04008c0088030000e5
:020000040000fa
:0400900088030000e1
:020000040000fa
:0400940088030000dd
:020000040000fa
:0400980088030000d9
:020000040000fa
:04009c0088030000d5
:020000040000fa
:0400a00088030000d1
:020000040000fa
:0400a40088030000cd
:020000040000fa
:0400a80088030000c9
:020000040000fa
:0400ac0088030000c5
:020000040000fa
:0400b00088030000c1
:020000040000fa
:0400b40088030000bd
:020000040000fa
:0400b80088030000b9
:020000040000fa
:0400bc0088030000b5
:020000040000fa
:0400c00088030000b1
:020000040000fa
:0400c40088030000ad
:020000040000fa
:0400c80088030000a9
:020000040000fa
:0400cc0088030000a5
:020000040000fa
:0400d00088030000a1
:020000040000fa
:0400d400880300009d
:020000040000fa
:0400d8008803000099
:020000040000fa
:0400dc008803000095
:020000040000fa
:0400e0008803000091
:020000040000fa
:0400e400880300008d
:020000040000fa
:0400e8008803000089
:020000040000fa
:0400ec008803000085
:020000040000fa
:0400f0008803000081
:020000040000fa
:0400f400880300007d
:020000040000fa
:0400f8008803000079
:020000040000fa
:0400fc008803000075
:020000040000fa
:040100008803000070
:020000040000fa
:04010400880300006c
:020000040000fa
:040108008803000068
:020000040000fa
:04010c008803000064
:020000040000fa
:040110008803000060
:020000040000fa
:04011400880300005c
:020000040000fa
:040118008803000058
:020000040000fa
:04011c008803000054
:020000040000fa
:040120008803000050
:020000040000fa
:04012400880300004c
:020000040000fa
:040128008803000048
:020000040000fa
:04012c008803000044
:020000040000fa
:040130008803000040
:020000040000fa
:04013400880300003c
:020000040000fa
:040138008803000038
:020000040000fa
:04013c008803000034
:020000040000fa
:040140008803000030
:020000040000fa
:04014400880300002c
:020000040000fa
:040148008803000028
:020000040000fa
:04014c008803000024
:020000040000fa
:040150008803000020
:020000040000fa
:04015400880300001c
:020000040000fa
:040158008803000018
:020000040000fa
:04015c008803000014
:020000040000fa
:040160008803000010
:020000040000fa
:04016400880300000c
:020000040000fa
:040208008803000067
:020000040000fa
:04020c008803000063
:020000040000fa
:04021000880300005f
:020000040000fa
:04021400880300005b
:020000040000fa
:040218008803000057
:020000040000fa
:04021c008803000053
:020000040000fa
:04022000880300004f
:020000040000fa
:04022400880300004b
:020000040000fa
:040228008803000047
:020000040000fa
:04022c008803000043
:020000040000fa
:04023000880300003f
:020000040000fa
:04023400880300003b
:020000040000fa
:040238008803000037
:020000040000fa
:04023c008803000033
:020000040000fa
:04024000880300002f
:020000040000fa
:04024400880300002b
:020000040000fa
:040248008803000027
:020000040000fa
:04024c008803000023
:020000040000fa
:04025000880300001f
:020000040000fa
:04025400880300001b
:020000040000fa
:04025800c8020000d8
:020000040000fa
:04025c008803000013
:020000040000fa
:04026000880300000f
:020000040000fa
:04026400880300000b
:020000040000fa
:040268008803000007
:020000040000fa
:04026c008803000003
:020000040000fa
:0402700088030000ff
:020000040000fa
:0402740088030000fb
:020000040000fa
:0402780088030000f7
:020000040000fa
:04027c0088030000f3
:020000040000fa
:0402800088030000ef
:020000040000fa
:0402840088030000eb
:020000040000fa
:0402880088030000e7
:020000040000fa
:04028c0088030000e3
:020000040000fa
:0402900088030000df
:020000040000fa
:0402940088030000db
:020000040000fa
:0402980088030000d7
:020000040000fa
:04029c0088030000d3
:020000040000fa
:0402a00088030000cf
:020000040000fa
:0402a40088030000cb
:020000040000fa
:0402a80088030000c7
:020000040000fa
:0402ac0088030000c3
:020000040000fa
:0402b00088030000bf
:020000040000fa
:0402b40088030000bb
:020000040000fa
:0402b80088030000b7
:020000040000fa
:0402bc0088030000b3
:020000040000fa
:0402c00088030000af
:020000040000fa
:0402c40088030000ab
:020000040000fa
:0402c80088030000a7
:020000040000fa
:0402cc0088030000a3
:020000040000fa
:0402d000880300009f
:020000040000fa
:0402d400880300009b
:020000040000fa
:0402d8008803000097
:020000040000fa
:0402dc008803000093
:020000040000fa
:0402e000880300008f
:020000040000fa
:0402e400880300008b
:020000040000fa
:0402e8008803000087
:020000040000fa
:0402ec008803000083
:020000040000fa
:0402f000880300007f
:020000040000fa
:0402f400880300007b
:020000040000fa
:0402f8008803000077
:020000040000fa
:0402fc008803000073
:020000040000fa
:04030000880300006e
:020000040000fa
:04030400880300006a
:020000040000fa
:040308008803000066
:020000040000fa
:04030c008803000062
:020000040000fa
:04031000880300005e
:020000040000fa
:04031400880300005a
:020000040000fa
:040318008803000056
:020000040000fa
:04031c008803000052
:020000040000fa
:04032000880300004e
:020000040000fa
:04032400880300004a
:020000040000fa
:040328008803000046
:020000040000fa
:04032c008803000042
:020000040000fa
:04033000880300003e
:020000040000fa
:04033400880300003a
:020000040000fa
:040338008803000036
:020000040000fa
:04033c008803000032
:020000040000fa
:04034000880300002e
:020000040000fa
:04034400880300002a
:020000040000fa
:040348008803000026
:020000040000fa
:04034c008803000022
:020000040000fa
:04035000880300001e
:020000040000fa
:04035400880300001a
:020000040000fa
:040358008803000016
:020000040000fa
:04035c008803000012
:020000040000fa
:04036000880300000e
:020000040000fa
:04036400880300000a
:020000040000fa
:100400002f8020000e7f24000e01880000000000d5
:10041000000020000000e000020032000001200087
:100420002002880014000700bb0007000000e00065
:1004300003003a00a0422000010020000200370023
:100440000000200001002000810f70000100320038
:1004500014000700000020000000e000020032004d
:1004600000000200000000008e03020000000000f7
:100470000040da000000fe004440a9000000200017
:100480000000e0000300320000002000a00188000e
:100490004440a800000006008a1f78008b1f7800e7
:1004a0000000060091018800800478000000eb0045
:1004b0001a003700e284440032a0b4009905ba0063
:1004c000e284440032a0b4009906ba00e2844400f9
:1004d00032a0b4000006eb00476fde00fd07b2005b
:1004e000636ce10003003a00ebff07000000eb0043
:1004f0000a003700606ce10004003a00005deb0088
:100500008b05e900fdff3e00040037006168e10053
:10051000010032000086eb000b00070019c7ba008b
:100520001905ba000e04e00003003a000a00e000da
:10053000e0ff3a0000000600fe07b2009e018800be
:100540008a047800f5ff3700395dba008b05e900b1
:100550000c003200295dba008b05e900080032006a
:100560000c00e00003003a00e284440032a0b40032
:10057000f5ff370019ddba008b05e900faff3a00f4
:100580008904e800e184440032a0b40000000600c1
:100590003600f800809fbe00829fbe00849fbe0090
:1005a000869fbe003400f80000002000a0018800f3
:1005b0000600fa008580a9008b0007000018800063
:1005c0004200de000040880001408000f03f200033
:1005d000008060000040880002408000b047210099
:1005e0000090b900c388de004f90de00008f5000fd
:1005f000010320001e8f40001e007800201188009b
:1006000002408000706626000090b900c288de00bb
:100610004f90de0000805000100798001e009000f0
:10062000716626000181b9004299de00cf80de00ac
:10063000810051006a09b900820078000100500071
:10064000100798001e0090000003b00010079800eb
:1006500000000000111180000010200000806000e8
:100660000000e000fbff32001e0090002011880017
:1006700001408000a0002000000178001100090066
:100680008200d8008000fd00200798002e00900016
:100690000003b00020079800000000001111800046
:1006a00000102000008060000000e000fbff32002e
:1006b0002e00900020118800000000001111800021
:1006c00000102000008060000000e000fbff32000e
:1006d000a0002000201188000000000011118000ff
:1006e00000102000008060000000e000fbff3200ee
:1006f0000080fa003400f9004f03be004f02be0034
:100700004f01be004f00be003600f9000040060059
:0c0710000040da000000fe0000000500c0
:020000040000fa
:10071c000000fa00b0ff2f0060198800c022ef0023
:10072c0010002000401688002136800000fe2f00ab
:10073c00008060003000b3002036880013000700f2
:10074c0001000700ffff37000000fa002002a9009b
:10075c000111800090ff2f000080600000118800c4
:10076c0020a2a9002062a900b0002000401188003e
:10077c0023a2a90023e2a9009580a80021e2a800e9
:10078c002342a8000080fa00000006000000fa00d6
:10079c002023ef002223ef002423ef003023ef006f
:1007ac002823ef0021e3a80025e3a80041198000cd
:1007bc0000fe2f00008060000010a000401988008f
:1007cc0041198000f00f2e00008060000090a00006
:1007dc00401988000080fa00000006000000fa00b2
:1007ec002023a8000000240021002000080007009e
:1007fc002023a900000000000019800061006000a7
:10080c000000e000fcff32000080fa00000006004f
:020000040000fa
:10081c00f03fb1000180b10006003500ee03090085
:10082c0000000000403fb1000180b100fbff3d0023
:10083c001000b000203fb00002003500008009001d
:08084c0000000000000006009e
:020000040000fa
:10085400000800000200000000000000000000008a
:020000040000fa
:0200000401f009
:04000c008000000070
:020000040000fa
:0200000401f009
:040014005f00000089
:020000040000fa
:0200000401f009
:04001c00ddff000004
:00000001FF
