:020000040000fa
:080000000002040000000000f2
:020000040000fa
:04000800ec02000006
:020000040000fa
:04000c00ec02000002
:020000040000fa
:04001000ec020000fe
:020000040000fa
:04001400ec020000fa
:020000040000fa
:04001800ec020000f6
:020000040000fa
:04001c00ec020000f2
:020000040000fa
:04002000ec020000ee
:020000040000fa
:04002400ec020000ea
:020000040000fa
:04002800c80200000a
:020000040000fa
:04002c00ec020000e2
:020000040000fa
:04003000ec020000de
:020000040000fa
:04003400ec020000da
:020000040000fa
:04003800ec020000d6
:020000040000fa
:04003c00ec020000d2
:020000040000fa
:04004000ec020000ce
:020000040000fa
:04004400ec020000ca
:020000040000fa
:04004800ec020000c6
:020000040000fa
:04004c00ec020000c2
:020000040000fa
:04005000ec020000be
:020000040000fa
:04005400ec020000ba
:020000040000fa
:04005800ec020000b6
:020000040000fa
:04005c00ec020000b2
:020000040000fa
:04006000ec020000ae
:020000040000fa
:04006400ec020000aa
:020000040000fa
:04006800ec020000a6
:020000040000fa
:04006c00ec020000a2
:020000040000fa
:04007000ec0200009e
:020000040000fa
:04007400ec0200009a
:020000040000fa
:04007800ec02000096
:020000040000fa
:04007c00ec02000092
:020000040000fa
:04008000ec0200008e
:020000040000fa
:04008400ec0200008a
:020000040000fa
:04008800ec02000086
:020000040000fa
:04008c00ec02000082
:020000040000fa
:04009000ec0200007e
:020000040000fa
:04009400ec0200007a
:020000040000fa
:04009800ec02000076
:020000040000fa
:04009c00ec02000072
:020000040000fa
:0400a000ec0200006e
:020000040000fa
:0400a400ec0200006a
:020000040000fa
:0400a800ec02000066
:020000040000fa
:0400ac00ec02000062
:020000040000fa
:0400b000ec0200005e
:020000040000fa
:0400b400ec0200005a
:020000040000fa
:0400b800ec02000056
:020000040000fa
:0400bc00ec02000052
:020000040000fa
:0400c000ec0200004e
:020000040000fa
:0400c400ec0200004a
:020000040000fa
:0400c800ec02000046
:020000040000fa
:0400cc00ec02000042
:020000040000fa
:0400d000ec0200003e
:020000040000fa
:0400d400ec0200003a
:020000040000fa
:0400d800ec02000036
:020000040000fa
:0400dc00ec02000032
:020000040000fa
:0400e000ec0200002e
:020000040000fa
:0400e400ec0200002a
:020000040000fa
:0400e800ec02000026
:020000040000fa
:0400ec00ec02000022
:020000040000fa
:0400f000ec0200001e
:020000040000fa
:0400f400ec0200001a
:020000040000fa
:0400f800ec02000016
:020000040000fa
:0400fc00ec02000012
:020000040000fa
:04010000ec0200000d
:020000040000fa
:04010400ec02000009
:020000040000fa
:04010800ec02000005
:020000040000fa
:04010c00ec02000001
:020000040000fa
:04011000ec020000fd
:020000040000fa
:04011400ec020000f9
:020000040000fa
:04011800ec020000f5
:020000040000fa
:04011c00ec020000f1
:020000040000fa
:04012000ec020000ed
:020000040000fa
:04012400ec020000e9
:020000040000fa
:04012800ec020000e5
:020000040000fa
:04012c00ec020000e1
:020000040000fa
:04013000ec020000dd
:020000040000fa
:04013400ec020000d9
:020000040000fa
:04013800ec020000d5
:020000040000fa
:04013c00ec020000d1
:020000040000fa
:04014000ec020000cd
:020000040000fa
:04014400ec020000c9
:020000040000fa
:04014800ec020000c5
:020000040000fa
:04014c00ec020000c1
:020000040000fa
:04015000ec020000bd
:020000040000fa
:04015400ec020000b9
:020000040000fa
:04015800ec020000b5
:020000040000fa
:04015c00ec020000b1
:020000040000fa
:04016000ec020000ad
:020000040000fa
:04016400ec020000a9
:020000040000fa
:04020800ec02000004
:020000040000fa
:04020c00ec02000000
:020000040000fa
:04021000ec020000fc
:020000040000fa
:04021400ec020000f8
:020000040000fa
:04021800ec020000f4
:020000040000fa
:04021c00ec020000f0
:020000040000fa
:04022000ec020000ec
:020000040000fa
:04022400ec020000e8
:020000040000fa
:04022800c802000008
:020000040000fa
:04022c00ec020000e0
:020000040000fa
:04023000ec020000dc
:020000040000fa
:04023400ec020000d8
:020000040000fa
:04023800ec020000d4
:020000040000fa
:04023c00ec020000d0
:020000040000fa
:04024000ec020000cc
:020000040000fa
:04024400ec020000c8
:020000040000fa
:04024800ec020000c4
:020000040000fa
:04024c00ec020000c0
:020000040000fa
:04025000ec020000bc
:020000040000fa
:04025400ec020000b8
:020000040000fa
:04025800ec020000b4
:020000040000fa
:04025c00ec020000b0
:020000040000fa
:04026000ec020000ac
:020000040000fa
:04026400ec020000a8
:020000040000fa
:04026800ec020000a4
:020000040000fa
:04026c00ec020000a0
:020000040000fa
:04027000ec0200009c
:020000040000fa
:04027400ec02000098
:020000040000fa
:04027800ec02000094
:020000040000fa
:04027c00ec02000090
:020000040000fa
:04028000ec0200008c
:020000040000fa
:04028400ec02000088
:020000040000fa
:04028800ec02000084
:020000040000fa
:04028c00ec02000080
:020000040000fa
:04029000ec0200007c
:020000040000fa
:04029400ec02000078
:020000040000fa
:04029800ec02000074
:020000040000fa
:04029c00ec02000070
:020000040000fa
:0402a000ec0200006c
:020000040000fa
:0402a400ec02000068
:020000040000fa
:0402a800ec02000064
:020000040000fa
:0402ac00ec02000060
:020000040000fa
:0402b000ec0200005c
:020000040000fa
:0402b400ec02000058
:020000040000fa
:0402b800ec02000054
:020000040000fa
:0402bc00ec02000050
:020000040000fa
:0402c000ec0200004c
:020000040000fa
:0402c400ec02000048
:020000040000fa
:0402c800ec02000044
:020000040000fa
:0402cc00ec02000040
:020000040000fa
:0402d000ec0200003c
:020000040000fa
:0402d400ec02000038
:020000040000fa
:0402d800ec02000034
:020000040000fa
:0402dc00ec02000030
:020000040000fa
:0402e000ec0200002c
:020000040000fa
:0402e400ec02000028
:020000040000fa
:0402e800ec02000024
:020000040000fa
:0402ec00ec02000020
:020000040000fa
:0402f000ec0200001c
:020000040000fa
:0402f400ec02000018
:020000040000fa
:0402f800ec02000014
:020000040000fa
:0402fc00ec02000010
:020000040000fa
:04030000ec0200000b
:020000040000fa
:04030400ec02000007
:020000040000fa
:04030800ec02000003
:020000040000fa
:04030c00ec020000ff
:020000040000fa
:04031000ec020000fb
:020000040000fa
:04031400ec020000f7
:020000040000fa
:04031800ec020000f3
:020000040000fa
:04031c00ec020000ef
:020000040000fa
:04032000ec020000eb
:020000040000fa
:04032400ec020000e7
:020000040000fa
:04032800ec020000e3
:020000040000fa
:04032c00ec020000df
:020000040000fa
:04033000ec020000db
:020000040000fa
:04033400ec020000d7
:020000040000fa
:04033800ec020000d3
:020000040000fa
:04033c00ec020000cf
:020000040000fa
:04034000ec020000cb
:020000040000fa
:04034400ec020000c7
:020000040000fa
:04034800ec020000c3
:020000040000fa
:04034c00ec020000bf
:020000040000fa
:04035000ec020000bb
:020000040000fa
:04035400ec020000b7
:020000040000fa
:04035800ec020000b3
:020000040000fa
:04035c00ec020000af
:020000040000fa
:04036000ec020000ab
:020000040000fa
:04036400ec020000a7
:020000040000fa
:100400004f8020000e7f24000e01880000000000b5
:10041000000020000000e000020032000001200087
:1004200020028800140007006d0007000000e000b3
:1004300003003a0080822000010020000200370003
:100440000000200001002000810f70000100320038
:1004500014000700000020000000e000020032004d
:1004600000000200000000008c05020000000000f7
:100470000040da000000fe004440a9000000200017
:100480000000e0000300320000002000a00188000e
:100490004440a800000006008a1f78008b1f7800e7
:1004a0000000060091018800800478000000eb0045
:1004b0001a003700e284440032a0b4009905ba0063
:1004c000e284440032a0b4009906ba00e2844400f9
:1004d00032a0b4000006eb00476fde00fd07b2005b
:1004e000636ce10003003a00ebff07000000eb0043
:1004f0000a003700606ce10004003a00005deb0088
:100500008b05e900fdff3e00040037006168e10053
:10051000010032000086eb000b00070019c7ba008b
:100520001905ba000e04e00003003a000a00e000da
:10053000e0ff3a0000000600fe07b2009e018800be
:100540008a047800f5ff3700395dba008b05e900b1
:100550000c003200295dba008b05e900080032006a
:100560000c00e00003003a00e284440032a0b40032
:10057000f5ff370019ddba008b05e900faff3a00f4
:100580008904e800e184440032a0b40000000600c1
:10059000801f78003400f80000002000a0018800cf
:1005a0000000fa008400a90000408000004088009c
:1005b0000000e8000040880000408000e40f500088
:1005c00001003a000028ef000080fa003400f90032
:1005d0004f007800004006000040da000000fe00f6
:1005e00000000500889fbe008a9fbe0030044200c4
:1005f000b0844a0030054b0090854b006000b1008c
:100600000898be000a90be000440e10005c8e10061
:1006100006d0e10007d8e100020031006800400088
:100620001008e8004f05be004f04be0000000600a1
:10063000889fbe008a9fbe003004be002005be0019
:100640000418540005985c0006185d0007985d00ca
:10065000110020000440e10005c8e10006d0e100df
:1006600007d8e100010039008000eb00108810007d
:100670004f05be004f04be00000006001200fa0045
:10068000889fbe008a9fbe008c9fbe00e0b79f007f
:10069000f1b79f0082bf9f0093bf9f000605be0079
:1006a0000404be000000eb00d0b79f00c0b79f005d
:1006b000b0b79f00a0b79f0090b79f0000067800da
:1006c0005fb19700cfb09700820141003fb0970023
:1006d0000200e00004003d00370007007e80570064
:1006e000c0ff070003003700330007007e8057007b
:1006f000cfff0700dfb697000d00e0000c003500cb
:100700006fb29700ffb297000fbb97009fbb970097
:1007100010002000010020006011b80000027200eb
:100720008182720002037300838373001b00070041
:100730000c06e80001042000810f5600e0ff3a009b
:100740000d00e00004003d000802be000a03be00e8
:100750007e805700a3ff07005fa897000000e0001d
:1007600005003a001fb29700afb297003fb3970061
:10077000cfb39700090007006fb09700ffb0970054
:100780000fb997009fb997004f06be004f05be00f6
:100790004f04be000080fa000000060001000700c0
:1007a00000000600a4b79f00b5b79f00c6b79f0022
:1007b000d7b79f00000006004f09de00828171005c
:1007c000b3b79f004f01de0081804000828070003f
:1007d000a1b79f008fb097004f09de0000004000d6
:1007e0000200700090b79f007fa897004f01de00c5
:1007f000818040008280700081b79f000d0007005b
:100800004f3ade000000400004007000f0af9f008f
:10081000080007000402420085824a0006034b00dc
:1008200087834b00dfff07000802be000a03be00fb
:10083000000006002fb29700bfb297004fb3970099
:10084000dfb3970000000600881f78001800200022
:10085000881f780089ff07008f87e9004f04780020
:1008600000000600801feb0084ff07008f87e9006f
:1008700000000600889fbe008a9fbe00e00f500067
:10088000e08f5800e00f5900e08f59000c003d0048
:100890006044b8006055b8000000540081805c00de
:1008a00002015d0083815d00180020001500070033
:1008b00008003d00180007000004eb0005003700a9
:1008c0000004eb000f00070002003d0012000700cb
:1008d00018002000dcff07000800e00006003200de
:1008e0006022b8006033b8000000520081805a00d6
:1008f00002015b0083815b004f05be004f04be0018
:1009000000000600e00f5200e08f5a00e00f5b008d
:10091000e08f5b00000006006044b8006055b8003e
:100920000402540085825c0006035d0087835d003d
:1009300000000600889fbe008a9fbe008c1f7800c2
:10094000e00f5000e08f5800e00f5900e08f590091
:100950000d003d006044b8006055b8000000540030
:1009600081805c0002015d0083815d001c0020002d
:100970000820e10009a8e1000ab0e1000bb8e1009d
:100980000d003d00080037000006eb00e00f5200ac
:10099000e08f5a00e00f5b00e08f5b0006003d0037
:1009a0006044b8006055b8000402540085825c00c1
:1009b00006035d0087835d00aaff07000c00e000ce
:1009c000060032006022b8006033b8000000520018
:1009d00081805a0002015b0083815b004f06780032
:1009e0004f05be004f04be0000000600889fbe00f9
:1009f0008a9fbe008c1f78000006eb00e00f5000bd
:100a0000e08f5800e00f5900e08f590007003d00cb
:100a10006044b8006055b8000000540081805c005c
:100a200002015d0083815d001c002000e00f520088
:100a3000e08f5a00e00f5b00e08f5b0007003d0095
:100a40006044b8006055b8000402540085825c0020
:100a500006035d0087835d000c00a2000c00070008
:100a60000c00e000060032006022b8006033b800dd
:100a70000000520081805a0002015b0083815b000c
:100a80004f0678004f05be004f04be000000060070
:100a9000889fbe008a9fbe008c9fbe000404b800e1
:100aa0000506b8008904460060854e000606b800b9
:100ab0000a054600e0854e000706b8008b05460093
:100ac000040eb800890446000a854e00e0854d00fa
:100ad000050eb8000a0546008b854e00060eb800cc
:100ae0008b0546000416b8000a0546008b854e00ab
:100af0000516b8008b054600041eb8008b0546009d
:100b00000800be000a01be004f06be004f05be0031
:080b10004f04be0000000600c6
:020000040000fa
:100b18000400fa000080eb0060198800000820003b
:100b2800401688008220ef008400a9009400a800e5
:100b380000408000e10f50000f003200e10f50002c
:100b480003003c000000e00006003200f8ff370018
:100b5800e20f50004d003200e30f500090003200c9
:100b6800f3ff3700cc02a900cc22a900cc42a9008f
:100b7800cc62a90025013700cc02a800cc22a9002c
:100b8800cc42a900cc62a90010408000cf80de00d2
:100b98006109b90004512700050720006033b80037
:100ba80090ff0700843e2000050020006033b80055
:100bb80023ff07000000be0015010700cc02a900b2
:100bc800cc22a800cc42a900cc62a9001040800029
:100bd800cf80de006109b900045127000507200015
:100be8006033b8007fff0700843e20000500200026
:100bf8006033b80012ff07000000be0004010700c0
:100c0800cc02a900cc22a900cc42a800cc62a90041
:100c180010408000cf80de006109b9000451270030
:100c2800050720006033b8006eff0700843e2000ef
:100c3800050020006033b80001ff07000000be0077
:100c4800f3000700cc02a900cc22a900cc42a900dd
:100c5800cc62a80010408000cf80de006109b90096
:100c680004512700050720006033b8005dff070026
:100c7800843e2000050020006033b800f0fe070025
:100c88000000be00e2000700e0003700cc02a90027
:100c9800cc22a900cc42a900cc62a8001040800058
:100ca800cf80de006109b900045127000507200044
:100cb8006033b8004bff0700843e20000500200089
:100cc8006033b800defe07000000be00d000070059
:100cd800cc02a900cc22a900cc42a800cc62a90071
:100ce80010408000cf80de006109b9000451270060
:100cf800050720006033b8003aff0700843e200053
:100d0800050020006033b800cdfe07000000be00db
:100d1800bf000700cc02a900cc22a800cc42a90041
:100d2800cc62a90010408000cf80de006109b900c4
:100d380004512700050720006033b80029ff070089
:100d4800843e2000050020006033b800bcfe070088
:100d58000000be00ae000700cc02a800cc22a9000b
:100d6800cc42a900cc62a90010408000cf80de00f0
:100d78006109b90004512700050720006033b80055
:100d880018ff0700843e2000050020006033b800eb
:100d9800abfe07000000be009d0007009b00370067
:100da8000000eb00000f780045003700cc02a800d7
:100db800cc22a900cc42a900cc62a9001040800036
:100dc800cf80de006109b900045127000507200023
:100dd8006033b80003ff0700843e200005002000b0
:100de8006033b80096fe07000000be0088000700c8
:100df800cc02a900cc22a800cc42a900cc62a90050
:100e080010408000cf80de006109b900045127003e
:100e1800050720006033b800f2fe0700843e20007a
:100e2800050020006033b80085fe07000000be0002
:100e380077000700cc02a900cc22a900cc42a80068
:100e4800cc62a90010408000cf80de006109b900a3
:100e580004512700050720006033b800e1fe0700b1
:100e6800843e2000050020006033b80074fe0700af
:100e78000000be0066000700cc02a900cc22a90031
:100e8800cc42a900cc62a80010408000cf80de00d0
:100e98006109b90004512700050720006033b80034
:100ea800d0fe0700843e2000050020006033b80013
:100eb80063fe07000000be00550007001e0fe80093
:100ec800f00f20009e007800808f5000b7ff34009c
:100ed8000000eb001007980047003700cc02a9007b
:100ee800cc22a900cc42a900cc62a8001040800006
:100ef800cf80de006109b9000451270005072000f2
:100f08006033b800b7fe0700843e200005002000cb
:100f18006033b8004afe07000000be003c0007002e
:100f2800cc02a900cc22a900cc42a800cc62a9001e
:100f380010408000cf80de006109b900045127000d
:100f4800050720006033b800a6fe0700843e200095
:100f5800050020006033b80039fe07000000be001d
:100f68002b000700cc02a900cc22a800cc42a90083
:100f7800cc62a90010408000cf80de006109b90072
:100f880004512700050720006033b80095fe0700cc
:100f9800843e2000050020006033b80028fe0700ca
:100fa8000000be001a000700cc02a800cc22a9004d
:100fb800cc42a900cc62a90010408000cf80de009e
:100fc8006109b90004512700050720006033b80003
:100fd80084fe0700843e2000050020006033b8002e
:100fe80017fe07000000be00090007001e00900061
:100ff8000000e800100798009e009000f00f200005
:10100800808f5000b5ff340000000000c8fe370094
:020000040000fa
:10101800f03fb1000180b10006003500ee03090081
:1010280000000000403fb1000180b100fbff3d001f
:101038001000b000203fb000020035000080090019
:0810480000000000000006009a
:020000040000fa
:101050000008000004000000000000000000000084
:020000040000fa
:0200000401f009
:04000c008000000070
:020000040000fa
:0200000401f009
:040014005f00000089
:020000040000fa
:0200000401f009
:04001c00ddff000004
:00000001FF
