:020000040000fa
:080000000002040000000000f2
:020000040000fa
:0400080028030000c9
:020000040000fa
:04000c0028030000c5
:020000040000fa
:0400100028030000c1
:020000040000fa
:0400140028030000bd
:020000040000fa
:0400180028030000b9
:020000040000fa
:04001c0028030000b5
:020000040000fa
:0400200028030000b1
:020000040000fa
:0400240028030000ad
:020000040000fa
:04002800c80200000a
:020000040000fa
:04002c0028030000a5
:020000040000fa
:0400300028030000a1
:020000040000fa
:04003400f2020000d4
:020000040000fa
:040038002803000099
:020000040000fa
:04003c002803000095
:020000040000fa
:040040002803000091
:020000040000fa
:04004400280300008d
:020000040000fa
:040048002803000089
:020000040000fa
:04004c002803000085
:020000040000fa
:040050002803000081
:020000040000fa
:04005400280300007d
:020000040000fa
:040058002803000079
:020000040000fa
:04005c002803000075
:020000040000fa
:040060002803000071
:020000040000fa
:04006400280300006d
:020000040000fa
:040068002803000069
:020000040000fa
:04006c002803000065
:020000040000fa
:040070002803000061
:020000040000fa
:04007400280300005d
:020000040000fa
:040078002803000059
:020000040000fa
:04007c002803000055
:020000040000fa
:040080002803000051
:020000040000fa
:04008400280300004d
:020000040000fa
:040088002803000049
:020000040000fa
:04008c002803000045
:020000040000fa
:040090002803000041
:020000040000fa
:04009400280300003d
:020000040000fa
:040098002803000039
:020000040000fa
:04009c002803000035
:020000040000fa
:0400a0002803000031
:020000040000fa
:0400a400280300002d
:020000040000fa
:0400a8002803000029
:020000040000fa
:0400ac002803000025
:020000040000fa
:0400b0002803000021
:020000040000fa
:0400b400280300001d
:020000040000fa
:0400b8002803000019
:020000040000fa
:0400bc002803000015
:020000040000fa
:0400c0002803000011
:020000040000fa
:0400c400280300000d
:020000040000fa
:0400c8002803000009
:020000040000fa
:0400cc002803000005
:020000040000fa
:0400d0002803000001
:020000040000fa
:0400d40028030000fd
:020000040000fa
:0400d80028030000f9
:020000040000fa
:0400dc0028030000f5
:020000040000fa
:0400e00028030000f1
:020000040000fa
:0400e40028030000ed
:020000040000fa
:0400e80028030000e9
:020000040000fa
:0400ec0028030000e5
:020000040000fa
:0400f00028030000e1
:020000040000fa
:0400f40028030000dd
:020000040000fa
:0400f80028030000d9
:020000040000fa
:0400fc0028030000d5
:020000040000fa
:0401000028030000d0
:020000040000fa
:0401040028030000cc
:020000040000fa
:0401080028030000c8
:020000040000fa
:04010c0028030000c4
:020000040000fa
:0401100028030000c0
:020000040000fa
:0401140028030000bc
:020000040000fa
:0401180028030000b8
:020000040000fa
:04011c0028030000b4
:020000040000fa
:0401200028030000b0
:020000040000fa
:0401240028030000ac
:020000040000fa
:0401280028030000a8
:020000040000fa
:04012c0028030000a4
:020000040000fa
:0401300028030000a0
:020000040000fa
:04013400280300009c
:020000040000fa
:040138002803000098
:020000040000fa
:04013c002803000094
:020000040000fa
:040140002803000090
:020000040000fa
:04014400280300008c
:020000040000fa
:040148002803000088
:020000040000fa
:04014c002803000084
:020000040000fa
:040150002803000080
:020000040000fa
:04015400280300007c
:020000040000fa
:040158002803000078
:020000040000fa
:04015c002803000074
:020000040000fa
:040160002803000070
:020000040000fa
:04016400280300006c
:020000040000fa
:0402080028030000c7
:020000040000fa
:04020c0028030000c3
:020000040000fa
:0402100028030000bf
:020000040000fa
:0402140028030000bb
:020000040000fa
:0402180028030000b7
:020000040000fa
:04021c0028030000b3
:020000040000fa
:0402200028030000af
:020000040000fa
:0402240028030000ab
:020000040000fa
:04022800c802000008
:020000040000fa
:04022c0028030000a3
:020000040000fa
:04023000280300009f
:020000040000fa
:04023400f2020000d2
:020000040000fa
:040238002803000097
:020000040000fa
:04023c002803000093
:020000040000fa
:04024000280300008f
:020000040000fa
:04024400280300008b
:020000040000fa
:040248002803000087
:020000040000fa
:04024c002803000083
:020000040000fa
:04025000280300007f
:020000040000fa
:04025400280300007b
:020000040000fa
:040258002803000077
:020000040000fa
:04025c002803000073
:020000040000fa
:04026000280300006f
:020000040000fa
:04026400280300006b
:020000040000fa
:040268002803000067
:020000040000fa
:04026c002803000063
:020000040000fa
:04027000280300005f
:020000040000fa
:04027400280300005b
:020000040000fa
:040278002803000057
:020000040000fa
:04027c002803000053
:020000040000fa
:04028000280300004f
:020000040000fa
:04028400280300004b
:020000040000fa
:040288002803000047
:020000040000fa
:04028c002803000043
:020000040000fa
:04029000280300003f
:020000040000fa
:04029400280300003b
:020000040000fa
:040298002803000037
:020000040000fa
:04029c002803000033
:020000040000fa
:0402a000280300002f
:020000040000fa
:0402a400280300002b
:020000040000fa
:0402a8002803000027
:020000040000fa
:0402ac002803000023
:020000040000fa
:0402b000280300001f
:020000040000fa
:0402b400280300001b
:020000040000fa
:0402b8002803000017
:020000040000fa
:0402bc002803000013
:020000040000fa
:0402c000280300000f
:020000040000fa
:0402c400280300000b
:020000040000fa
:0402c8002803000007
:020000040000fa
:0402cc002803000003
:020000040000fa
:0402d00028030000ff
:020000040000fa
:0402d40028030000fb
:020000040000fa
:0402d80028030000f7
:020000040000fa
:0402dc0028030000f3
:020000040000fa
:0402e00028030000ef
:020000040000fa
:0402e40028030000eb
:020000040000fa
:0402e80028030000e7
:020000040000fa
:0402ec0028030000e3
:020000040000fa
:0402f00028030000df
:020000040000fa
:0402f40028030000db
:020000040000fa
:0402f80028030000d7
:020000040000fa
:0402fc0028030000d3
:020000040000fa
:0403000028030000ce
:020000040000fa
:0403040028030000ca
:020000040000fa
:0403080028030000c6
:020000040000fa
:04030c0028030000c2
:020000040000fa
:0403100028030000be
:020000040000fa
:0403140028030000ba
:020000040000fa
:0403180028030000b6
:020000040000fa
:04031c0028030000b2
:020000040000fa
:0403200028030000ae
:020000040000fa
:0403240028030000aa
:020000040000fa
:0403280028030000a6
:020000040000fa
:04032c0028030000a2
:020000040000fa
:04033000280300009e
:020000040000fa
:04033400280300009a
:020000040000fa
:040338002803000096
:020000040000fa
:04033c002803000092
:020000040000fa
:04034000280300008e
:020000040000fa
:04034400280300008a
:020000040000fa
:040348002803000086
:020000040000fa
:04034c002803000082
:020000040000fa
:04035000280300007e
:020000040000fa
:04035400280300007a
:020000040000fa
:040358002803000076
:020000040000fa
:04035c002803000072
:020000040000fa
:04036000280300006e
:020000040000fa
:04036400280300006a
:020000040000fa
:10040000cfe120000e7f24000e01880000000000d4
:10041000000020000000e000020032000001200087
:1004200020028800140007008b0007000000e00095
:1004300003003a0000ee2000010020000200370017
:100440000000200001002000810f70000100320038
:1004500014000700000020000000e000020032004d
:1004600000000200000000005a100200000000001e
:100470000040da000000fe004440a9000000200017
:100480000000e0000300320000002000a00188000e
:100490004440a800000006008a1f78008b1f7800e7
:1004a0000000060091018800800478000000eb0045
:1004b0001a003700e284440032a0b4009905ba0063
:1004c000e284440032a0b4009906ba00e2844400f9
:1004d00032a0b4000006eb00476fde00fd07b2005b
:1004e000636ce10003003a00ebff07000000eb0043
:1004f0000a003700606ce10004003a00005deb0088
:100500008b05e900fdff3e00040037006168e10053
:10051000010032000086eb000b00070019c7ba008b
:100520001905ba000e04e00003003a000a00e000da
:10053000e0ff3a0000000600fe07b2009e018800be
:100540008a047800f5ff3700395dba008b05e900b1
:100550000c003200295dba008b05e900080032006a
:100560000c00e00003003a00e284440032a0b40032
:10057000f5ff370019ddba008b05e900faff3a00f4
:100580008904e800e184440032a0b40000000600c1
:10059000801f78003400f80000002000a0018800cf
:1005a0000000fa008400a900204080000000e00064
:1005b00003003200e10f5000040032000500370054
:1005c0001000200020408800020037000428ef00bf
:1005d000000000000080fa003400f9004f007800ad
:1005e000004006003600f800809fbe00829fbe00db
:1005f000849fbe00869fbe003400f80000002000eb
:10060000a00188000000fa00200f80008000eb00ad
:100610003a000700d2bc2300c30b24001b020700d2
:100620003040880041408800e421ef008460a90048
:100630000080fa003400f9004f03be004f02be00f4
:100640004f01be004f00be003600f900004006001a
:100650000040da000000fe00000005001400200049
:1006600092033700f4ff2f00900337000001be0013
:10067000240007000470a70003f0a1006509b10081
:10068000160032000d0035006828e1000600350034
:10069000f0ff2f00f1ff27000300e00013003b00f4
:1006a0000100280000000500000040008180480093
:1006b0008502e900fcff3a0008003700f88f42008d
:1006c00002003c008000eb00000005008100d1002a
:1006d0000080d3008502e800fcff3a000300e00040
:1006e00002003b0060001000e080180000000600df
:1006f0004f89de0082017800870337006011b8005f
:1007000095033700c70ade00f107b200f50fb2000b
:1007100008003200e1cf4200020032000170a00068
:1007200024000500810f700001003200040805005c
:1007300044000500810f700002003a00140005001b
:100740008502e9000000400081c04800fcff3b003a
:100750000170a0002400050007f82700078361004e
:100760000638e10004003a00f707200087836100a3
:100770008703710001003a0003f0a200889fbe00c9
:100780008a9fbe008c9fbe00470ade000480a10045
:10079000c71ade000580a100070028000785600059
:1007a00087856100f70f20000720e1009e003200de
:1007b0000728e1009c003200010678000400e000f8
:1007c000b4003200f7072000878060000170a000ad
:1007d0000500e000c0003200f707200087816100bb
:1007e0000370a000050652000f003a000b50e10014
:1007f0000b0032000308e10002003a000200e100b1
:100800007e0032000204500083845800040031004e
:100810000001fd008101fd008402fd008a05fd004c
:100820006044b800210037000520e10005003d00cc
:100830000001fd008101fd008402fd008a05fd002c
:10084000050652007a60e100050035000170a10044
:100850004722dd00848070008a80700063003700ca
:100860006044b800ef02660007ff2f00070666002d
:100870000500e00006003400f08312008714dd005c
:100880000511de00071bdd00060171008519de0081
:100890007060e100050035000904780082047800ea
:1008a000030178008001eb00700656000b50e10058
:1008b00003003a0002004000838048000400370033
:1008c00060041400e0841c0002005800838058007b
:1008d0000188a300060032008100d1000080d3000f
:1008e0008984d3000884d3000402e800270037007d
:1008f0000178a30025003a000100e0000300320067
:100900008186cf00698656000a0037008c002000df
:100910000000e00004003a00090078008804780034
:100920000004eb00700252008086cf000d064600e6
:100930000c06e9007060e1000600350080007800d8
:1009400009007800880478000004eb007006560067
:10095000700252000c00e0000c0034008c08dd0036
:10096000f00316000703de00868070000c00dd0037
:10097000074bde00060070008c4cdd000743de00f4
:10098000868474000c44dd000c0252006120e100fa
:1009900020003500610160000700280087816400a5
:1009a000f7ff270087836400070374000300e0005b
:1009b0000600320082037300040032000000e800e9
:1009c000e08048000188a3000e003a00f70f2000e5
:1009d0000720e1004a003d000170a1004722dd0030
:1009e000810072008a8070000000be004f06be00c9
:1009f0004f05be004f04be00000006006000b800b6
:100a0000faff37008100d1000080d3000402e80023
:100a1000eeff37000401780089017400a10107008e
:100a20008a807000f1ff3700f701070007027800a5
:100a30000001fd008101fd00f3010700870278003d
:100a4000850372000778a300040032000001fd0056
:100a50008101fd0006020700e4ff37008503620004
:100a60000768a300080032000b50e10003003200c9
:100a7000f0ff2f00f1ff2700dcff37000001fd0031
:100a80008101fd00d9ff37000468a300d7ff3200c1
:100a9000faff3700f8ff2700888360000b003a0058
:100aa0000000e00009003a008303640082837300c1
:100ab000020032000200be00ccff37000b50e10004
:100ac000ceff3a000200be00c8ff3700140020002d
:100ad000810064003eff3700f8ff27008883610033
:100ae00004003a000200e00002003a008c007800a6
:100af000beff3700150020008301640039ff370076
:100b000001f827000000200081007500b7ff3700c2
:100b1000889fbe008a9fbe008c9fbe001b002000e5
:100b20000202be0005866800060028000606660070
:100b30004709de00f20fb200820032000243e800f3
:100b400080003200c729de00f30fb2007d003200c2
:100b50000343e8007b003200f107b2000170a000ff
:100b6000f507b2000570a000c708dd004903de00ec
:100b7000868070004700dd00c72add004923de00c3
:100b8000868272004722dd000305510004035000f5
:100b90008583580003003100000040008180480038
:100ba0000a05e9008c1f78008a9fbe0004005000ef
:100bb000858058000402420085824a0000004000ff
:100bc000818048000005eb000004be006033b800df
:100bd0000406be000d48e100560031001100090076
:100be0004dccd8000c01b8000d02b8008481410042
:100bf00060824a008283530003045c0084845c00aa
:100c000060055d000a00e00025003a0080057800dc
:100c10000d40e100490031008800780007007800ad
:100c2000110009004d88d8000c01b8000d02b80071
:100c30008481410060824a006003110083835b006d
:100c400004045c00e0845c000900e00021003a003c
:100c50004f01be000300e0002b003200e301600002
:100c6000070673008c81710001003200640070007f
:100c70004200de004e5edd000c007000c258de0057
:100c800001e0a00083010700cf017800818071009e
:100c90004f06be004f05be004f04be000000060018
:100ca0008c8343000d044c00e0844c0060054d0033
:100cb0000000e9000a00e000d4ff32008c8343000a
:100cc0000d044c00e0844c0060054d000000e9007c
:100cd000ceff37000c0343008d834b0060044c00b3
:100ce000e0844c000000e9000900e000d8ff320079
:100cf0000c0343008d834b0060044c00e0844c00e7
:100d00000000e900d2ff37004200de004e5edd0049
:100d10000c007000c258de0001e0a000cf01780096
:100d20000300e000daff320060001000e0801800ed
:100d3000d7ff3700f0ff2f00aaff3700f0ff2f008a
:100d4000b9ff37000404be002f01070087067800b2
:100d50000004fd008104fd002b01070007836600ed
:100d60000678a300030032000960a7000800be0057
:100d70002c0037000d78a300020032000800be00ee
:100d8000280037000778a30026003a0001f0a100f0
:100d900009f0a1000668a30003003200f1ff27005c
:100da000f0ff2f00baff37000d68a30003003200e8
:100db0000800be008c807000b5ff37000768a300f4
:100dc00007003a000648a30003003200f1ff2700a5
:100dd000f0ff2f00aeff37000d48a30003003200e4
:100de0006000b8008c807000a9ff37000748a3009e
:100df0000400320001f82700000020008c80700001
:100e0000a3ff3700760107000004fd008104fd0008
:100e100002057800720107000802be008a0178000e
:100e200059ff37000160a00012022000f241880043
:100e300097ff37000100e000120032000500e000db
:100e400010003200889fbe008a9fbe008c9fbe00ab
:100e50000006eb0001f8a300030032006000100060
:100e6000e08018000cf0a00005f8a3000300320099
:100e700060021200e0821a000cf0a2008005eb0074
:100e800041ff37006000b8000200050003836800de
:100e90000700280007036300470ade000480a10062
:100ea000c71ade000580a100f70f20000720e1002f
:100eb000420032000728e10040003200889fbe0057
:100ec0008a9fbe008c1f7800f107b200f307b200c2
:100ed0000400e000640032000170a0000500e000a2
:100ee000680032000370a00085054200eb07b100e6
:100ef0000204b8000302b8008484440060854a00fc
:100f0000020ab800848444000a854a00030ab80033
:100f100004054500040033000804d0008984d20091
:100f20000a85d2008b05e9006158e1003d003500db
:100f3000021020000901610003082000898161007e
:100f4000f70720008783640008867300c84cde0022
:100f5000c853dd00878474004855de000300e000bc
:100f60000600320082037600040032008904e800a3
:100f700060054d000a88a3000c003a00f70f20001e
:100f80000758e10044003d000a70a100c75ddd0084
:100f90000a8575008a007300090078004f06780002
:100fa0004f05be004f04be00000006000a05d10038
:100fb0008984d3008b05e800f0ff3700881f780094
:100fc0000604780090000700070278000001fd0089
:100fd0008101fd008c000700870278008503720004
:100fe0000778a300050032000001fd008101fd002b
:100ff0009f0007004f047800000006008503720080
:101000000748a30003003200f0ff2f00f1ff270084
:10101000f8ff37000000200001f8270088807000ea
:10102000f4ff3700880178004848dd0080817100b6
:101030004848de00c850dd0001007000c850de00e6
:10104000060478000b017800160007008880700005
:10105000d2ff37000500e000050032001700200035
:101060003a0007009dff370081037000f9ff3a0046
:10107000860078004f0678004f05be004f04be0082
:101080000000050083037100f9ff320027002000f3
:101090002e00070094ff370001f8270086807000bb
:1010a000f4ff37000100e00026003200610111006a
:1010b0007810e10023003c006022b8007010e100cd
:1010c0000400350080027800010078008000eb0009
:1010d000700151000200e0000900340070031100ab
:1010e000062add00822ade008603dd008782720088
:1010f0000200de00860bdd00070070008208de00c3
:1011000084817100f4ff27000482620084817100f1
:1011100004002800848262006102600005f0a600dd
:101120000000060004827100070032000000e800a1
:10113000e0804800000006000002be006000b80029
:10114000efff37006000b80000000600889fbe0077
:101150000004eb006138e10016003a000100e000f5
:1011600008003a00c800de004800dd0088002000ca
:101170000100e00003003a00c800de004800dd0086
:10118000680444008184cf00e984540006003400e0
:101190008908dd00f08314008703de00878070007b
:1011a0000900dd0009044400610214004f04be0080
:1011b000000006000300e00008003a00c811de004d
:1011c0004811dd00880020000300e00003003a0021
:1011d000c811de004811dd00680444008384cf009c
:1011e000e9845400060034008919dd00f0831400fe
:1011f0008713de00878171000911dd0009044400b6
:10120000e1021400e9ff37002700200001f0a700e9
:1012100017002000470bde00f60fb200040032007a
:101220000643e8000a0032004702b300000006004f
:1012300001037800f607b2000603700002003a00ce
:101240000703b300000006008702b3000000060099
:1012500001037800f607b2000603700002003200b6
:101260000770a000000006000760a0000000060054
:101270000478a300040032000578a30003003200c4
:101280000168a30001003a000200be000160a00056
:101290000000060081017000270032008002eb0090
:1012a00001f8a3000300320060001000e080180085
:1012b00015002000f4072000020242002000340044
:1012c000f70320008703600006042000000363008a
:1012d00002082000000161004700de00c909dd00ae
:1012e00000807100c708de000600e0000800320040
:1012f00087037100060032001000b0000180b000ca
:101300000188a30002003200c108de000402e800e8
:10131000f107b200f30f20000320e10003003d00bd
:101320004722dd00810072002900370001f8270004
:101330000000eb00260037006000b8000000060047
:10134000680212007f20e100020034006000b80053
:101350001f0037006011b8007020e1000400350064
:1013600080017800010078008000eb0070025200dc
:101370000400e00009003400f00312000719dd004a
:101380008419de000703dd00868171000400de00a1
:10139000070bdd00060070008408de00f7ff270061
:1013a0008383630087037100060028000303630042
:1013b000070032000700e00003003a00610160000e
:1013c00002817300020032001000b0000180b00002
:1013d0000500a6000000060001f0a00000000600c5
:1013e0004f0ade004709de00f107b200f20fb2003b
:1013f0000b003200f207b1000170a000c708dd0049
:10140000c901de00838070004700dd000400a600f3
:101410000000060060001000e080180000000600d8
:10142000810f700001003a00000006008182cf00a9
:101430000500e00010003e008082cf00ee824200f6
:101440007028e1000400390007003e0080007800a9
:101450000000eb000e003700708312008600de00f3
:101460000500dd000a003700708352008600dd00b1
:101470000000eb0006003700e28252008508dd0024
:10148000708312000603de00868070000500dd0018
:101490007507b0000501ea000400a6000000060080
:1014a00060001000e080180000000600889fbe0069
:1014b0008a9fbe00841f78007c0007004f007800e0
:1014c00011003300f0ff2f00838f6c0006003b00fb
:1014d000040565000a00a7000800370009f0a6000f
:1014e0001000200008003700820f5400838f5c003a
:1014f000030039001000200001003e000000200021
:1015000009f0a7000000ea004f05be004f04be002e
:101510000000e00000000600881f78000304780047
:101520000300e00007003d0060001000e0801800ac
:1015300060011900e081190002003b0001f02d005c
:10154000030037000400070008f0a70001f0a00026
:101550004f04780000000600889fbe008a9fbe00ee
:1015600000827000040271000482710026003200c3
:101570000004be000200be006011b8006b0920002c
:10158000950220000182cf000a0039000541b10018
:101590000082cf00070039000541b1000982cf0069
:1015a000040039000541b1000882cf000100390074
:1015b0000541b10005425200120032000a003b0012
:1015c00082817100610164008100d1000080d3003c
:1015d0008984d3000884d3008b05e8000442e80026
:1015e000f7ff3a00070037000804440089844c00e4
:1015f00000004800818048008b05e9000442e900b2
:10160000f9ff3a00030007004f05be004f04be007b
:101610000000060081002000618055000b003d00a5
:101620000b00200061fe2f000100e1001d003400ce
:1016300082817100610164008904d1000884d300b3
:101640000000e800faff3a00710020006100640029
:1016500003007000020060000900320061044400d1
:10166000e0844c000988a500050032008b05e800e5
:101670006808e10002003a008904d1000884d30020
:10168000f20f20000258e10005003d00c75ddd00bb
:10169000f907b20089807500080078000000060094
:1016a0000bf827008b007800000005000004be0046
:1016b00014fc07000003be000405be000200be00cb
:1016c00010fc0700844f750000000600889fbe00d4
:1016d0008a9fbe00800478000200e0005b003200b8
:1016e00001407800814c780082814400f1f99f002c
:1016f000e20f51005500360091449800a144980033
:10170000e1f99f00d1f99f00e60f51004f0036002c
:10171000b1449800c1f99f00e80f51004b0036001a
:101720000905ea00630565000a8444000a055100c2
:10173000c1ff2f00010565000080fb008000eb0069
:10174000121020001310200044000700008cbe007f
:101750000a01440060b99f0071b99f00e80f55006d
:101760003a003600200498003104980040049800a4
:101770005104980020b99f0031b99f0040b99f00e3
:1017800051b99f00f80f55003000360060049800f2
:1017900071049800000c9800110c9800200c98001f
:1017a000310c9800400c9800510c980020b19f001b
:1017b00031b19f0040b19f0051b19f0060b19f00c7
:1017c00071b19f0000b99f0011b99f0064016400ce
:1017d0007801410002044400020555006011b80080
:1017e0000203be000002be000403be006022b80077
:1017f0000000720081807200020173008381730017
:1018000010003700009cbe000294be004004980007
:10181000510498006204980073049800000c98002a
:10182000110c9800220c9800330c9800400c980082
:10183000510c9800620c9800730c98000a02b100d9
:101840000802b000ff0f5500eeff3e0009007800cf
:101850004f05be004f04be0000000600020ab9009a
:10186000001bb9000200b800810042008100430063
:04187000000006006e
:020000040000fa
:101874000200fa00004f780032030700a0c7b3004b
:10188400630307000040eb00610307001e4078007b
:101894005f030700340307000080fa00000006001d
:1018a4000200fa00004f780026030700a0c7b30027
:1018b400570307004703070000c4b300540307009d
:1018c400440307001e40780051030700410307004a
:1018d400250307000080fa00000006000000fa005b
:1018e400e0cab300e2ff070050cdb300e0ff0700f9
:1018f40000c8b300deff070080cab300dcff0700a6
:10190400f0c3b300daff070030cdb300d8ff0700ff
:101914000040eb00d6ff070000c4b300d4ff07006b
:10192400d0c8b300d2ff070040c1b300d0ff070006
:1019340000c2b300ceff07000040eb00ccff07005d
:1019440010cab300caff070080ccb300c8ff070069
:10195400a0cdb300c6ff070020c1b300c4ff070039
:1019640010c8b300c2ff0700f0ccb300c0ff0700eb
:1019740090cdb300beff070010cfb300bcff07003b
:10198400b0cdb300baff070000c4b300b8ff07002e
:1019940040cab300b6ff070060cab300b4ff070033
:1019a40004000700f0cab300b1ff07000080fa008a
:1019b400000006000000fa00024020008000eb0056
:1019c4000084200040ff07000080fa0000000600a9
:1019d4000600fa00f0c0b300004f780000cbb3005b
:1019e4001e404000a2ff07000040eb00a0ff0700dc
:1019f40000c1b3009eff07000008200010079800f4
:101a040021003700cf020700a0c7b300000307007e
:101a140000c4b300fe0207000040eb0040479800fa
:101a24000f0037001e80fb000000e8004700dd00c7
:101a3400800078001e009000008050000184200087
:101a440061407800f20207001e0090000000e900e7
:101a5400100798004e4090000040e800404798006e
:101a64004e409000ef4f5000eeff36001e009000f5
:101a74000000e80010079800bb0207001e00900059
:101a84000000e900100798001e0090000000e0002c
:101a9400dcff3a001e4fe900d0ff37000600fa00d1
:101aa400000f78001107980022079800f007200023
:101ab4009e007800808f500047003e009e009000fa
:101ac400f0032000808f500045003e002e0090005f
:101ad400e10f500005003200e10f500016003900fc
:101ae400e20f5000280032003e0037001e00900034
:101af4004300de00c700dd009e8040004700dd009b
:101b04001e004000028420006240780000417800fa
:101b14001e00900067006000130020000018dd0024
:101b240000407800004071000041780000842000eb
:101b340002f078002b0037001e0090004300de0006
:101b4400c700dd009e8040004700dd001e0040000d
:101b54000284200062407800004178001e0090005a
:101b640067006000130020000018dd0000407800ca
:101b740000c0ea00004061000041780000842000b9
:101b840002f07800170037001e0090004300de00ca
:101b9400c700dd009e8040004700dd001e004000bd
:101ba4000284200062407800004178001e0090000a
:101bb40067006000130020000018dd00004078007a
:101bc40000406900004178000084200002f07800a1
:101bd400000000000300370000000000010037008f
:101be400000000000080fa00000006000800fa006f
:101bf4004047980051479800624798006e40900013
:101c0400ff4f500052003400ee409000f0c7b30084
:101c140080cf5000500032000040eb00004f7800ad
:101c2400330037006e4090000000fb000002b1005a
:101c340001c4200061417800124798000040eb0085
:101c440020479800260037001e4090000080fb00cb
:101c540061006000004078000004e0000d003200e4
:101c64005e4090008080fb002e4090000080fb00ce
:101c740000804000800078004e4090000081fb000e
:101c84001e80fb00000041001200200083ff0700bb
:101c94000c0037005e4090008080fb002e409000d6
:101ca4000080fb0000804000800078004e409000df
:101cb4000081fb001e80fb00000041000001eb00de
:101cc40076ff07001e4090000080fb000000d1005a
:101cd400104798002e4090000040e80020479800ec
:101ce4002e409000e64f5000d7ff36001e4fe8000c
:101cf4001e407800e44f5000caff36000040eb005d
:101d0400304798000e0037005e4090008080fb0052
:101d14003e4090000080fb0000804000800078007e
:101d24004e4090000080fb00650040000001eb0085
:101d34005aff07003e4090000040e80030479800fa
:101d44003e409000e64f5000efff3600030037009e
:101d54000000000001003700000000000080fa00cd
:101d6400000006000400fa00004f780011479800b4
:101d7400120798000b0037001e00900010407800f6
:101d8400004178009e4090001e40780097ff0700b5
:101d94009e40780066cf40001e0090000000e800de
:101da400100798001e009000104078000004e00026
:0c1db400f1ff3a000080fa000000060079
:020000040000fa
:101dc00000080000220000000000000022080000bf
:101dd0001400000002000000afae4e004100000001
:101de000803f330033333f00000000003fcdcc0084
:101df000cc3d0000400c0000dc01000002000000af
:101e00000000000000000000005f0000000007006c
:101e100000070000147f14007f1424002a7f2a008a
:101e20001223130008646200364956002050000057
:101e30000807030000001c002241000000412200ae
:101e40001c002a001c7f1c002a0808003e0808000d
:101e5000008070003000080008080800080000003a
:101e6000606000002010080004023e005149450057
:101e70003e0042007f40000072494900494621006f
:101e800041494d0033181400127f100027454500ca
:101e900045393c004a4949003141210011090700f8
:101ea0003649490049364600494929001e000000cc
:101eb000140000000040340000000000081422005c
:101ec00041141400141414000041220014080200ec
:101ed00001590900063e41005d594e007c12110077
:101ee000127c7f0049494900363e410041412200b1
:101ef0007f414100413e7f0049494900417f09003f
:101f0000090901003e41410051737f0008080800a3
:101f10007f0041007f410000204041003f017f00e1
:101f200008142200417f4000404040007f021c0016
:101f3000027f7f00040810007f3e410041413e00c7
:101f40007f09090009063e00415121005e7f09001a
:101f5000192946002649490049320300017f010042
:101f6000033f400040403f001f204000201f3f0033
:101f7000403840003f6314000814630003047800f5
:101f80000403610059494d0043007f004141410075
:101f90000204080010200000414141007f040200bb
:101fa00001020400404040004040000003070800d8
:101fb00000205400547840007f2844004438380002
:101fc000444444002838440044287f0038545400d6
:101fd00054180000087e09000218a400a49c780090
:101fe0007f08040004780000447d40000020400089
:101ff000403d00007f10280044000000417f400069
:10200000007c0400780478007c0804000478380020
:102010004444440038fc18002424180018242400e8
:1020200018fc7c00080404000848540054542400a0
:1020300004043f0044243c00404020007c1c20005d
:1020400040201c003c403000403c44002810280048
:10205000444c900090907c00446454004c44000038
:102060000836410000000000770000000041360003
:102070000800020001020400020000004008000005
:102080000004000000000000360800000600000008
:10209000000000003c0800000200000002000000f8
:1020a000010000003e0800000200000000000000e7
:0420b000000000002c
:020000040000fa
:1020b4000000fa00889fbe008a9fbe00b0ff2f0078
:1020c40060198800d0382800401688008620a900ae
:1020d400b5000700d7000700fa000700c600070094
:1020e40011010700aa000700fcfd070031fe0700ec
:1020f40000408000cf80de007cf907000002be00b3
:1021040010418000214180000001be000400be0097
:102114005dfb070050408800614088005440800007
:102124006540800030408000414080000001be00d6
:102134000400be0087f90700b0408800c140880051
:10214400744180008541800090418000a14180005d
:102154000001be000400be006cfa07000002be00cd
:1021640030418000414180000001be000400be00f7
:1021740081f907000002be00b0408000c140800029
:102184000001be000400be003ffb07000002be00c9
:1021940090408000a14080000001be000400be0009
:1021a40075f907000004be005441800065418000b9
:1021b40090418000a14180000001be000400be00e7
:1021c40031fb07000002be00304180004141800025
:1021d4000001be000400be005ef907000005be0059
:1021e40070418000814180000001be0062f9070057
:1021f4000002be0090418000a14180000001be00a9
:102204000400be0041fa07000001be000a00be003f
:1022140050f907000002be00d0408000e140800079
:102224000001be000400be0017fb07000001be0051
:102234000800be0050f907000004be00744180008d
:102244008541800090418000a14180000001be00d2
:102254000400be002dfa07000002be00f04080001a
:10226400014180000001be000400be0006fb07001f
:102274000001be000800be003ff90700704088005e
:102284008140880070408000814080009040880038
:10229400a1408800d0408000e1408000f0408800e8
:1022a40001418800b0408000c1408000d0408800d7
:1022b400e1408800704080008140800018c0b30075
:1022c40002002500337c2400e5f807000000e0004c
:1022d40001003c000044eb000804e000040032006c
:1022e40000002500317c2400704088008140880073
:1022f400704080008140800018c0b30002002600b6
:10230400a36e2400d4f807000000e00001003500ab
:102314000044eb000804e000040032000000260042
:10232400a16e240070408800814088002040800015
:102334000000e00003003200e10f50001000320002
:102344006bff3700d8000700704080008140800098
:102354000200260063562400cbfa07000200250081
:10236400337c2400e9f90700bff807000000780077
:102374001040880010408000b00e88000300370031
:10238400c9000700d621ef000000000058ff370005
:102394000000fa008220ef008400a9009400a80045
:1023a4000080fa00000006000000fa002023ef007d
:1023b4002223ef002423ef003023ef002823ef0033
:1023c40021e3a80025e3a8004119800000fe2f00a6
:1023d400008060000010a0004019880041198000ae
:1023e400f00f2e00008060000090a00040198800cb
:1023f4000080fa00000006000000fa0021088000b6
:10240400f0fc2f00008060000040a000200888003d
:1024140004c1a9000421a90000402b001008880071
:1024240005e1a8009460a8008460a9000080fa0077
:10243400000006000000fa00010e800030ff2f00ab
:1024440000806000000e8800010e8000c0ff2f0095
:1024540000806000000e8800110e8000000028003b
:1024640000806000100e8800210e8000000028000b
:10247400808060003073200001007000200e88000e
:10248400c901a800c881a900c801a800610e800084
:10249400f0f32f0000806000600e8800610e800061
:1024a40000fc2f0080806000b00320000100700059
:1024b400600e8800d621ef00c1e1a8000080fa0078
:1024c400000006000000fa00e134800000fe2f0046
:1024d400008060000010a000e0348800e134800037
:1024e400f00f2e008080600000302000010070009a
:1024f400e0348800e021ef00e421ef00010f8000c8
:10250400f08f2f00808060000050200001007000d8
:10251400000f8800e161a8000080eb00300f880004
:102524000080fa00000006000000fa00800020008d
:10253400201088000722a80007e2a8000080fa0003
:10254400000006000000fa000602a80000000000d7
:1025540030108000610060000000e000fcff3a00e1
:102564000080fa00000006000000fa000642a800fd
:102574000000000030108000640060000000e000f3
:10258400fcff3a000080fa00000006000000fa0098
:102594000622a8000080fa00000006000000fa00ed
:1025a4000682a80006a2a9000080fa000000060026
:1025b4000000fa0000000000411080000000240028
:1025c400008060000000e000fbff3a000080fa0099
:1025d400000006000000fa0006a2a9000682a80076
:1025e4000000000030108000700060000000e00077
:1025f400fcff32000080fa00000006000000fa0030
:102604000682a80006a2a8000080fa0000000600c6
:102614000200fa00004f78001e80fb0010108800b2
:102624000000000040108000610060000000e00035
:10263400fcff3a000080fa00000006000000fa00e7
:102644000662a80000108000004078000080fa00b4
:10265400000006000400fa00004f780011479800bb
:1026640022479800b7ff07001e4078000040400052
:10267400e7ff0700ceff0700d6ff07001e409000cb
:10268400e3ff0700caff0700d2ff07002e409000b7
:10269400dfff0700c6ff0700ceff0700b2ff0700f9
:1026a4000080fa00000006000000fa002023a800c1
:1026b4009004200001002000120007002023a9003c
:1026c4000000000000198000610060000000e000cc
:1026d400fcff3200001880004200de000040880049
:1026e40001408000f03f200000806000004088002e
:1026f4000080fa00000006000000fa000080fa00e2
:0427040000000600cb
:020000040000fa
:10270800f03fb1000180b10006003500ee0309007a
:1027180000000000403fb1000180b100fbff3d0018
:102728001000b000203fb000020035000080090012
:08273800000000000000060093
:020000040000fa
:0200000401f009
:04000c008000000070
:020000040000fa
:0200000401f009
:040014005f00000089
:020000040000fa
:0200000401f009
:04001c00ddff000004
:00000001FF
