:020000040000fa
:080000000002040000000000f2
:020000040000fa
:0400080008030000e9
:020000040000fa
:04000c0008030000e5
:020000040000fa
:0400100008030000e1
:020000040000fa
:0400140008030000dd
:020000040000fa
:0400180008030000d9
:020000040000fa
:04001c0008030000d5
:020000040000fa
:0400200008030000d1
:020000040000fa
:0400240008030000cd
:020000040000fa
:04002800c80200000a
:020000040000fa
:04002c0008030000c5
:020000040000fa
:0400300008030000c1
:020000040000fa
:04003400f2020000d4
:020000040000fa
:0400380008030000b9
:020000040000fa
:04003c0008030000b5
:020000040000fa
:0400400008030000b1
:020000040000fa
:0400440008030000ad
:020000040000fa
:0400480008030000a9
:020000040000fa
:04004c0008030000a5
:020000040000fa
:0400500008030000a1
:020000040000fa
:04005400080300009d
:020000040000fa
:040058000803000099
:020000040000fa
:04005c000803000095
:020000040000fa
:040060000803000091
:020000040000fa
:04006400080300008d
:020000040000fa
:040068000803000089
:020000040000fa
:04006c000803000085
:020000040000fa
:040070000803000081
:020000040000fa
:04007400080300007d
:020000040000fa
:040078000803000079
:020000040000fa
:04007c000803000075
:020000040000fa
:040080000803000071
:020000040000fa
:04008400080300006d
:020000040000fa
:040088000803000069
:020000040000fa
:04008c000803000065
:020000040000fa
:040090000803000061
:020000040000fa
:04009400080300005d
:020000040000fa
:040098000803000059
:020000040000fa
:04009c000803000055
:020000040000fa
:0400a0000803000051
:020000040000fa
:0400a400080300004d
:020000040000fa
:0400a8000803000049
:020000040000fa
:0400ac000803000045
:020000040000fa
:0400b0000803000041
:020000040000fa
:0400b400080300003d
:020000040000fa
:0400b8000803000039
:020000040000fa
:0400bc000803000035
:020000040000fa
:0400c0000803000031
:020000040000fa
:0400c400080300002d
:020000040000fa
:0400c8000803000029
:020000040000fa
:0400cc000803000025
:020000040000fa
:0400d0000803000021
:020000040000fa
:0400d400080300001d
:020000040000fa
:0400d8000803000019
:020000040000fa
:0400dc000803000015
:020000040000fa
:0400e0000803000011
:020000040000fa
:0400e400080300000d
:020000040000fa
:0400e8000803000009
:020000040000fa
:0400ec000803000005
:020000040000fa
:0400f0000803000001
:020000040000fa
:0400f40008030000fd
:020000040000fa
:0400f80008030000f9
:020000040000fa
:0400fc0008030000f5
:020000040000fa
:0401000008030000f0
:020000040000fa
:0401040008030000ec
:020000040000fa
:0401080008030000e8
:020000040000fa
:04010c0008030000e4
:020000040000fa
:0401100008030000e0
:020000040000fa
:0401140008030000dc
:020000040000fa
:0401180008030000d8
:020000040000fa
:04011c0008030000d4
:020000040000fa
:0401200008030000d0
:020000040000fa
:0401240008030000cc
:020000040000fa
:0401280008030000c8
:020000040000fa
:04012c0008030000c4
:020000040000fa
:0401300008030000c0
:020000040000fa
:0401340008030000bc
:020000040000fa
:0401380008030000b8
:020000040000fa
:04013c0008030000b4
:020000040000fa
:0401400008030000b0
:020000040000fa
:0401440008030000ac
:020000040000fa
:0401480008030000a8
:020000040000fa
:04014c0008030000a4
:020000040000fa
:0401500008030000a0
:020000040000fa
:04015400080300009c
:020000040000fa
:040158000803000098
:020000040000fa
:04015c000803000094
:020000040000fa
:040160000803000090
:020000040000fa
:04016400080300008c
:020000040000fa
:0402080008030000e7
:020000040000fa
:04020c0008030000e3
:020000040000fa
:0402100008030000df
:020000040000fa
:0402140008030000db
:020000040000fa
:0402180008030000d7
:020000040000fa
:04021c0008030000d3
:020000040000fa
:0402200008030000cf
:020000040000fa
:0402240008030000cb
:020000040000fa
:04022800c802000008
:020000040000fa
:04022c0008030000c3
:020000040000fa
:0402300008030000bf
:020000040000fa
:04023400f2020000d2
:020000040000fa
:0402380008030000b7
:020000040000fa
:04023c0008030000b3
:020000040000fa
:0402400008030000af
:020000040000fa
:0402440008030000ab
:020000040000fa
:0402480008030000a7
:020000040000fa
:04024c0008030000a3
:020000040000fa
:04025000080300009f
:020000040000fa
:04025400080300009b
:020000040000fa
:040258000803000097
:020000040000fa
:04025c000803000093
:020000040000fa
:04026000080300008f
:020000040000fa
:04026400080300008b
:020000040000fa
:040268000803000087
:020000040000fa
:04026c000803000083
:020000040000fa
:04027000080300007f
:020000040000fa
:04027400080300007b
:020000040000fa
:040278000803000077
:020000040000fa
:04027c000803000073
:020000040000fa
:04028000080300006f
:020000040000fa
:04028400080300006b
:020000040000fa
:040288000803000067
:020000040000fa
:04028c000803000063
:020000040000fa
:04029000080300005f
:020000040000fa
:04029400080300005b
:020000040000fa
:040298000803000057
:020000040000fa
:04029c000803000053
:020000040000fa
:0402a000080300004f
:020000040000fa
:0402a400080300004b
:020000040000fa
:0402a8000803000047
:020000040000fa
:0402ac000803000043
:020000040000fa
:0402b000080300003f
:020000040000fa
:0402b400080300003b
:020000040000fa
:0402b8000803000037
:020000040000fa
:0402bc000803000033
:020000040000fa
:0402c000080300002f
:020000040000fa
:0402c400080300002b
:020000040000fa
:0402c8000803000027
:020000040000fa
:0402cc000803000023
:020000040000fa
:0402d000080300001f
:020000040000fa
:0402d400080300001b
:020000040000fa
:0402d8000803000017
:020000040000fa
:0402dc000803000013
:020000040000fa
:0402e000080300000f
:020000040000fa
:0402e400080300000b
:020000040000fa
:0402e8000803000007
:020000040000fa
:0402ec000803000003
:020000040000fa
:0402f00008030000ff
:020000040000fa
:0402f40008030000fb
:020000040000fa
:0402f80008030000f7
:020000040000fa
:0402fc0008030000f3
:020000040000fa
:0403000008030000ee
:020000040000fa
:0403040008030000ea
:020000040000fa
:0403080008030000e6
:020000040000fa
:04030c0008030000e2
:020000040000fa
:0403100008030000de
:020000040000fa
:0403140008030000da
:020000040000fa
:0403180008030000d6
:020000040000fa
:04031c0008030000d2
:020000040000fa
:0403200008030000ce
:020000040000fa
:0403240008030000ca
:020000040000fa
:0403280008030000c6
:020000040000fa
:04032c0008030000c2
:020000040000fa
:0403300008030000be
:020000040000fa
:0403340008030000ba
:020000040000fa
:0403380008030000b6
:020000040000fa
:04033c0008030000b2
:020000040000fa
:0403400008030000ae
:020000040000fa
:0403440008030000aa
:020000040000fa
:0403480008030000a6
:020000040000fa
:04034c0008030000a2
:020000040000fa
:04035000080300009e
:020000040000fa
:04035400080300009a
:020000040000fa
:040358000803000096
:020000040000fa
:04035c000803000092
:020000040000fa
:04036000080300008e
:020000040000fa
:04036400080300008a
:020000040000fa
:10040000cf8020000e7f24000e0188000000000035
:10041000000020000000e000020032000001200087
:1004200020028800140007007b0007000000e000a5
:1004300003003a0060812000010020000200370024
:100440000000200001002000810f70000100320038
:1004500014000700000020000000e000020032004d
:1004600000000200000000001a0702000000000067
:100470000040da000000fe004440a9000000200017
:100480000000e0000300320000002000a00188000e
:100490004440a800000006008a1f78008b1f7800e7
:1004a0000000060091018800800478000000eb0045
:1004b0001a003700e284440032a0b4009905ba0063
:1004c000e284440032a0b4009906ba00e2844400f9
:1004d00032a0b4000006eb00476fde00fd07b2005b
:1004e000636ce10003003a00ebff07000000eb0043
:1004f0000a003700606ce10004003a00005deb0088
:100500008b05e900fdff3e00040037006168e10053
:10051000010032000086eb000b00070019c7ba008b
:100520001905ba000e04e00003003a000a00e000da
:10053000e0ff3a0000000600fe07b2009e018800be
:100540008a047800f5ff3700395dba008b05e900b1
:100550000c003200295dba008b05e900080032006a
:100560000c00e00003003a00e284440032a0b40032
:10057000f5ff370019ddba008b05e900faff3a00f4
:100580008904e800e184440032a0b40000000600c1
:10059000801f78003400f80000002000a0018800cf
:1005a0000000fa008400a900304080000000e00054
:1005b00003003200e10f5000040032000500370054
:1005c0001000200030408800020037000628ef00ad
:1005d000000000000080fa003400f9004f007800ad
:1005e000004006003400f800881f78000800200052
:1005f000a80188004f0478000000fa00e421ef0011
:100600008460a9000080fa003400f9000040060070
:100610000040da000000fe00000005000001be00fe
:10062000220007000470a70003f0a1006509b100d3
:10063000160032000d0035006828e1000600350084
:10064000f0ff2f00f1ff27000300e00013003b0044
:1006500001002800000005000000400081804800e3
:100660008502e900fcff3a0008003700f88f4200dd
:1006700002003c008000eb00000005008100d1007a
:100680000080d3008502e800fcff3a000300e00090
:1006900002003b0060001000e0801800000006002f
:1006a0004f89de008201780017013700c70ade009b
:1006b000f107b200f50fb20008003200e1cf4200ae
:1006c000020032000170a00024000500810f7000bc
:1006d000010032000408050044000500810f70008d
:1006e00002003a00140005008502e9000000400005
:1006f00081c04800fcff3b000170a0002400050001
:10070000038368000700280007036300470ade0030
:100710000480a100c71ade000580a100f70f2000a9
:100720000720e100420032000728e10040003200cb
:10073000889fbe008a9fbe008c1f7800f107b20020
:10074000f307b2000400e000640032000170a00072
:100750000500e000680032000370a000850542003b
:10076000eb07b1000204b8000302b800848444001f
:1007700060854a00020ab800848444000a854a0061
:10078000030ab80004054500040033000804d00043
:100790008984d2000a85d2008b05e9006158e10006
:1007a0003d0035000210200009016100030820000f
:1007b00089816100f7072000878364000886730041
:1007c000c84cde00c853dd00878474004855de0045
:1007d0000300e000060032008203760004003200cd
:1007e0008904e80060054d000a88a3000c003a0067
:1007f000f70f20000758e10044003d000a70a100f7
:10080000c75ddd000a8575008a0073000900780065
:100810004f0678004f05be004f04be0000000600e2
:100820000a05d1008984d3008b05e800f0ff37006a
:10083000881f7800060478009000070007027800ff
:100840000001fd008101fd008c0007008702780097
:10085000850372000778a300050032000001fd0047
:100860008101fd009f0007004f0478000000060092
:10087000850372000748a30003003200f0ff2f0039
:10088000f1ff2700f8ff37000000200001f82700e3
:1008900088807000f4ff3700880178004848dd0048
:1008a000808171004848de00c850dd000100700002
:1008b000c850de00060478000b017800160007001f
:1008c00088807000d2ff37000500e000050032008c
:1008d000170020003a0007009dff370081037000d9
:1008e000f9ff3a00860078004f0678004f05be00f9
:1008f0004f04be000000050083037100f9ff3200c1
:10090000270020002e00070094ff370001f8270081
:1009100086807000f4ff37000100e00026003200fe
:10092000610111007810e10023003c006022b80052
:100930007010e100040035008002780001007800aa
:100940008000eb00700151000200e000090034005b
:1009500070031100062add00822ade008603dd0016
:10096000878272000200de00860bdd000700700047
:100970008208de0084817100f4ff27000482620097
:10098000848171000400280084826200610260009a
:1009900005f0a60000000600048271000700320086
:1009a0000000e800e0804800000006000002be00f1
:1009b0006000b800efff37006000b80000000600dc
:1009c000889fbe000004eb006138e10016003a0089
:1009d0000100e00008003a00c800de004800dd0029
:1009e000880020000100e00003003a00c800de009b
:1009f0004800dd00680444008184cf00e98454008d
:100a0000060034008908dd00f08314008703de004f
:100a1000878070000900dd000904440061021400b1
:100a20004f04be00000006000300e00008003a008a
:100a3000c811de004811dd00880020000300e0003e
:100a400003003a00c811de004811dd0068044400cc
:100a50008384cf00e9845400060034008919dd0046
:100a6000f08314008713de00878171000911dd0017
:100a700009044400e1021400e9ff370027002000c8
:100a800001f0a70017002000470bde00f60fb200b0
:100a9000040032000643e8000a0032004702b300b7
:100aa0000000060001037800f607b200060370009c
:100ab00002003a000703b300000006008702b300fb
:100ac0000000060001037800f607b200060370007c
:100ad000020032000770a000000006000760a000be
:100ae000000006000478a300040032000578a3008b
:100af000030032000168a30001003a000200be00ba
:100b00000160a00000000600881f78000304780040
:100b10000300e00007003d0060001000e0801800c6
:100b200060011900e081190002003b0001f02d0076
:100b3000030037000400070008f0a70001f0a00040
:100b40004f04780000000600889fbe008a9fbe0008
:100b500000827000040271000482710026003200dd
:100b60000004be000200be006011b8006b09200046
:100b7000950220000182cf000a0039000541b10032
:100b80000082cf00070039000541b1000982cf0083
:100b9000040039000541b1000882cf00010039008e
:100ba0000541b10005425200120032000a003b002c
:100bb00082817100610164008100d1000080d30056
:100bc0008984d3000884d3008b05e8000442e80040
:100bd000f7ff3a00070037000804440089844c00fe
:100be00000004800818048008b05e9000442e900cc
:100bf000f9ff3a00030007004f05be004f04be0096
:100c00000000060081002000618055000b003d00bf
:100c10000b00200061fe2f000100e1001d003400e8
:100c200082817100610164008904d1000884d300cd
:100c30000000e800faff3a00710020006100640043
:100c400003007000020060000900320061044400eb
:100c5000e0844c000988a500050032008b05e800ff
:100c60006808e10002003a008904d1000884d3003a
:100c7000f20f20000258e10005003d00c75ddd00d5
:100c8000f907b200898075000800780000000600ae
:0c0c90000bf827008b0078000000050026
:020000040000fa
:100c9c000000fa008220ef008400a9009400a80054
:100cac000080fa00000006000000fa002023ef008c
:100cbc002223ef002423ef003023ef002823ef0042
:100ccc0021e3a80025e3a8004119800000fe2f00b5
:100cdc00008060000010a0004019880041198000bd
:100cec00f00f2e00008060000090a00040198800da
:100cfc000080fa00000006000000fa0021088000c5
:100d0c00f0fc2f00008060000050a000200888003c
:100d1c0004c1a9000421a90000102e0010088800ad
:100d2c0005e1a8009460a8008460a9000080fa0086
:100d3c00000006000000fa00010e800030ff2f00ba
:100d4c0000806000000e8800010e8000c0ff2f00a4
:100d5c0000806000000e8800110e8000000028004a
:100d6c0000806000100e8800210e8000000028001a
:100d7c00808060003073200001007000200e88001d
:100d8c00c901a800c881a900c801a800610e800093
:100d9c00f0f32f0000806000600e8800610e800070
:100dac0000fc2f0080806000b00320000100700068
:100dbc00600e8800d621ef00c1e1a8000080fa0087
:100dcc00000006000000fa00e134800000fe2f0055
:100ddc00008060000010a000e0348800e134800046
:100dec00f00f2e00808060000030200001007000a9
:100dfc00e0348800e021ef00e421ef00010f8000d7
:100e0c00f08f2f00808060000050200001007000e7
:100e1c00000f8800e161a8000080eb00300f880013
:100e2c000080fa00000006000000fa00b0ff2f005e
:100e3c0060198800d0382800401688009aff0700f7
:100e4c00bcff0700dfff0700abff070090ff0700a8
:100e5c00304080000000e00003003200e10f500041
:100e6c0011003200faff37004500070000408000f7
:100e7c00cf80de0007fe07000002be00404080006d
:100e8c00514080000001be000400be0019fe0700a6
:100e9c00dffd070000007800104088001040800043
:100eac00b00e88000f0037003500070000408000ae
:100ebc00cf80de00f7fd07000002be00404080003e
:100ecc00514080000001be000400be0009fe070076
:100edc00cffd07000000780010408800d621ef00fd
:100eec0000000000daff37000000fa000422ef00d7
:100efc0007e2a8000080fa00000006000000fa00db
:100f0c000602a8000080fa00000006000000fa00ab
:100f1c000642a8000080fa00000006000000fa005b
:100f2c000080fa00000006000000fa000682a8000b
:100f3c0006a2a9000080fa00000006000000fa00da
:100f4c000682a80006a2a8000080fa000000060095
:100f5c000200fa00004f78001e00fb001010880001
:100f6c000080fa00000006000000fa000662a800eb
:100f7c0000108000004078000080fa00000006009d
:100f8c000000fa002023a80090042000010020009b
:100f9c00150007002023a9000000000000198000a4
:100fac00610060000000e000fcff320000188000cf
:100fbc004200de000040880001408000f03f20002d
:100fcc0000806000004088000080fa0000000600ed
:100fdc000000fa000080fa00000006000000fa0091
:080fec000080fa00000006007d
:020000040000fa
:100ff400f03fb1000180b10006003500ee030900a6
:1010040000000000403fb1000180b100fbff3d0043
:101014001000b000203fb00002003500008009003d
:081024000000000000000600be
:020000040000fa
:10102c000008000008000000000000000808000094
:10103c000400000002000000474767004100000068
:04104c0000000000a0
:020000040000fa
:0200000401f009
:04000c008000000070
:020000040000fa
:0200000401f009
:040014005f00000089
:020000040000fa
:0200000401f009
:04001c00ddff000004
:00000001FF
