:020000040000fa
:080000000002040000000000f2
:020000040000fa
:0400080008030000e9
:020000040000fa
:04000c0008030000e5
:020000040000fa
:0400100008030000e1
:020000040000fa
:0400140008030000dd
:020000040000fa
:0400180008030000d9
:020000040000fa
:04001c0008030000d5
:020000040000fa
:0400200008030000d1
:020000040000fa
:0400240008030000cd
:020000040000fa
:04002800c80200000a
:020000040000fa
:04002c0008030000c5
:020000040000fa
:0400300008030000c1
:020000040000fa
:04003400f2020000d4
:020000040000fa
:0400380008030000b9
:020000040000fa
:04003c0008030000b5
:020000040000fa
:0400400008030000b1
:020000040000fa
:0400440008030000ad
:020000040000fa
:0400480008030000a9
:020000040000fa
:04004c0008030000a5
:020000040000fa
:0400500008030000a1
:020000040000fa
:04005400080300009d
:020000040000fa
:040058000803000099
:020000040000fa
:04005c000803000095
:020000040000fa
:040060000803000091
:020000040000fa
:04006400080300008d
:020000040000fa
:040068000803000089
:020000040000fa
:04006c000803000085
:020000040000fa
:040070000803000081
:020000040000fa
:04007400080300007d
:020000040000fa
:040078000803000079
:020000040000fa
:04007c000803000075
:020000040000fa
:040080000803000071
:020000040000fa
:04008400080300006d
:020000040000fa
:040088000803000069
:020000040000fa
:04008c000803000065
:020000040000fa
:040090000803000061
:020000040000fa
:04009400080300005d
:020000040000fa
:040098000803000059
:020000040000fa
:04009c000803000055
:020000040000fa
:0400a0000803000051
:020000040000fa
:0400a400080300004d
:020000040000fa
:0400a8000803000049
:020000040000fa
:0400ac000803000045
:020000040000fa
:0400b0000803000041
:020000040000fa
:0400b400080300003d
:020000040000fa
:0400b8000803000039
:020000040000fa
:0400bc000803000035
:020000040000fa
:0400c0000803000031
:020000040000fa
:0400c400080300002d
:020000040000fa
:0400c8000803000029
:020000040000fa
:0400cc000803000025
:020000040000fa
:0400d0000803000021
:020000040000fa
:0400d400080300001d
:020000040000fa
:0400d8000803000019
:020000040000fa
:0400dc000803000015
:020000040000fa
:0400e0000803000011
:020000040000fa
:0400e400080300000d
:020000040000fa
:0400e8000803000009
:020000040000fa
:0400ec000803000005
:020000040000fa
:0400f0000803000001
:020000040000fa
:0400f40008030000fd
:020000040000fa
:0400f80008030000f9
:020000040000fa
:0400fc0008030000f5
:020000040000fa
:0401000008030000f0
:020000040000fa
:0401040008030000ec
:020000040000fa
:0401080008030000e8
:020000040000fa
:04010c0008030000e4
:020000040000fa
:0401100008030000e0
:020000040000fa
:0401140008030000dc
:020000040000fa
:0401180008030000d8
:020000040000fa
:04011c0008030000d4
:020000040000fa
:0401200008030000d0
:020000040000fa
:0401240008030000cc
:020000040000fa
:0401280008030000c8
:020000040000fa
:04012c0008030000c4
:020000040000fa
:0401300008030000c0
:020000040000fa
:0401340008030000bc
:020000040000fa
:0401380008030000b8
:020000040000fa
:04013c0008030000b4
:020000040000fa
:0401400008030000b0
:020000040000fa
:0401440008030000ac
:020000040000fa
:0401480008030000a8
:020000040000fa
:04014c0008030000a4
:020000040000fa
:0401500008030000a0
:020000040000fa
:04015400080300009c
:020000040000fa
:040158000803000098
:020000040000fa
:04015c000803000094
:020000040000fa
:040160000803000090
:020000040000fa
:04016400080300008c
:020000040000fa
:0402080008030000e7
:020000040000fa
:04020c0008030000e3
:020000040000fa
:0402100008030000df
:020000040000fa
:0402140008030000db
:020000040000fa
:0402180008030000d7
:020000040000fa
:04021c0008030000d3
:020000040000fa
:0402200008030000cf
:020000040000fa
:0402240008030000cb
:020000040000fa
:04022800c802000008
:020000040000fa
:04022c0008030000c3
:020000040000fa
:0402300008030000bf
:020000040000fa
:04023400f2020000d2
:020000040000fa
:0402380008030000b7
:020000040000fa
:04023c0008030000b3
:020000040000fa
:0402400008030000af
:020000040000fa
:0402440008030000ab
:020000040000fa
:0402480008030000a7
:020000040000fa
:04024c0008030000a3
:020000040000fa
:04025000080300009f
:020000040000fa
:04025400080300009b
:020000040000fa
:040258000803000097
:020000040000fa
:04025c000803000093
:020000040000fa
:04026000080300008f
:020000040000fa
:04026400080300008b
:020000040000fa
:040268000803000087
:020000040000fa
:04026c000803000083
:020000040000fa
:04027000080300007f
:020000040000fa
:04027400080300007b
:020000040000fa
:040278000803000077
:020000040000fa
:04027c000803000073
:020000040000fa
:04028000080300006f
:020000040000fa
:04028400080300006b
:020000040000fa
:040288000803000067
:020000040000fa
:04028c000803000063
:020000040000fa
:04029000080300005f
:020000040000fa
:04029400080300005b
:020000040000fa
:040298000803000057
:020000040000fa
:04029c000803000053
:020000040000fa
:0402a000080300004f
:020000040000fa
:0402a400080300004b
:020000040000fa
:0402a8000803000047
:020000040000fa
:0402ac000803000043
:020000040000fa
:0402b000080300003f
:020000040000fa
:0402b400080300003b
:020000040000fa
:0402b8000803000037
:020000040000fa
:0402bc000803000033
:020000040000fa
:0402c000080300002f
:020000040000fa
:0402c400080300002b
:020000040000fa
:0402c8000803000027
:020000040000fa
:0402cc000803000023
:020000040000fa
:0402d000080300001f
:020000040000fa
:0402d400080300001b
:020000040000fa
:0402d8000803000017
:020000040000fa
:0402dc000803000013
:020000040000fa
:0402e000080300000f
:020000040000fa
:0402e400080300000b
:020000040000fa
:0402e8000803000007
:020000040000fa
:0402ec000803000003
:020000040000fa
:0402f00008030000ff
:020000040000fa
:0402f40008030000fb
:020000040000fa
:0402f80008030000f7
:020000040000fa
:0402fc0008030000f3
:020000040000fa
:0403000008030000ee
:020000040000fa
:0403040008030000ea
:020000040000fa
:0403080008030000e6
:020000040000fa
:04030c0008030000e2
:020000040000fa
:0403100008030000de
:020000040000fa
:0403140008030000da
:020000040000fa
:0403180008030000d6
:020000040000fa
:04031c0008030000d2
:020000040000fa
:0403200008030000ce
:020000040000fa
:0403240008030000ca
:020000040000fa
:0403280008030000c6
:020000040000fa
:04032c0008030000c2
:020000040000fa
:0403300008030000be
:020000040000fa
:0403340008030000ba
:020000040000fa
:0403380008030000b6
:020000040000fa
:04033c0008030000b2
:020000040000fa
:0403400008030000ae
:020000040000fa
:0403440008030000aa
:020000040000fa
:0403480008030000a6
:020000040000fa
:04034c0008030000a2
:020000040000fa
:04035000080300009e
:020000040000fa
:04035400080300009a
:020000040000fa
:040358000803000096
:020000040000fa
:04035c000803000092
:020000040000fa
:04036000080300008e
:020000040000fa
:04036400080300008a
:020000040000fa
:100400006fc120000e7f24000e0188000000000054
:10041000000020000000e000020032000001200087
:1004200020028800140007007b0007000000e000a5
:1004300003003a00201a21000100200002003700ca
:100440000000200001002000810f70000100320038
:1004500014000700000020000000e000020032004d
:100460000000020000000000fa100200000000007e
:100470000040da000000fe004440a900001f2000f8
:100480000000e0000300320000002000a00188000e
:100490004440a800000006008a1f78008b1f7800e7
:1004a0000000060091018800800478000000eb0045
:1004b0001a003700e284440032a0b4009905ba0063
:1004c000e284440032a0b4009906ba00e2844400f9
:1004d00032a0b4000006eb00476fde00fd07b2005b
:1004e000636ce10003003a00ebff07000000eb0043
:1004f0000a003700606ce10004003a00005deb0088
:100500008b05e900fdff3e00040037006168e10053
:10051000010032000086eb000b00070019c7ba008b
:100520001905ba000e04e00003003a000a00e000da
:10053000e0ff3a0000000600fe07b2009e018800be
:100540008a047800f5ff3700395dba008b05e900b1
:100550000c003200295dba008b05e900080032006a
:100560000c00e00003003a00e284440032a0b40032
:10057000f5ff370019ddba008b05e900faff3a00f4
:100580008904e800e184440032a0b40000000600c1
:10059000801f78003400f80000002000a0018800cf
:1005a0000000fa008400a900304080000000e00054
:1005b00003003200e10f5000040032000500370054
:1005c0001000200030408800020037000628ef00ad
:1005d000000000000080fa003400f9004f007800ad
:1005e000004006003400f800881f78000800200052
:1005f000a80188004f0478000000fa00e421ef0011
:100600008460a9000080fa003400f9000040060070
:100610000040da000000fe00000005000001be00fe
:10062000220007000470a70003f0a1006509b100d3
:10063000160032000d0035006828e1000600350084
:10064000f0ff2f00f1ff27000300e00013003b0044
:1006500001002800000005000000400081804800e3
:100660008502e900fcff3a0008003700f88f4200dd
:1006700002003c008000eb00000005008100d1007a
:100680000080d3008502e800fcff3a000300e00090
:1006900002003b0060001000e0801800000006002f
:1006a0004f89de008201780017013700c70ade009b
:1006b000f107b200f50fb20008003200e1cf4200ae
:1006c000020032000170a00024000500810f7000bc
:1006d000010032000408050044000500810f70008d
:1006e00002003a00140005008502e9000000400005
:1006f00081c04800fcff3b000170a0002400050001
:10070000038368000700280007036300470ade0030
:100710000480a100c71ade000580a100f70f2000a9
:100720000720e100420032000728e10040003200cb
:10073000889fbe008a9fbe008c1f7800f107b20020
:10074000f307b2000400e000640032000170a00072
:100750000500e000680032000370a000850542003b
:10076000eb07b1000204b8000302b800848444001f
:1007700060854a00020ab800848444000a854a0061
:10078000030ab80004054500040033000804d00043
:100790008984d2000a85d2008b05e9006158e10006
:1007a0003d0035000210200009016100030820000f
:1007b00089816100f7072000878364000886730041
:1007c000c84cde00c853dd00878474004855de0045
:1007d0000300e000060032008203760004003200cd
:1007e0008904e80060054d000a88a3000c003a0067
:1007f000f70f20000758e10044003d000a70a100f7
:10080000c75ddd000a8575008a0073000900780065
:100810004f0678004f05be004f04be0000000600e2
:100820000a05d1008984d3008b05e800f0ff37006a
:10083000881f7800060478009000070007027800ff
:100840000001fd008101fd008c0007008702780097
:10085000850372000778a300050032000001fd0047
:100860008101fd009f0007004f0478000000060092
:10087000850372000748a30003003200f0ff2f0039
:10088000f1ff2700f8ff37000000200001f82700e3
:1008900088807000f4ff3700880178004848dd0048
:1008a000808171004848de00c850dd000100700002
:1008b000c850de00060478000b017800160007001f
:1008c00088807000d2ff37000500e000050032008c
:1008d000170020003a0007009dff370081037000d9
:1008e000f9ff3a00860078004f0678004f05be00f9
:1008f0004f04be000000050083037100f9ff3200c1
:10090000270020002e00070094ff370001f8270081
:1009100086807000f4ff37000100e00026003200fe
:10092000610111007810e10023003c006022b80052
:100930007010e100040035008002780001007800aa
:100940008000eb00700151000200e000090034005b
:1009500070031100062add00822ade008603dd0016
:10096000878272000200de00860bdd000700700047
:100970008208de0084817100f4ff27000482620097
:10098000848171000400280084826200610260009a
:1009900005f0a60000000600048271000700320086
:1009a0000000e800e0804800000006000002be00f1
:1009b0006000b800efff37006000b80000000600dc
:1009c000889fbe000004eb006138e10016003a0089
:1009d0000100e00008003a00c800de004800dd0029
:1009e000880020000100e00003003a00c800de009b
:1009f0004800dd00680444008184cf00e98454008d
:100a0000060034008908dd00f08314008703de004f
:100a1000878070000900dd000904440061021400b1
:100a20004f04be00000006000300e00008003a008a
:100a3000c811de004811dd00880020000300e0003e
:100a400003003a00c811de004811dd0068044400cc
:100a50008384cf00e9845400060034008919dd0046
:100a6000f08314008713de00878171000911dd0017
:100a700009044400e1021400e9ff370027002000c8
:100a800001f0a70017002000470bde00f60fb200b0
:100a9000040032000643e8000a0032004702b300b7
:100aa0000000060001037800f607b200060370009c
:100ab00002003a000703b300000006008702b300fb
:100ac0000000060001037800f607b200060370007c
:100ad000020032000770a000000006000760a000be
:100ae000000006000478a300040032000578a3008b
:100af000030032000168a30001003a000200be00ba
:100b00000160a00000000600881f78000304780040
:100b10000300e00007003d0060001000e0801800c6
:100b200060011900e081190002003b0001f02d0076
:100b3000030037000400070008f0a70001f0a00040
:100b40004f04780000000600889fbe008a9fbe0008
:100b500000827000040271000482710026003200dd
:100b60000004be000200be006011b8006b09200046
:100b7000950220000182cf000a0039000541b10032
:100b80000082cf00070039000541b1000982cf0083
:100b9000040039000541b1000882cf00010039008e
:100ba0000541b10005425200120032000a003b002c
:100bb00082817100610164008100d1000080d30056
:100bc0008984d3000884d3008b05e8000442e80040
:100bd000f7ff3a00070037000804440089844c00fe
:100be00000004800818048008b05e9000442e900cc
:100bf000f9ff3a00030007004f05be004f04be0096
:100c00000000060081002000618055000b003d00bf
:100c10000b00200061fe2f000100e1001d003400e8
:100c200082817100610164008904d1000884d300cd
:100c30000000e800faff3a00710020006100640043
:100c400003007000020060000900320061044400eb
:100c5000e0844c000988a500050032008b05e800ff
:100c60006808e10002003a008904d1000884d3003a
:100c7000f20f20000258e10005003d00c75ddd00d5
:100c8000f907b200898075000800780000000600ae
:100c90000bf827008b007800000005008001780029
:100ca00002003700b15978000201e9000200e000bb
:100cb000fcff3a0000000600889fbe008a9fbe002d
:100cc000800478000200e0005b0032000140780000
:100cd000814c780082814400f1f99f00e20f5100bd
:100ce0005500360091449800a1449800e1f99f0016
:100cf000d1f99f00e60f51004f003600b144980033
:100d0000c1f99f00e80f51004b0036000905ea00c9
:100d1000630565000a8444000a055100c1ff2f00e5
:100d2000010565000080fb008000eb001210200030
:100d30001310200044000700008cbe000a0144008c
:100d400060b99f0071b99f00e80f55003a00360066
:100d50002004980031049800400498005104980041
:100d600020b99f0031b99f0040b99f0051b99f0041
:100d7000f80f5500300036006004980071049800a8
:100d8000000c9800110c9800200c9800310c980071
:100d9000400c9800510c980020b19f0031b19f0089
:100da00040b19f0051b19f0060b19f0071b19f00a1
:100db00000b99f0011b99f006401640078014100ef
:100dc00002044400020555006011b8000203be0091
:100dd0000002be000403be006022b80000007200e2
:100de000818072000201730083817300100037005c
:100df000009cbe000294be0040049800510498007c
:100e00006204980073049800000c9800110c98007c
:100e1000220c9800330c9800400c9800510c98005c
:100e2000620c9800730c98000a02b1000802b0002e
:100e3000ff0f5500eeff3e00090078004f05be0091
:100e40004f04be0000000600020ab900001bb900f2
:100e50000200b8008100420081004300000006004b
:020000040000fa
:100e6000000000000000000000000000005f000023
:100e70000000000000070000000700000014000050
:100e80007f1400007f140000242a00007f2a000045
:100e900012230000130800006462000036490000bd
:100ea000562000005000000008070000030000006a
:100eb000001c000022410000000000004122000050
:100ec0001c0000002a1c00007f1c00002a080000f3
:100ed000083e00000808000000800000703000009c
:100ee00000080000080800000808000000000000da
:100ef00060600000002000001008000004020000f4
:100f00003e510000494500003e000000427f0000c5
:100f100040000000724900004949000046210000dd
:100f2000414900004d33000018140000127f0000fa
:100f30001027000045450000453900003c4a0000ec
:100f4000494900003141000021110000090700005b
:100f50003649000049490000364600004949000072
:100f6000291e000000000000140000000000000026
:100f700040340000000000000008000014220000bf
:100f8000411400001414000014140000004100007b
:100f900022140000080200000159000009060000a8
:100fa0003e4100005d5900004e7c0000121100001f
:100fb000127c00007f49000049490000363e0000d5
:100fc00041410000412200007f41000041410000fa
:100fd0003e7f000049490000494100007f090000b0
:100fe00009090000013e000041410000517300006a
:100ff0007f080000080800007f000000417f00001b
:101000004100000020400000413f0000017f00003f
:1010100008140000224100007f4000004040000012
:10102000407f0000021c0000027f00007f040000df
:10103000081000007f3e000041410000413e0000da
:101040007f09000009090000063e00004151000030
:10105000215e00007f0900001929000046260000db
:101060004949000049320000030100007f010000ef
:10107000033f000040400000403f00001f200000f0
:10108000402000001f3f000040380000403f0000ab
:1010900063140000081400006303000004780000db
:1010a0000403000061590000494d000043000000a6
:1010b0007f410000414100000204000008100000d0
:1010c0002000000041410000417f000004020000b8
:1010d00001020000044000004040000040400000c9
:1010e0000003000007080000002000005454000026
:1010f000784000007f280000444400003838000099
:101100004444000044280000384400004428000003
:101110007f380000545400005418000000080000fc
:101120007e09000002180000a4a400009c780000c2
:101130007f0800000404000078000000447d0000e7
:101140004000000020400000403d0000007f000003
:101150001028000044000000004100007f40000013
:10116000007c000004780000047800007c08000087
:1011700004040000783800004444000044380000b3
:10118000fc1800002424000018180000242400008b
:1011900018fc00007c08000004040000084800005f
:1011a0005454000054240000040400003f44000094
:1011b000243c000040400000207c00001c20000077
:1011c000402000001c3c000040300000403c00007b
:1011d0004428000010280000444c000090900000bb
:1011e000907c000044640000544c00004400000067
:1011f00008360000410000000000000077000000f9
:10120000000000004136000008000000020100005c
:101210000204000002b00000b1b20000b3b400004c
:10122000b5b60000b7000000484f00004c41000078
:10123000204d0000554e0000444f0000000000000b
:020000040000fa
:101240000400fa00204798000040eb00004f7800af
:101250002e4190009e407800a0c7b300cf03070046
:101260000080fa00000006000000fa0013c8bf006a
:1012700009e8b70014c8bf0008e8b7000000220062
:101280001100200043040700e0cab300ecff070090
:1012900050cdb300eaff070000c8b300e8ff070025
:1012a00080cab300e6ff0700f0c3b300e4ff070005
:1012b00030cdb300e2ff07000040eb00e0ff070085
:1012c00000c4b300deff0700d0c8b300dcff070096
:1012d00013c8bf00e14f500003003a0000c1b30043
:1012e000d7ff07000200370040c1b300d4ff07005a
:1012f00000c2b300d2ff07000040eb00d0ff0700a0
:1013000010cab300ceff070080ccb300ccff0700ab
:10131000a0cdb300caff070020c1b300c8ff07007b
:1013200010c8b300c6ff070013c8bf00e14f50004c
:1013300003003a00f0c9b300c1ff07000200370004
:10134000f0ccb300beff070090cdb300bcff070098
:1013500013c8bf00e14f500003003a0020c2b300a1
:10136000b7ff07000200370010cfb300b4ff07003b
:10137000b0cdb300b2ff070000c4b300b0ff070058
:1013800040cab300aeff070060cab300acff07005d
:10139000e0c2b300aaff0700f0cab300a8ff07002d
:1013a0000a68ef000b68ef0010c0b3000ce8b7004c
:1013b0005100070010c0b300a00207000080fa002f
:1013c000000006000400fa0020479800314798000a
:1013d00010c0b300004f78002e4090000004e000e1
:1013e00040003500be409000f0c3b30080cf5000f5
:1013f0003e003e001e4078000004e0001c00320069
:101400002e4090000081fb003e4090000080fb00d9
:101410004300de00004078008080fb00c708dd004c
:10142000810041002e4190000281fb000080fb0002
:101430004700dd000000410062812000624078002a
:10144000004178003e4090000080fb006700600093
:10145000130020000018dd000040780000407100fb
:10146000004178006081200002f078002000370001
:101470002e4090000081fb003e4090000080fb0069
:101480004300de00004078008080fb00c708dd00dc
:10149000810041002e4190000281fb000080fb0092
:1014a0004700dd00000041006281200062407800ba
:1014b000004178003e4090000080fb006700600023
:1014c000130020000018dd000040780000c0ea0092
:1014d00000406100004178006081200002f0780047
:1014e000030037000000000001003700000000008a
:1014f0000080fa00000006000400fa000000eb0083
:10150000000f78000040eb002047980035003700be
:10151000df020700a0c7b3000f030700f7020700b0
:10152000ff0207000040eb000b030700f302070077
:10153000fb020700ae40900000cbb30000c04000ab
:1015400005030700ed020700f50207000040eb006d
:1015500001030700e9020700f102070000c1b30020
:10156000fd020700e5020700ed020700d1020700b7
:10157000c7020700a0c7b300f7020700df02070099
:10158000e702070000c4b300f3020700db02070014
:10159000e30207000040eb00304798000a003700e4
:1015a000608120001e004000104078001e0fe800ff
:1015b000e9020700d1020700d90207003e4090006f
:1015c0000040e800304798003e4090000004e000f2
:1015d000f3ff3d00b70207002e4090000040e800f6
:1015e000204798002e409000e74f5000c8ff36007b
:1015f0000080fa00000006000a00fa00e20047003e
:10160000b290280007000900b2587800024020007c
:101610008000eb0060812000a7fd070010c0b30030
:10162000004f78002200370010c0b30004ff07000d
:1016300000c1b30002ff07001e80fb000000e900ac
:101640000000470020409000fdfe070090020700c8
:10165000a0c7b300c0020700a8020700b00207003d
:1016600000c4b300bc020700a4020700ac020700dc
:101670000040eb0010479800070037000040eb00e7
:10168000b50207009d020700a50207001e4090005a
:101690000040e800104798009e40900000c8b3004a
:1016a00080cf5000f5ff3600820207001e4fe80091
:1016b0001e407800e84f5000dbff36000080fa0043
:1016c000000006000600fa00204798003147980005
:1016d0002207980010c0b300004f7800be40900071
:1016e0002e409000bf0107001e407800b1010700a6
:1016f000060037002e00900010407800ae009000e9
:101700008100e80021079800060007002e009000e5
:10171000104078000004e000f6ff3a000080fa0074
:10172000000006000600fa0040479800ce409000f6
:1017300000c2b30080cf500006003a000ac8bf00c4
:101740000004e00003003a0012c8bf000004e000fb
:10175000dc003a004e409000e74f500004003a0091
:101760000b68ef000bc8bf000ae8b700d8003700cd
:101770004e409000e84f500012003a000ac8bf00e7
:101780000081fb000cc8bf000080fb006600b900b0
:1017900000007800800f51000a003500c180200051
:1017a00091407800a00f20000088b9000000780068
:1017b000804078000ac8bf0000c040000ae8b700b7
:1017c000c30037004e409000ed4f500002003a0039
:1017d0000a68ef00be0037004e409000ea4f50000c
:1017e00011003a000cc8bf00c300dd000bc8bf00e9
:1017f00000c040000be8b7000bc8bf000081fb0031
:101800000cc8bf000080fb006700b9000000780032
:101810008000410000042000808f5000ab003400a5
:101820000b68ef00aa0037004e409000ff4f5000b9
:1018300004003600ce409000e0c7b30080cf5000d7
:1018400002003600f0c3b300404798000040eb00b0
:10185000004f780057003700ce40900020c5b300fd
:1018600080cf50000c003e004e4090000080fb00f6
:101870006500b9000000780001f62f00808040006c
:101880001e80fb0000804000017328006141780049
:10189000224798000b0037004e4090000080fb006c
:1018a0006500b9000000780011e62f00808040003c
:1018b0001e80fb0000804000f1822800614178001a
:1018c000224798000040eb00104798003500370091
:1018d0002e4090000080fb00610060000040780016
:1018e0000004e0000300320010c0b300304798004d
:1018f000020037000040eb00304798000cc8bf00e2
:10190000e14f500008003a00b1802000914078007b
:101910001e40900080c040000ac8bf001e4040002a
:10192000a8fe070018003700c3802000934178000c
:10193000c280200012417800c180200091407800d0
:101940001e4090008180fb000088b90000007800f4
:10195000804078000bc8bf0000c24000c18020005a
:10196000914078001e4078008180fb000088b9001b
:1019700000007800804078000ac8bf0000c0400026
:1019800084407800540007001e4090000040e800aa
:10199000104798002e4090000080fb000000d1000e
:1019a000204798001e409000e64f5000c8ff3600c8
:1019b0001e4fe8001e407800e44f5000a6ff36009e
:1019c0000cc8bf006700b9000000780080417800b3
:1019d000c280200012417800b480200014427800b8
:1019e0000cc8bf006500b900000078008040780096
:1019f0000ac8bf0000c040008440780036000700dd
:101a00000cc8bf006600b900000078008040780074
:101a10000ac8bf0000c040000ae8b7000ac8bf00fb
:101a20000081fb000cc8bf000080fb006600b9000d
:101a3000000078000008b000800f51000200340060
:101a400000c8b3000ae8b70012c8bf000004e000f5
:101a50001f0032000ac8bf000081fb000cc8bf0095
:101a60000080fb006500b9000000780080004100a4
:101a700000082000808f5000150034000a68ef0035
:101a80000cc8bf00c300dd000bc8bf0000c0400091
:101a90000be8b7000bc8bf000081fb000cc8bf00fb
:101aa0000080fb006700b900000078008000410062
:101ab00000042000808f5000050034000b68ef0008
:101ac00003003700000000000100370000000000a4
:101ad0000080fa00000006000800fa004047980065
:101ae0005147980062479800734798004e40900015
:101af0000080fb00100798009e009000010f780006
:101b0000060037001e007800004078007e419000fb
:101b1000de409000090007001e0fe8006e409000b4
:101b20008080fb001e009000008040009e0f50004f
:101b3000f4ff3c000080fa00000006000400fa00f8
:101b4000004f780011479800224798001e409000ef
:101b50008080fb002e4090000080fb000080400051
:101b60008001e9001e81fb001e4090008080fb0088
:101b70001e80fb00020007000080fa000000060043
:101b80001800fa00000f9800110f9800220f98001b
:101b9000330f980010c0b30040479800be08900073
:101ba0001e089000008050000001780002f0a7009d
:101bb0000201ea00ae0890000e089000008050007c
:101bc0008000780001f0a7008100ea0010c0b30097
:101bd000810f510001003c000040eb00504798008d
:101be0005e4090000004e0000c0032008e0890007f
:101bf000310798009e089000010f9800be009000e9
:101c0000110f9800ae08900041079800be089000a0
:101c1000210f9800ce009000310f98008e089000a0
:101c20002e089000808f50000c0034008e08900029
:101c300051079800ae089000010f9800de00900058
:101c4000210f98009e08900061079800be08900040
:101c5000110f9800ee009000310f98002e089000b0
:101c6000804078000e0890000040780000c05000ce
:101c7000604f9800be0890001e0890000080500041
:101c800000f0a7000000ea00704f98006e48900036
:101c90000080fb000000d100004078000080fb00c5
:101ca000100798009e0890003e089000808f50001a
:101cb00003003d0010c0b300004f7800370037002c
:101cc00000c0eb00004f7800340037005e40900009
:101cd0000004e0000f0032004e4090000004e000dd
:101ce000060032000e089000804078001e08900028
:101cf00000407800b3fd0700140037000e08900084
:101d0000804078001e08900000407800adfd07007c
:101d10000e0037004e4090000004e0000600320044
:101d20001e089000804078000e0890000040780067
:101d3000a4fd0700050037001e08900080407800d1
:101d40000e089000004078009efd07007e4890003d
:101d50000080fb009e00900000805000100798005b
:101d60001e0090000000e00009003d001e00fb0086
:101d70009e08900000804000100f98006e48900070
:101d80000080fb009e00900000804000100798003b
:101d90000e0890000000e800000f98008e089000e8
:101da0002e089000808f5000c8ff34000080fa0099
:101db000000006000200fa00004f78001e40780084
:101dc0000004e00002003a0010c0b300004f7800a9
:101dd0001e417800c1802000824878000080fa000f
:101de000000006000200fa00004f7800114798003a
:101df0001e4078000004e0000b0035009e4090007b
:101e0000f0c3b30080cf500009003e001e417800af
:101e1000a1802000824878001e419000b1802000ff
:101e200082487800030037000000000001003700fe
:101e3000000000000080fa00000006000200fa0026
:101e4000004f780092000700a0c7b300c20007004f
:101e5000aa000700b20007000040eb00be00070028
:101e60001e4078000004e0000d003200d0c8b3002e
:101e7000b9000700a1000700a900070040c1b30096
:101e8000b50007009d000700a5000700f0cab300d9
:101e9000b100070099000700a10007000c003700ff
:101ea000e0cab300ac000700940007009c000700e4
:101eb000d0c8b300a80007009000070098000700f2
:101ec00000c1b300a40007008c00070094000700c5
:101ed000780007000080fa00000006000000fa0009
:101ee0008220ef008400a9009400a8000080fa007e
:101ef000000006000000fa002023ef002223ef007c
:101f00002423ef003023ef002823ef0021e3a80073
:101f100025e3a8004119800000fe2f00008060002a
:101f20000010a0004019880041198000f00f2e0019
:101f3000008060000090a000401988000080fa0036
:101f4000000006000000fa0021088000f0fc2f00cd
:101f5000008060000050a0002008880004c1a90093
:101f60000421a90000102e001008880005e1a80037
:101f70009460a8008460a9000080fa0000000600b8
:101f80000000fa00010e800030ff2f00008060008a
:101f9000000e8800010e8000c0ff2f00008060004e
:101fa000000e8800110e80000000280000806000f4
:101fb000100e8800210e8000000028008080600044
:101fc0003073200001007000200e8800c901a800b5
:101fd000c881a900c801a800610e8000f0f32f009d
:101fe00000806000600e8800610e800000fc2f0001
:101ff00080806000b003200001007000600e880047
:10200000d621ef00c1e1a8000080fa000000060020
:102010000000fa00e134800000fe2f000080600024
:102020000010a000e0348800e1348000f00f2e00a2
:10203000808060000030200001007000e0348800e3
:10204000e021ef00e421ef00010f8000f08f2f006e
:10205000808060000050200001007000000f8800a8
:10206000e161a8000080eb00300f88000080fa00da
:10207000000006000000fa00800020002010880008
:102080000722a80007e2a8000080fa00000006006e
:102090000000fa000602a8000000000030108000d6
:1020a000610060000000e000fcff3a000080fa00e0
:1020b000000006000000fa000642a8000000000030
:1020c00030108000640060000000e000fcff3a0077
:1020d0000080fa00000006000000fa000622a800b6
:1020e0000080fa00000006000000fa000682a80046
:1020f00006a2a9000080fa00000006000000fa0015
:1021000000000000411080000000240000806000fa
:102110000000e000fbff3a000080fa00000006002b
:102120000000fa00000000004110800000002800bc
:10213000008060000000e000fbff32000080fa0039
:10214000000006000000fa000682a80006a2a8000f
:102150000080fa00000006000200fa00004f78003c
:102160001e00fb00101088000000000040108000de
:10217000610060000000e000fcff3a000080fa000f
:10218000000006000000fa000662a80000108000af
:10219000004078000080fa00000006000400fa0009
:1021a000004f78001147980022479800b8ff0700b9
:1021b0001e80fb000000400000407800e6ff0700a2
:1021c000ceff0700d6ff07001e409000e2ff070089
:1021d000caff0700d2ff07002e409000deff070075
:1021e000c6ff0700ceff0700b2ff07000080fa001d
:1021f000000006008000fa00b0ff2f006019880080
:10220000d0382800401688008620a90039ff070032
:102210005bff07007eff07004aff070095ff0700ee
:102220002eff070010fc0700f3fc07003040800081
:102230000000e00003003200e10f50001100320006
:102240001f0037002800070000408000cf80de001c
:1022500013f907000002be0070408000814080003a
:102260000001be000400be0025f90700ebf80700de
:10227000000078001040880010408000b00e8800f8
:102280000f0037001800070000408000cf80de00fc
:1022900003f907000002be0070408000814080000a
:1022a0000001be000400be0015f90700dbf80700be
:1022b0000000780010408800d621ef0000000000e8
:1022c000b2002000419128000e00780073fa070048
:1022d0000e01780011c0b300e0c1b300f9fc0700a3
:1022e00085fc0700d1ff37000000fa002023a8007a
:1022f0009004200001002000260007002023a900f0
:102300000000000000198000610060000000e00093
:10231000fcff3200001880004200de000040880010
:1023200001408000f03f20000080600000408800f5
:102330000080fa00000006000000fa000080fa00a9
:042340000000060093
:020000040000fa
:102344000008000008000000000000000e08000063
:10235400040000000200000047476700410000003d
:102364001608000000040000000000000808000037
:102374000600000000000000120800000400000035
:102384000200000001027a000000000000000000ca
:020000040000fa
:10239400f03fb1000180b10006003500ee030900f2
:1023a40000000000403fb1000180b100fbff3d0090
:1023b4001000b000203fb00002003500008009008a
:0823c40000000000000006000b
:020000040000fa
:0200000401f009
:04000c008000000070
:020000040000fa
:0200000401f009
:040014005f00000089
:020000040000fa
:0200000401f009
:04001c00ddff000004
:00000001FF
