:020000040000fa
:080000000002040000000000f2
:020000040000fa
:0400080028030000c9
:020000040000fa
:04000c0028030000c5
:020000040000fa
:0400100028030000c1
:020000040000fa
:0400140028030000bd
:020000040000fa
:0400180028030000b9
:020000040000fa
:04001c0028030000b5
:020000040000fa
:0400200028030000b1
:020000040000fa
:0400240028030000ad
:020000040000fa
:04002800c80200000a
:020000040000fa
:04002c0028030000a5
:020000040000fa
:0400300028030000a1
:020000040000fa
:04003400f2020000d4
:020000040000fa
:040038002803000099
:020000040000fa
:04003c002803000095
:020000040000fa
:040040002803000091
:020000040000fa
:04004400280300008d
:020000040000fa
:040048002803000089
:020000040000fa
:04004c002803000085
:020000040000fa
:040050002803000081
:020000040000fa
:04005400280300007d
:020000040000fa
:040058002803000079
:020000040000fa
:04005c002803000075
:020000040000fa
:040060002803000071
:020000040000fa
:04006400280300006d
:020000040000fa
:040068002803000069
:020000040000fa
:04006c002803000065
:020000040000fa
:040070002803000061
:020000040000fa
:04007400280300005d
:020000040000fa
:040078002803000059
:020000040000fa
:04007c002803000055
:020000040000fa
:040080002803000051
:020000040000fa
:04008400280300004d
:020000040000fa
:040088002803000049
:020000040000fa
:04008c002803000045
:020000040000fa
:040090002803000041
:020000040000fa
:04009400280300003d
:020000040000fa
:040098002803000039
:020000040000fa
:04009c002803000035
:020000040000fa
:0400a0002803000031
:020000040000fa
:0400a400280300002d
:020000040000fa
:0400a8002803000029
:020000040000fa
:0400ac002803000025
:020000040000fa
:0400b0002803000021
:020000040000fa
:0400b400280300001d
:020000040000fa
:0400b8002803000019
:020000040000fa
:0400bc002803000015
:020000040000fa
:0400c0002803000011
:020000040000fa
:0400c400280300000d
:020000040000fa
:0400c8002803000009
:020000040000fa
:0400cc002803000005
:020000040000fa
:0400d0002803000001
:020000040000fa
:0400d40028030000fd
:020000040000fa
:0400d80028030000f9
:020000040000fa
:0400dc0028030000f5
:020000040000fa
:0400e00028030000f1
:020000040000fa
:0400e40028030000ed
:020000040000fa
:0400e80028030000e9
:020000040000fa
:0400ec0028030000e5
:020000040000fa
:0400f00028030000e1
:020000040000fa
:0400f40028030000dd
:020000040000fa
:0400f80028030000d9
:020000040000fa
:0400fc0028030000d5
:020000040000fa
:0401000028030000d0
:020000040000fa
:0401040028030000cc
:020000040000fa
:0401080028030000c8
:020000040000fa
:04010c0028030000c4
:020000040000fa
:0401100028030000c0
:020000040000fa
:0401140028030000bc
:020000040000fa
:0401180028030000b8
:020000040000fa
:04011c0028030000b4
:020000040000fa
:0401200028030000b0
:020000040000fa
:0401240028030000ac
:020000040000fa
:0401280028030000a8
:020000040000fa
:04012c0028030000a4
:020000040000fa
:0401300028030000a0
:020000040000fa
:04013400280300009c
:020000040000fa
:040138002803000098
:020000040000fa
:04013c002803000094
:020000040000fa
:040140002803000090
:020000040000fa
:04014400280300008c
:020000040000fa
:040148002803000088
:020000040000fa
:04014c002803000084
:020000040000fa
:040150002803000080
:020000040000fa
:04015400280300007c
:020000040000fa
:040158002803000078
:020000040000fa
:04015c002803000074
:020000040000fa
:040160002803000070
:020000040000fa
:04016400280300006c
:020000040000fa
:0402080028030000c7
:020000040000fa
:04020c0028030000c3
:020000040000fa
:0402100028030000bf
:020000040000fa
:0402140028030000bb
:020000040000fa
:0402180028030000b7
:020000040000fa
:04021c0028030000b3
:020000040000fa
:0402200028030000af
:020000040000fa
:0402240028030000ab
:020000040000fa
:04022800c802000008
:020000040000fa
:04022c0028030000a3
:020000040000fa
:04023000280300009f
:020000040000fa
:04023400f2020000d2
:020000040000fa
:040238002803000097
:020000040000fa
:04023c002803000093
:020000040000fa
:04024000280300008f
:020000040000fa
:04024400280300008b
:020000040000fa
:040248002803000087
:020000040000fa
:04024c002803000083
:020000040000fa
:04025000280300007f
:020000040000fa
:04025400280300007b
:020000040000fa
:040258002803000077
:020000040000fa
:04025c002803000073
:020000040000fa
:04026000280300006f
:020000040000fa
:04026400280300006b
:020000040000fa
:040268002803000067
:020000040000fa
:04026c002803000063
:020000040000fa
:04027000280300005f
:020000040000fa
:04027400280300005b
:020000040000fa
:040278002803000057
:020000040000fa
:04027c002803000053
:020000040000fa
:04028000280300004f
:020000040000fa
:04028400280300004b
:020000040000fa
:040288002803000047
:020000040000fa
:04028c002803000043
:020000040000fa
:04029000280300003f
:020000040000fa
:04029400280300003b
:020000040000fa
:040298002803000037
:020000040000fa
:04029c002803000033
:020000040000fa
:0402a000280300002f
:020000040000fa
:0402a400280300002b
:020000040000fa
:0402a8002803000027
:020000040000fa
:0402ac002803000023
:020000040000fa
:0402b000280300001f
:020000040000fa
:0402b400280300001b
:020000040000fa
:0402b8002803000017
:020000040000fa
:0402bc002803000013
:020000040000fa
:0402c000280300000f
:020000040000fa
:0402c400280300000b
:020000040000fa
:0402c8002803000007
:020000040000fa
:0402cc002803000003
:020000040000fa
:0402d00028030000ff
:020000040000fa
:0402d40028030000fb
:020000040000fa
:0402d80028030000f7
:020000040000fa
:0402dc0028030000f3
:020000040000fa
:0402e00028030000ef
:020000040000fa
:0402e40028030000eb
:020000040000fa
:0402e80028030000e7
:020000040000fa
:0402ec0028030000e3
:020000040000fa
:0402f00028030000df
:020000040000fa
:0402f40028030000db
:020000040000fa
:0402f80028030000d7
:020000040000fa
:0402fc0028030000d3
:020000040000fa
:0403000028030000ce
:020000040000fa
:0403040028030000ca
:020000040000fa
:0403080028030000c6
:020000040000fa
:04030c0028030000c2
:020000040000fa
:0403100028030000be
:020000040000fa
:0403140028030000ba
:020000040000fa
:0403180028030000b6
:020000040000fa
:04031c0028030000b2
:020000040000fa
:0403200028030000ae
:020000040000fa
:0403240028030000aa
:020000040000fa
:0403280028030000a6
:020000040000fa
:04032c0028030000a2
:020000040000fa
:04033000280300009e
:020000040000fa
:04033400280300009a
:020000040000fa
:040338002803000096
:020000040000fa
:04033c002803000092
:020000040000fa
:04034000280300008e
:020000040000fa
:04034400280300008a
:020000040000fa
:040348002803000086
:020000040000fa
:04034c002803000082
:020000040000fa
:04035000280300007e
:020000040000fa
:04035400280300007a
:020000040000fa
:040358002803000076
:020000040000fa
:04035c002803000072
:020000040000fa
:04036000280300006e
:020000040000fa
:04036400280300006a
:020000040000fa
:100400002fc420000e7f24000e0188000000000091
:10041000000020000000e000020032000001200087
:1004200020028800140007008b0007000000e00095
:1004300003003a004076210001002000020037004e
:100440000000200001002000810f70000100320038
:1004500014000700000020000000e000020032004d
:10046000000002000000000056140200000000001e
:100470000040da000000fe004440a900001f2000f8
:100480000000e0000300320000002000a00188000e
:100490004440a800000006008a1f78008b1f7800e7
:1004a0000000060091018800800478000000eb0045
:1004b0001a003700e284440032a0b4009905ba0063
:1004c000e284440032a0b4009906ba00e2844400f9
:1004d00032a0b4000006eb00476fde00fd07b2005b
:1004e000636ce10003003a00ebff07000000eb0043
:1004f0000a003700606ce10004003a00005deb0088
:100500008b05e900fdff3e00040037006168e10053
:10051000010032000086eb000b00070019c7ba008b
:100520001905ba000e04e00003003a000a00e000da
:10053000e0ff3a0000000600fe07b2009e018800be
:100540008a047800f5ff3700395dba008b05e900b1
:100550000c003200295dba008b05e900080032006a
:100560000c00e00003003a00e284440032a0b40032
:10057000f5ff370019ddba008b05e900faff3a00f4
:100580008904e800e184440032a0b40000000600c1
:10059000801f78003400f80000002000a0018800cf
:1005a0000000fa008400a900204080000000e00064
:1005b00003003200e10f5000040032000500370054
:1005c0001000200020408800020037000428ef00bf
:1005d000000000000080fa003400f9004f007800ad
:1005e000004006003600f800809fbe00829fbe00db
:1005f000849fbe00869fbe003400f80000002000eb
:10060000a00188000000fa00200f80008000eb00ad
:100610003a000700d2bc2300c30b24001b020700d2
:100620003040880041408800e421ef008460a90048
:100630000080fa003400f9004f03be004f02be00f4
:100640004f01be004f00be003600f900004006001a
:100650000040da000000fe00000005001400200049
:1006600092033700f4ff2f00900337000001be0013
:10067000240007000470a70003f0a1006509b10081
:10068000160032000d0035006828e1000600350034
:10069000f0ff2f00f1ff27000300e00013003b00f4
:1006a0000100280000000500000040008180480093
:1006b0008502e900fcff3a0008003700f88f42008d
:1006c00002003c008000eb00000005008100d1002a
:1006d0000080d3008502e800fcff3a000300e00040
:1006e00002003b0060001000e080180000000600df
:1006f0004f89de0082017800870337006011b8005f
:1007000095033700c70ade00f107b200f50fb2000b
:1007100008003200e1cf4200020032000170a00068
:1007200024000500810f700001003200040805005c
:1007300044000500810f700002003a00140005001b
:100740008502e9000000400081c04800fcff3b003a
:100750000170a0002400050007f82700078361004e
:100760000638e10004003a00f707200087836100a3
:100770008703710001003a0003f0a200889fbe00c9
:100780008a9fbe008c9fbe00470ade000480a10045
:10079000c71ade000580a100070028000785600059
:1007a00087856100f70f20000720e1009e003200de
:1007b0000728e1009c003200010678000400e000f8
:1007c000b4003200f7072000878060000170a000ad
:1007d0000500e000c0003200f707200087816100bb
:1007e0000370a000050652000f003a000b50e10014
:1007f0000b0032000308e10002003a000200e100b1
:100800007e0032000204500083845800040031004e
:100810000001fd008101fd008402fd008a05fd004c
:100820006044b800210037000520e10005003d00cc
:100830000001fd008101fd008402fd008a05fd002c
:10084000050652007a60e100050035000170a10044
:100850004722dd00848070008a80700063003700ca
:100860006044b800ef02660007ff2f00070666002d
:100870000500e00006003400f08312008714dd005c
:100880000511de00071bdd00060171008519de0081
:100890007060e100050035000904780082047800ea
:1008a000030178008001eb00700656000b50e10058
:1008b00003003a0002004000838048000400370033
:1008c00060041400e0841c0002005800838058007b
:1008d0000188a300060032008100d1000080d3000f
:1008e0008984d3000884d3000402e800270037007d
:1008f0000178a30025003a000100e0000300320067
:100900008186cf00698656000a0037008c002000df
:100910000000e00004003a00090078008804780034
:100920000004eb00700252008086cf000d064600e6
:100930000c06e9007060e1000600350080007800d8
:1009400009007800880478000004eb007006560067
:10095000700252000c00e0000c0034008c08dd0036
:10096000f00316000703de00868070000c00dd0037
:10097000074bde00060070008c4cdd000743de00f4
:10098000868474000c44dd000c0252006120e100fa
:1009900020003500610160000700280087816400a5
:1009a000f7ff270087836400070374000300e0005b
:1009b0000600320082037300040032000000e800e9
:1009c000e08048000188a3000e003a00f70f2000e5
:1009d0000720e1004a003d000170a1004722dd0030
:1009e000810072008a8070000000be004f06be00c9
:1009f0004f05be004f04be00000006006000b800b6
:100a0000faff37008100d1000080d3000402e80023
:100a1000eeff37000401780089017400a10107008e
:100a20008a807000f1ff3700f701070007027800a5
:100a30000001fd008101fd00f3010700870278003d
:100a4000850372000778a300040032000001fd0056
:100a50008101fd0006020700e4ff37008503620004
:100a60000768a300080032000b50e10003003200c9
:100a7000f0ff2f00f1ff2700dcff37000001fd0031
:100a80008101fd00d9ff37000468a300d7ff3200c1
:100a9000faff3700f8ff2700888360000b003a0058
:100aa0000000e00009003a008303640082837300c1
:100ab000020032000200be00ccff37000b50e10004
:100ac000ceff3a000200be00c8ff3700140020002d
:100ad000810064003eff3700f8ff27008883610033
:100ae00004003a000200e00002003a008c007800a6
:100af000beff3700150020008301640039ff370076
:100b000001f827000000200081007500b7ff3700c2
:100b1000889fbe008a9fbe008c9fbe001b002000e5
:100b20000202be0005866800060028000606660070
:100b30004709de00f20fb200820032000243e800f3
:100b400080003200c729de00f30fb2007d003200c2
:100b50000343e8007b003200f107b2000170a000ff
:100b6000f507b2000570a000c708dd004903de00ec
:100b7000868070004700dd00c72add004923de00c3
:100b8000868272004722dd000305510004035000f5
:100b90008583580003003100000040008180480038
:100ba0000a05e9008c1f78008a9fbe0004005000ef
:100bb000858058000402420085824a0000004000ff
:100bc000818048000005eb000004be006033b800df
:100bd0000406be000d48e100560031001100090076
:100be0004dccd8000c01b8000d02b8008481410042
:100bf00060824a008283530003045c0084845c00aa
:100c000060055d000a00e00025003a0080057800dc
:100c10000d40e100490031008800780007007800ad
:100c2000110009004d88d8000c01b8000d02b80071
:100c30008481410060824a006003110083835b006d
:100c400004045c00e0845c000900e00021003a003c
:100c50004f01be000300e0002b003200e301600002
:100c6000070673008c81710001003200640070007f
:100c70004200de004e5edd000c007000c258de0057
:100c800001e0a00083010700cf017800818071009e
:100c90004f06be004f05be004f04be000000060018
:100ca0008c8343000d044c00e0844c0060054d0033
:100cb0000000e9000a00e000d4ff32008c8343000a
:100cc0000d044c00e0844c0060054d000000e9007c
:100cd000ceff37000c0343008d834b0060044c00b3
:100ce000e0844c000000e9000900e000d8ff320079
:100cf0000c0343008d834b0060044c00e0844c00e7
:100d00000000e900d2ff37004200de004e5edd0049
:100d10000c007000c258de0001e0a000cf01780096
:100d20000300e000daff320060001000e0801800ed
:100d3000d7ff3700f0ff2f00aaff3700f0ff2f008a
:100d4000b9ff37000404be002f01070087067800b2
:100d50000004fd008104fd002b01070007836600ed
:100d60000678a300030032000960a7000800be0057
:100d70002c0037000d78a300020032000800be00ee
:100d8000280037000778a30026003a0001f0a100f0
:100d900009f0a1000668a30003003200f1ff27005c
:100da000f0ff2f00baff37000d68a30003003200e8
:100db0000800be008c807000b5ff37000768a300f4
:100dc00007003a000648a30003003200f1ff2700a5
:100dd000f0ff2f00aeff37000d48a30003003200e4
:100de0006000b8008c807000a9ff37000748a3009e
:100df0000400320001f82700000020008c80700001
:100e0000a3ff3700760107000004fd008104fd0008
:100e100002057800720107000802be008a0178000e
:100e200059ff37000160a000120220000242880032
:100e300097ff37000100e000120032000500e000db
:100e400010003200889fbe008a9fbe008c9fbe00ab
:100e50000006eb0001f8a300030032006000100060
:100e6000e08018000cf0a00005f8a3000300320099
:100e700060021200e0821a000cf0a2008005eb0074
:100e800041ff37006000b8000200050003836800de
:100e90000700280007036300470ade000480a10062
:100ea000c71ade000580a100f70f20000720e1002f
:100eb000420032000728e10040003200889fbe0057
:100ec0008a9fbe008c1f7800f107b200f307b200c2
:100ed0000400e000640032000170a0000500e000a2
:100ee000680032000370a00085054200eb07b100e6
:100ef0000204b8000302b8008484440060854a00fc
:100f0000020ab800848444000a854a00030ab80033
:100f100004054500040033000804d0008984d20091
:100f20000a85d2008b05e9006158e1003d003500db
:100f3000021020000901610003082000898161007e
:100f4000f70720008783640008867300c84cde0022
:100f5000c853dd00878474004855de000300e000bc
:100f60000600320082037600040032008904e800a3
:100f700060054d000a88a3000c003a00f70f20001e
:100f80000758e10044003d000a70a100c75ddd0084
:100f90000a8575008a007300090078004f06780002
:100fa0004f05be004f04be00000006000a05d10038
:100fb0008984d3008b05e800f0ff3700881f780094
:100fc0000604780090000700070278000001fd0089
:100fd0008101fd008c000700870278008503720004
:100fe0000778a300050032000001fd008101fd002b
:100ff0009f0007004f047800000006008503720080
:101000000748a30003003200f0ff2f00f1ff270084
:10101000f8ff37000000200001f8270088807000ea
:10102000f4ff3700880178004848dd0080817100b6
:101030004848de00c850dd0001007000c850de00e6
:10104000060478000b017800160007008880700005
:10105000d2ff37000500e000050032001700200035
:101060003a0007009dff370081037000f9ff3a0046
:10107000860078004f0678004f05be004f04be0082
:101080000000050083037100f9ff320027002000f3
:101090002e00070094ff370001f8270086807000bb
:1010a000f4ff37000100e00026003200610111006a
:1010b0007810e10023003c006022b8007010e100cd
:1010c0000400350080027800010078008000eb0009
:1010d000700151000200e0000900340070031100ab
:1010e000062add00822ade008603dd008782720088
:1010f0000200de00860bdd00070070008208de00c3
:1011000084817100f4ff27000482620084817100f1
:1011100004002800848262006102600005f0a600dd
:101120000000060004827100070032000000e800a1
:10113000e0804800000006000002be006000b80029
:10114000efff37006000b80000000600889fbe0077
:101150000004eb006138e10016003a000100e000f5
:1011600008003a00c800de004800dd0088002000ca
:101170000100e00003003a00c800de004800dd0086
:10118000680444008184cf00e984540006003400e0
:101190008908dd00f08314008703de00878070007b
:1011a0000900dd0009044400610214004f04be0080
:1011b000000006000300e00008003a00c811de004d
:1011c0004811dd00880020000300e00003003a0021
:1011d000c811de004811dd00680444008384cf009c
:1011e000e9845400060034008919dd00f0831400fe
:1011f0008713de00878171000911dd0009044400b6
:10120000e1021400e9ff37002700200001f0a700e9
:1012100017002000470bde00f60fb200040032007a
:101220000643e8000a0032004702b300000006004f
:1012300001037800f607b2000603700002003a00ce
:101240000703b300000006008702b3000000060099
:1012500001037800f607b2000603700002003200b6
:101260000770a000000006000760a0000000060054
:101270000478a300040032000578a30003003200c4
:101280000168a30001003a000200be000160a00056
:101290000000060081017000270032008002eb0090
:1012a00001f8a3000300320060001000e080180085
:1012b00015002000f4072000020242002000340044
:1012c000f70320008703600006042000000363008a
:1012d00002082000000161004700de00c909dd00ae
:1012e00000807100c708de000600e0000800320040
:1012f00087037100060032001000b0000180b000ca
:101300000188a30002003200c108de000402e800e8
:10131000f107b200f30f20000320e10003003d00bd
:101320004722dd00810072002900370001f8270004
:101330000000eb00260037006000b8000000060047
:10134000680212007f20e100020034006000b80053
:101350001f0037006011b8007020e1000400350064
:1013600080017800010078008000eb0070025200dc
:101370000400e00009003400f00312000719dd004a
:101380008419de000703dd00868171000400de00a1
:10139000070bdd00060070008408de00f7ff270061
:1013a0008383630087037100060028000303630042
:1013b000070032000700e00003003a00610160000e
:1013c00002817300020032001000b0000180b00002
:1013d0000500a6000000060001f0a00000000600c5
:1013e0004f0ade004709de00f107b200f20fb2003b
:1013f0000b003200f207b1000170a000c708dd0049
:10140000c901de00838070004700dd000400a600f3
:101410000000060060001000e080180000000600d8
:10142000810f700001003a00000006008182cf00a9
:101430000500e00010003e008082cf00ee824200f6
:101440007028e1000400390007003e0080007800a9
:101450000000eb000e003700708312008600de00f3
:101460000500dd000a003700708352008600dd00b1
:101470000000eb0006003700e28252008508dd0024
:10148000708312000603de00868070000500dd0018
:101490007507b0000501ea000400a6000000060080
:1014a00060001000e080180000000600889fbe0069
:1014b0008a9fbe00841f78007c0007004f007800e0
:1014c00011003300f0ff2f00838f6c0006003b00fb
:1014d000040565000a00a7000800370009f0a6000f
:1014e0001000200008003700820f5400838f5c003a
:1014f000030039001000200001003e000000200021
:1015000009f0a7000000ea004f05be004f04be002e
:101510000000e00000000600881f78000304780047
:101520000300e00007003d0060001000e0801800ac
:1015300060011900e081190002003b0001f02d005c
:10154000030037000400070008f0a70001f0a00026
:101550004f04780000000600889fbe008a9fbe00ee
:1015600000827000040271000482710026003200c3
:101570000004be000200be006011b8006b0920002c
:10158000950220000182cf000a0039000541b10018
:101590000082cf00070039000541b1000982cf0069
:1015a000040039000541b1000882cf000100390074
:1015b0000541b10005425200120032000a003b0012
:1015c00082817100610164008100d1000080d3003c
:1015d0008984d3000884d3008b05e8000442e80026
:1015e000f7ff3a00070037000804440089844c00e4
:1015f00000004800818048008b05e9000442e900b2
:10160000f9ff3a00030007004f05be004f04be007b
:101610000000060081002000618055000b003d00a5
:101620000b00200061fe2f000100e1001d003400ce
:1016300082817100610164008904d1000884d300b3
:101640000000e800faff3a00710020006100640029
:1016500003007000020060000900320061044400d1
:10166000e0844c000988a500050032008b05e800e5
:101670006808e10002003a008904d1000884d30020
:10168000f20f20000258e10005003d00c75ddd00bb
:10169000f907b20089807500080078000000060094
:1016a0000bf827008b007800000005000004be0046
:1016b00014fc07000003be000405be000200be00cb
:1016c00010fc0700844f75000000060080017800c0
:1016d00002003700b15978000201e9000200e00081
:1016e000fcff3a0000000600889fbe008a9fbe00f3
:1016f000800478000200e0005b00320001407800c6
:10170000814c780082814400f1f99f00e20f510082
:101710005500360091449800a1449800e1f99f00db
:10172000d1f99f00e60f51004f003600b1449800f8
:10173000c1f99f00e80f51004b0036000905ea008f
:10174000630565000a8444000a055100c1ff2f00ab
:10175000010565000080fb008000eb0012102000f6
:101760001310200044000700008cbe000a01440052
:1017700060b99f0071b99f00e80f55003a0036002c
:101780002004980031049800400498005104980007
:1017900020b99f0031b99f0040b99f0051b99f0007
:1017a000f80f55003000360060049800710498006e
:1017b000000c9800110c9800200c9800310c980037
:1017c000400c9800510c980020b19f0031b19f004f
:1017d00040b19f0051b19f0060b19f0071b19f0067
:1017e00000b99f0011b99f006401640078014100b5
:1017f00002044400020555006011b8000203be0057
:101800000002be000403be006022b80000007200a7
:101810008180720002017300838173001000370021
:10182000009cbe000294be00400498005104980041
:101830006204980073049800000c9800110c980042
:10184000220c9800330c9800400c9800510c980022
:10185000620c9800730c98000a02b1000802b000f4
:10186000ff0f5500eeff3e00090078004f05be0057
:101870004f04be0000000600020ab900001bb900b8
:101880000200b80081004200810043000000060011
:020000040000fa
:10189000000000000000000000000000005f0000e9
:1018a0000000000000070000000700000014000016
:1018b0007f1400007f140000242a00007f2a00000b
:1018c0001223000013080000646200003649000083
:1018d0005620000050000000080700000300000030
:1018e000001c000022410000000000004122000016
:1018f0001c0000002a1c00007f1c00002a080000b9
:10190000083e000008080000008000007030000061
:10191000000800000808000008080000000000009f
:1019200060600000002000001008000004020000b9
:101930003e510000494500003e000000427f00008b
:1019400040000000724900004949000046210000a3
:10195000414900004d33000018140000127f0000c0
:101960001027000045450000453900003c4a0000b2
:101970004949000031410000211100000907000021
:101980003649000049490000364600004949000038
:10199000291e0000000000001400000000000000ec
:1019a0004034000000000000000800001422000085
:1019b0004114000014140000141400000041000041
:1019c000221400000802000001590000090600006e
:1019d0003e4100005d5900004e7c000012110000e5
:1019e000127c00007f49000049490000363e00009b
:1019f00041410000412200007f41000041410000c0
:101a00003e7f000049490000494100007f09000075
:101a100009090000013e000041410000517300002f
:101a20007f080000080800007f000000417f0000e0
:101a30004100000020400000413f0000017f000005
:101a400008140000224100007f40000040400000d8
:101a5000407f0000021c0000027f00007f040000a5
:101a6000081000007f3e000041410000413e0000a0
:101a70007f09000009090000063e000041510000f6
:101a8000215e00007f0900001929000046260000a1
:101a90004949000049320000030100007f010000b5
:101aa000033f000040400000403f00001f200000b6
:101ab000402000001f3f000040380000403f000071
:101ac00063140000081400006303000004780000a1
:101ad0000403000061590000494d0000430000006c
:101ae0007f41000041410000020400000810000096
:101af0002000000041410000417f0000040200007e
:101b0000010200000440000040400000404000008e
:101b100000030000070800000020000054540000eb
:101b2000784000007f28000044440000383800005e
:101b300044440000442800003844000044280000c9
:101b40007f380000545400005418000000080000c2
:101b50007e09000002180000a4a400009c78000088
:101b60007f0800000404000078000000447d0000ad
:101b70004000000020400000403d0000007f0000c9
:101b80001028000044000000004100007f400000d9
:101b9000007c000004780000047800007c0800004d
:101ba0000404000078380000444400004438000079
:101bb000fc18000024240000181800002424000051
:101bc00018fc00007c080000040400000848000025
:101bd0005454000054240000040400003f4400005a
:101be000243c000040400000207c00001c2000003d
:101bf000402000001c3c000040300000403c000041
:101c00004428000010280000444c00009090000080
:101c1000907c000044640000544c0000440000002c
:101c200008360000410000000000000077000000be
:101c30000000000041360000080000000201000022
:101c40000204000002b00000b1b20000b3b4000012
:101c5000b5b60000b7000000484f00004c4100003e
:101c6000204d0000554e0000444f000000000000d1
:020000040000fa
:101c70000400fa00204798000040eb00004f780075
:101c80002e4190009e407800a0c7b3007804070062
:101c90000080fa00000006000000fa003dc8bf0006
:101ca00037e8b7003ec8bf0036e8b70000002200a2
:101cb00011002000b7040700e0cab300ecff0700e2
:101cc00050cdb300eaff070000c8b300e8ff0700eb
:101cd00080cab300e6ff0700f0c3b300e4ff0700cb
:101ce000f0c3b300e2ff070030cdb300e0ff070010
:101cf0000040eb00deff070000c4b300dcff07007c
:101d0000d0c8b300daff07003dc8bf00e14f500064
:101d100003003a0000c1b300d5ff070002003700fe
:101d200040c1b300d2ff070000c2b300d0ff0700dc
:101d30000040eb00ceff070010cab300ccff070045
:101d400080ccb300caff070090cdb300c8ff0700e6
:101d50003dc8bf00e14f500003003a0020c2b3006d
:101d6000c3ff07000200370010cfb300c0ff070019
:101d7000a0cdb300beff070020c1b300bcff070029
:101d800010c8b300baff07003dc8bf00e14f5000c4
:101d900003003a00f0c9b300b5ff070002003700a6
:101da000f0ccb300b2ff070090cdb300b0ff070046
:101db0003dc8bf00e14f500003003a0020c2b3000d
:101dc000abff07000200370010cfb300a8ff0700e9
:101dd000b0cdb300a6ff070000c4b300a4ff070006
:101de00040cab300a2ff070060cab300a0ff07000b
:101df000e0c2b3009eff0700f0cab3009cff0700db
:101e00003868ef003968ef0010c0b3003ae8b70057
:101e10005100070010c0b3008a0207000080fa00da
:101e2000000006000400fa0020479800314798009f
:101e300010c0b300004f78002e4090000004e00076
:101e400040003500be409000f0c3b30080cf50008a
:101e50003e003e001e4078000004e0001c003200fe
:101e60002e4090000081fb003e4090000080fb006f
:101e70004300de00004078008080fb00c708dd00e2
:101e8000810041002e4190000281fb000080fb0098
:101e90004700dd00000041002284200062407800fd
:101ea000004178003e4090000080fb006700600029
:101eb000130020000018dd00004078000040710091
:101ec000004178002084200002f0780020003700d4
:101ed0002e4090000081fb003e4090000080fb00ff
:101ee0004300de00004078008080fb00c708dd0072
:101ef000810041002e4190000281fb000080fb0028
:101f00004700dd000000410022842000624078008c
:101f1000004178003e4090000080fb0067006000b8
:101f2000130020000018dd000040780000c0ea0027
:101f300000406100004178002084200002f0780019
:101f4000030037000000000001003700000000001f
:101f50000080fa00000006000400fa000000eb0018
:101f6000000f78000040eb00204798002500370064
:101f70007c030700a0c7b300ac0307000040eb00e0
:101f8000aa030700ae40900000cbb30000c04000a1
:101f9000a60307000040eb00a403070000c1b30044
:101fa000a2030700780307006e030700a0c7b30071
:101fb0009e03070000c4b3009c0307000040eb0031
:101fc0003047980008003700208420001e004000a1
:101fd000104078001e0fe800940307003e40900078
:101fe0000040e800304798003e4090000004e000c8
:101ff000f5ff3d00640307002e4090000040e8001c
:10200000204798002e409000e74f5000d8ff360040
:102010000080fa00000006000a00fa00e200470013
:1020200032e2280007000900b25878000240200080
:102030008000eb0020842000abfd070010c0b3003f
:10204000004f78001c00370010c0b30008ff0700e5
:1020500000c1b30006ff07001e80fb000000e9007e
:10206000000047002040900001ff07003d030700eb
:10207000a0c7b3006d03070000c4b3006b030700e3
:102080000040eb0010479800050037000040eb00cf
:10209000660307001e4090000040e80010479800cb
:1020a0009e40900000c8b30080cf5000f7ff36007c
:1020b000350307001e4fe8001e407800e84f50002f
:1020c000e1ff36000080fa00000006000600fa007a
:1020d00020479800314798002207980010c0b300ad
:1020e000004f7800be4090002e409000bf010700d6
:1020f0001e407800b1010700060037002e00900056
:1021000010407800ae0090008100e80021079800a0
:10211000060007002e009000104078000004e00048
:10212000f6ff3a000080fa00000006000600fa0000
:1021300040479800ce40900000c2b30080cf5000ce
:1021400006003a0038c8bf000004e00003003a006f
:102150003cc8bf000004e000dc003a004e409000a4
:10216000e74f500004003a003968ef0039c8bf005b
:1021700038e8b700d80037004e409000e84f5000d4
:1021800012003a0038c8bf000081fb003ac8bf0007
:102190000080fb006600b90000007800800f51004d
:1021a0000a003500a183200091407800a00f200094
:1021b0000088b900000078008040780038c8bf006f
:1021c00000c0400038e8b700c30037004e40900020
:1021d000ed4f500002003a003868ef00be003700b3
:1021e0004e409000ea4f500011003a003ac8bf003c
:1021f000c300dd0039c8bf0000c0400039e8b700a7
:1022000039c8bf000081fb003ac8bf000080fb0056
:102210006700b90000007800800041000004200041
:10222000808f5000ab0034003968ef00aa003700ff
:102230004e409000ff4f500004003600ce4090000a
:10224000e0c7b30080cf500002003600f0c3b300f7
:10225000404798000040eb00004f780057003700df
:10226000ce40900020c5b30080cf50000c003e004f
:102270004e4090000080fb006500b900000078002f
:1022800001f62f00808040001e80fb00008040008f
:1022900081c4280061417800224798000b00370074
:1022a0004e4090000080fb006500b90000007800ff
:1022b00011e62f00808040001e80fb00008040005f
:1022c00071d4280061417800224798000040eb005b
:1022d00010479800350037002e4090000080fb002a
:1022e00061006000004078000004e000030032005c
:1022f00010c0b30030479800020037000040eb00e8
:10230000304798003ac8bf00e14f500008003a003b
:1023100091832000914078001e40900080c04000d2
:1023200038c8bf001e404000befe0700180037003e
:10233000a383200093417800a283200012417800fb
:10234000a1832000914078001e4090008180fb0016
:102350000088b900000078008040780039c8bf00cc
:1023600000c24000a1832000914078001e40780008
:102370008180fb000088b900000078008040780070
:1023800038c8bf0000c040008440780054000700f7
:102390001e4090000040e800104798002e4090003a
:1023a0000080fb000000d100204798001e409000f4
:1023b000e64f5000c8ff36001e4fe8001e40780070
:1023c000e44f5000a6ff36003ac8bf006700b900ce
:1023d0000000780080417800a2832000124178003c
:1023e00094832000144278003ac8bf006500b90009
:1023f000000078008040780038c8bf0000c040006e
:1024000084407800360007003ac8bf006600b90073
:10241000000078008040780038c8bf0000c040004d
:1024200038e8b70038c8bf000081fb003ac8bf00d9
:102430000080fb006600b900000078000008b000d2
:10244000800f51000200340000c8b30038e8b70024
:102450003cc8bf000004e0001f00320038c8bf00c5
:102460000081fb003ac8bf000080fb006500b90096
:10247000000078008000410000082000808f50009c
:10248000150034003868ef003ac8bf00c300dd0013
:1024900039c8bf0000c0400039e8b70039c8bf00e4
:1024a0000081fb003ac8bf000080fb006700b90054
:1024b000000078008000410000042000808f500060
:1024c000050034003968ef00030037000000000009
:1024d00001003700000000000080fa000000060044
:1024e0000800fa004047980051479800624798005a
:1024f000734798004e4090000080fb001007980042
:102500009e009000010f7800060037001e00780042
:10251000004078007e419000de40900009000700f6
:102520001e0fe8006e4090008080fb001e009000af
:10253000008040009e0f5000f4ff3c000080fa0035
:10254000000006000400fa00004f780011479800d0
:10255000224798001e4090008080fb002e40900093
:102560000080fb00008040008001e9001e81fb002c
:102570001e4090008080fb001e80fb0002000700d0
:102580000080fa00000006001800fa00000f980012
:10259000110f9800220f9800330f980010c0b3005d
:1025a00040479800be0890001e0890000080500030
:1025b0000001780002f0a7000201ea00ae089000d6
:1025c0000e089000008050008000780001f0a70005
:1025d0008100ea0010c0b300810f510001003c00ef
:1025e0000040eb00504798005e4090000004e0007f
:1025f0000c0032008e089000310798009e08900071
:10260000010f9800be009000110f9800ae089000d6
:1026100041079800be089000210f9800ce0090005e
:10262000310f98008e0890002e089000808f500087
:102630000c0034008e08900051079800ae089000fe
:10264000010f9800de009000210f98009e08900076
:1026500061079800be089000110f9800ee009000ee
:10266000310f98002e089000804078000e089000ee
:102670000040780000c05000604f9800be089000f5
:102680001e0890000080500000f0a7000000ea0043
:10269000704f98006e4890000080fb000000d10051
:1026a000004078000080fb00100798009e08900012
:1026b0003e089000808f500003003d0010c0b30022
:1026c000004f78003700370000c0eb00004f780063
:1026d000340037005e4090000004e0000f0032003c
:1026e0004e4090000004e000060032000e0890000a
:1026f000804078001e08900000407800c9fd070067
:10270000140037000e089000804078001e089000ea
:1027100000407800c3fd07000e0037004e409000d7
:102720000004e000060032001e089000804078009f
:102730000e08900000407800bafd07000500370041
:102740001e089000804078000e089000004078003d
:10275000b4fd07007e4890000080fb009e009000c2
:1027600000805000100798001e0090000000e0005c
:1027700009003d001e00fb009e0890000080400004
:10278000100f98006e4890000080fb009e009000a3
:1027900000804000100798000e0890000000e8003c
:1027a000000f98008e0890002e089000808f500037
:1027b000c8ff34000080fa00000006000200fa00a2
:1027c000004f78001e4078000004e00002003a004c
:1027d00010c0b300004f78001e417800a183200094
:1027e000824878000080fa00000006000200fa002b
:1027f000004f7800114798001e4078000004e00068
:102800000b0035009e409000f0c3b30080cf500015
:1028100009003e001e417800818320008248780034
:102820001e41900091832000824878000300370009
:102830000000000001003700000000000080fa00e6
:10284000000006000200fa00004f78004501070072
:10285000a0c7b300750107000040eb00730107003b
:102860001e4078000004e00007003200d0c8b3002a
:102870006e01070040c1b3006c010700f0cab3004d
:102880006a01070006003700e0cab30067010700cd
:10289000d0c8b3006501070000c1b30063010700a1
:1028a000390107000080fa00000006008000fa00ed
:1028b000889fbe008a9fbe00b0ff2f00601988006d
:1028c000d0382800401688008620a900be000700e6
:1028d000e000070003010700cf0007001a0107000e
:1028e000b3000700ecfc0700cbfd070000408000b0
:1028f000cf80de007ef707000002be00104180009e
:10290000214180000001be000400be005ff9070005
:10291000504088006140880054408000654080003d
:1029200030408000414080000001be000400be0035
:1029300089f70700b0408800c140880074418000da
:102940008541800090418000a14180000001be00cf
:102950000400be006ef807000002be003041800097
:10296000414180000001be000400be0083f7070063
:102970000002be00b0408000c14080000001be00e7
:102980000400be0041f907000002be009040800034
:10299000a14080000001be000400be0077f70700e0
:1029a0000004be00544180006541800090418000d9
:1029b000a14180000001be000400be0033f9070001
:1029c0000002be0030418000414180000001be0095
:1029d0000400be0060f707000005be0070418000e3
:1029e000814180000001be0064f707000002be00c4
:1029f00090418000a14180000001be000400be00a3
:102a000043f807000001be000a00be0052f70700ad
:102a10000002be00d0408000e14080000001be0006
:102a20000400be0019f907000001be000800be0046
:102a300052f707000004be00744180008541800009
:102a400090418000a14180000001be000400be0052
:102a50002ff807000002be00f04080000141800016
:102a60000001be000400be0008f907000001be001e
:102a70000800be0041f707007040880081408800d0
:102a8000704080008140800090408800a140880014
:102a9000d0408000e1408000f04088000141880083
:102aa000b0408000c1408000d0408800e1408800f4
:102ab000704080008140800018c0b30002002400f4
:102ac000c3592400e7f607000000e00001003c00c5
:102ad0000044eb000804e000040032000000240081
:102ae000c1592400704088008140880070408000f7
:102af0008140800018c0b30002002000134e240063
:102b0000d6f607000000e000010035000044eb00ad
:102b10000804e0000400320000002000114e2400f0
:102b20007040880081408800204080000000e00064
:102b300003003200e10f5000100032001200370095
:102b4000fd000700704080008140800002002600e8
:102b500063562400cdf8070002002400c359240066
:102b6000ebf70700c1f6070000007800104088006e
:102b700010408000b00e880003003700ee00070010
:102b8000d621ef0000000000b2002000c1e22800c2
:102b90000e007800cdfa07000e01780011c0b300d6
:102ba000e0c1b30049fd0700ebfc07004fff370011
:102bb0000000fa008220ef008400a9009400a80021
:102bc0000080fa00000006000000fa002023ef0059
:102bd0002223ef002423ef003023ef002823ef000f
:102be00021e3a80025e3a8004119800000fe2f0082
:102bf000008060000010a00040198800411980008a
:102c0000f00f2e00008060000090a00040198800a6
:102c10000080fa00000006000000fa002108800091
:102c2000f0fc2f00008060000040a0002008880019
:102c300004c1a9000421a90000402b00100888004d
:102c400005e1a8009460a8008460a9000080fa0053
:102c5000000006000000fa00010e800030ff2f0087
:102c600000806000000e8800010e8000c0ff2f0071
:102c700000806000000e8800110e80000000280017
:102c800000806000100e8800210e800000002800e7
:102c9000808060003073200001007000200e8800ea
:102ca000c901a800c881a900c801a800610e800060
:102cb000f0f32f0000806000600e8800610e80003d
:102cc00000fc2f0080806000b00320000100700035
:102cd000600e8800d621ef00c1e1a8000080fa0054
:102ce000000006000000fa00e134800000fe2f0022
:102cf000008060000010a000e0348800e134800013
:102d0000f00f2e0080806000003020000100700075
:102d1000e0348800e021ef00e421ef00010f8000a3
:102d2000f08f2f00808060000050200001007000b4
:102d3000000f8800e161a8000080eb00300f8800e0
:102d40000080fa00000006000000fa008000200069
:102d5000201088000722a80007e2a8000080fa00df
:102d6000000006000000fa000602a80000000000b3
:102d700030108000610060000000e000fcff3a00bd
:102d80000080fa00000006000000fa000642a800d9
:102d90000000000030108000640060000000e000cf
:102da000fcff3a000080fa00000006000000fa0074
:102db0000622a8000080fa00000006000000fa00c9
:102dc0000682a80006a2a9000080fa000000060002
:102dd0000000fa0000000000411080000000240004
:102de000008060000000e000fbff3a000080fa0075
:102df000000006000000fa00000000004110800002
:102e000000002800008060000000e000fbff3200ae
:102e10000080fa00000006000000fa000682a80008
:102e200006a2a8000080fa00000006000200fa00d6
:102e3000004f78001e00fb0010108800000000000a
:102e400040108000610060000000e000fcff3a00dc
:102e50000080fa00000006000000fa000662a800e8
:102e600000108000004078000080fa00000006009a
:102e70000400fa00004f780011479800224798009c
:102e8000b8ff07001e80fb000000400000407800f3
:102e9000e6ff0700ceff0700d6ff07001e409000a8
:102ea000e2ff0700caff0700d2ff07002e40900094
:102eb000deff0700c6ff0700ceff0700b2ff0700d6
:082ec0000080fa00000006008a
:020000040000fa
:102ec80000080000220000000000000022080000a6
:102ed8001400000002000000afae4e0041000000e8
:102ee800803f0000004040000ad723003ccdcc00c2
:102ef800cc3d000042080000000400000000000073
:102f08003608000006000000000000003c08000031
:102f1800040000000200000001027a000000000026
:102f2800400800000200000000000000000000004f
:020000040000fa
:102f38000000fa002023a8009004200001002000cf
:102f4800120007002023a9000000000000198000db
:102f5800610060000000e000fcff32000018800003
:102f68004200de000040880001408000f03f200061
:102f780000806000004088000080fa000000060021
:0c2f88000000fa000080fa0000000600c3
:020000040000fa
:102f9400f03fb1000180b10006003500ee030900e6
:102fa40000000000403fb1000180b100fbff3d0084
:102fb4001000b000203fb00002003500008009007e
:082fc4000000000000000600ff
:020000040000fa
:0200000401f009
:04000c008000000070
:020000040000fa
:0200000401f009
:040014005f00000089
:020000040000fa
:0200000401f009
:04001c00ddff000004
:00000001FF
