:020000040000fa
:080000000002040000000000f2
:020000040000fa
:0400080008030000e9
:020000040000fa
:04000c0008030000e5
:020000040000fa
:0400100008030000e1
:020000040000fa
:0400140008030000dd
:020000040000fa
:0400180008030000d9
:020000040000fa
:04001c0008030000d5
:020000040000fa
:0400200008030000d1
:020000040000fa
:0400240008030000cd
:020000040000fa
:04002800c80200000a
:020000040000fa
:04002c0008030000c5
:020000040000fa
:0400300008030000c1
:020000040000fa
:04003400f2020000d4
:020000040000fa
:0400380008030000b9
:020000040000fa
:04003c0008030000b5
:020000040000fa
:0400400008030000b1
:020000040000fa
:0400440008030000ad
:020000040000fa
:0400480008030000a9
:020000040000fa
:04004c0008030000a5
:020000040000fa
:0400500008030000a1
:020000040000fa
:04005400080300009d
:020000040000fa
:040058000803000099
:020000040000fa
:04005c000803000095
:020000040000fa
:040060000803000091
:020000040000fa
:04006400080300008d
:020000040000fa
:040068000803000089
:020000040000fa
:04006c000803000085
:020000040000fa
:040070000803000081
:020000040000fa
:04007400080300007d
:020000040000fa
:040078000803000079
:020000040000fa
:04007c000803000075
:020000040000fa
:040080000803000071
:020000040000fa
:04008400080300006d
:020000040000fa
:040088000803000069
:020000040000fa
:04008c000803000065
:020000040000fa
:040090000803000061
:020000040000fa
:04009400080300005d
:020000040000fa
:040098000803000059
:020000040000fa
:04009c000803000055
:020000040000fa
:0400a0000803000051
:020000040000fa
:0400a400080300004d
:020000040000fa
:0400a8000803000049
:020000040000fa
:0400ac000803000045
:020000040000fa
:0400b0000803000041
:020000040000fa
:0400b400080300003d
:020000040000fa
:0400b8000803000039
:020000040000fa
:0400bc000803000035
:020000040000fa
:0400c0000803000031
:020000040000fa
:0400c400080300002d
:020000040000fa
:0400c8000803000029
:020000040000fa
:0400cc000803000025
:020000040000fa
:0400d0000803000021
:020000040000fa
:0400d400080300001d
:020000040000fa
:0400d8000803000019
:020000040000fa
:0400dc000803000015
:020000040000fa
:0400e0000803000011
:020000040000fa
:0400e400080300000d
:020000040000fa
:0400e8000803000009
:020000040000fa
:0400ec000803000005
:020000040000fa
:0400f0000803000001
:020000040000fa
:0400f40008030000fd
:020000040000fa
:0400f80008030000f9
:020000040000fa
:0400fc0008030000f5
:020000040000fa
:0401000008030000f0
:020000040000fa
:0401040008030000ec
:020000040000fa
:0401080008030000e8
:020000040000fa
:04010c0008030000e4
:020000040000fa
:0401100008030000e0
:020000040000fa
:0401140008030000dc
:020000040000fa
:0401180008030000d8
:020000040000fa
:04011c0008030000d4
:020000040000fa
:0401200008030000d0
:020000040000fa
:0401240008030000cc
:020000040000fa
:0401280008030000c8
:020000040000fa
:04012c0008030000c4
:020000040000fa
:0401300008030000c0
:020000040000fa
:0401340008030000bc
:020000040000fa
:0401380008030000b8
:020000040000fa
:04013c0008030000b4
:020000040000fa
:0401400008030000b0
:020000040000fa
:0401440008030000ac
:020000040000fa
:0401480008030000a8
:020000040000fa
:04014c0008030000a4
:020000040000fa
:0401500008030000a0
:020000040000fa
:04015400080300009c
:020000040000fa
:040158000803000098
:020000040000fa
:04015c000803000094
:020000040000fa
:040160000803000090
:020000040000fa
:04016400080300008c
:020000040000fa
:0402080008030000e7
:020000040000fa
:04020c0008030000e3
:020000040000fa
:0402100008030000df
:020000040000fa
:0402140008030000db
:020000040000fa
:0402180008030000d7
:020000040000fa
:04021c0008030000d3
:020000040000fa
:0402200008030000cf
:020000040000fa
:0402240008030000cb
:020000040000fa
:04022800c802000008
:020000040000fa
:04022c0008030000c3
:020000040000fa
:0402300008030000bf
:020000040000fa
:04023400f2020000d2
:020000040000fa
:0402380008030000b7
:020000040000fa
:04023c0008030000b3
:020000040000fa
:0402400008030000af
:020000040000fa
:0402440008030000ab
:020000040000fa
:0402480008030000a7
:020000040000fa
:04024c0008030000a3
:020000040000fa
:04025000080300009f
:020000040000fa
:04025400080300009b
:020000040000fa
:040258000803000097
:020000040000fa
:04025c000803000093
:020000040000fa
:04026000080300008f
:020000040000fa
:04026400080300008b
:020000040000fa
:040268000803000087
:020000040000fa
:04026c000803000083
:020000040000fa
:04027000080300007f
:020000040000fa
:04027400080300007b
:020000040000fa
:040278000803000077
:020000040000fa
:04027c000803000073
:020000040000fa
:04028000080300006f
:020000040000fa
:04028400080300006b
:020000040000fa
:040288000803000067
:020000040000fa
:04028c000803000063
:020000040000fa
:04029000080300005f
:020000040000fa
:04029400080300005b
:020000040000fa
:040298000803000057
:020000040000fa
:04029c000803000053
:020000040000fa
:0402a000080300004f
:020000040000fa
:0402a400080300004b
:020000040000fa
:0402a8000803000047
:020000040000fa
:0402ac000803000043
:020000040000fa
:0402b000080300003f
:020000040000fa
:0402b400080300003b
:020000040000fa
:0402b8000803000037
:020000040000fa
:0402bc000803000033
:020000040000fa
:0402c000080300002f
:020000040000fa
:0402c400080300002b
:020000040000fa
:0402c8000803000027
:020000040000fa
:0402cc000803000023
:020000040000fa
:0402d000080300001f
:020000040000fa
:0402d400080300001b
:020000040000fa
:0402d8000803000017
:020000040000fa
:0402dc000803000013
:020000040000fa
:0402e000080300000f
:020000040000fa
:0402e400080300000b
:020000040000fa
:0402e8000803000007
:020000040000fa
:0402ec000803000003
:020000040000fa
:0402f00008030000ff
:020000040000fa
:0402f40008030000fb
:020000040000fa
:0402f80008030000f7
:020000040000fa
:0402fc0008030000f3
:020000040000fa
:0403000008030000ee
:020000040000fa
:0403040008030000ea
:020000040000fa
:0403080008030000e6
:020000040000fa
:04030c0008030000e2
:020000040000fa
:0403100008030000de
:020000040000fa
:0403140008030000da
:020000040000fa
:0403180008030000d6
:020000040000fa
:04031c0008030000d2
:020000040000fa
:0403200008030000ce
:020000040000fa
:0403240008030000ca
:020000040000fa
:0403280008030000c6
:020000040000fa
:04032c0008030000c2
:020000040000fa
:0403300008030000be
:020000040000fa
:0403340008030000ba
:020000040000fa
:0403380008030000b6
:020000040000fa
:04033c0008030000b2
:020000040000fa
:0403400008030000ae
:020000040000fa
:0403440008030000aa
:020000040000fa
:0403480008030000a6
:020000040000fa
:04034c0008030000a2
:020000040000fa
:04035000080300009e
:020000040000fa
:04035400080300009a
:020000040000fa
:040358000803000096
:020000040000fa
:04035c000803000092
:020000040000fa
:04036000080300008e
:020000040000fa
:04036400080300008a
:020000040000fa
:100400004fc120000e7f24000e0188000000000074
:10041000000020000000e000020032000001200087
:1004200020028800140007007b0007000000e000a5
:1004300003003a006046220001002000020037005d
:100440000000200001002000810f70000100320038
:1004500014000700000020000000e000020032004d
:100460000000020000000000fc2702000000000065
:100470000040da000000fe004440a90000432100d3
:100480000000e0000300320000002000a00188000e
:100490004440a800000006008a1f78008b1f7800e7
:1004a0000000060091018800800478000000eb0045
:1004b0001a003700e284440032a0b4009905ba0063
:1004c000e284440032a0b4009906ba00e2844400f9
:1004d00032a0b4000006eb00476fde00fd07b2005b
:1004e000636ce10003003a00ebff07000000eb0043
:1004f0000a003700606ce10004003a00005deb0088
:100500008b05e900fdff3e00040037006168e10053
:10051000010032000086eb000b00070019c7ba008b
:100520001905ba000e04e00003003a000a00e000da
:10053000e0ff3a0000000600fe07b2009e018800be
:100540008a047800f5ff3700395dba008b05e900b1
:100550000c003200295dba008b05e900080032006a
:100560000c00e00003003a00e284440032a0b40032
:10057000f5ff370019ddba008b05e900faff3a00f4
:100580008904e800e184440032a0b40000000600c1
:10059000801f78003400f80000002000a0018800cf
:1005a0000000fa008400a900304080000000e00054
:1005b00003003200e10f5000040032000500370054
:1005c0001000200030408800020037000628ef00ad
:1005d000000000000080fa003400f9004f007800ad
:1005e000004006003400f800881f78000800200052
:1005f000a80188004f0478000000fa00e421ef0011
:100600008460a9000080fa003400f9000040060070
:100610000040da000000fe00000005000001be00fe
:10062000220007000470a70003f0a1006509b100d3
:10063000160032000d0035006828e1000600350084
:10064000f0ff2f00f1ff27000300e00013003b0044
:1006500001002800000005000000400081804800e3
:100660008502e900fcff3a0008003700f88f4200dd
:1006700002003c008000eb00000005008100d1007a
:100680000080d3008502e800fcff3a000300e00090
:1006900002003b0060001000e0801800000006002f
:1006a0004f89de008201780017013700c70ade009b
:1006b000f107b200f50fb20008003200e1cf4200ae
:1006c000020032000170a00024000500810f7000bc
:1006d000010032000408050044000500810f70008d
:1006e00002003a00140005008502e9000000400005
:1006f00081c04800fcff3b000170a0002400050001
:10070000038368000700280007036300470ade0030
:100710000480a100c71ade000580a100f70f2000a9
:100720000720e100420032000728e10040003200cb
:10073000889fbe008a9fbe008c1f7800f107b20020
:10074000f307b2000400e000640032000170a00072
:100750000500e000680032000370a000850542003b
:10076000eb07b1000204b8000302b800848444001f
:1007700060854a00020ab800848444000a854a0061
:10078000030ab80004054500040033000804d00043
:100790008984d2000a85d2008b05e9006158e10006
:1007a0003d0035000210200009016100030820000f
:1007b00089816100f7072000878364000886730041
:1007c000c84cde00c853dd00878474004855de0045
:1007d0000300e000060032008203760004003200cd
:1007e0008904e80060054d000a88a3000c003a0067
:1007f000f70f20000758e10044003d000a70a100f7
:10080000c75ddd000a8575008a0073000900780065
:100810004f0678004f05be004f04be0000000600e2
:100820000a05d1008984d3008b05e800f0ff37006a
:10083000881f7800060478009000070007027800ff
:100840000001fd008101fd008c0007008702780097
:10085000850372000778a300050032000001fd0047
:100860008101fd009f0007004f0478000000060092
:10087000850372000748a30003003200f0ff2f0039
:10088000f1ff2700f8ff37000000200001f82700e3
:1008900088807000f4ff3700880178004848dd0048
:1008a000808171004848de00c850dd000100700002
:1008b000c850de00060478000b017800160007001f
:1008c00088807000d2ff37000500e000050032008c
:1008d000170020003a0007009dff370081037000d9
:1008e000f9ff3a00860078004f0678004f05be00f9
:1008f0004f04be000000050083037100f9ff3200c1
:10090000270020002e00070094ff370001f8270081
:1009100086807000f4ff37000100e00026003200fe
:10092000610111007810e10023003c006022b80052
:100930007010e100040035008002780001007800aa
:100940008000eb00700151000200e000090034005b
:1009500070031100062add00822ade008603dd0016
:10096000878272000200de00860bdd000700700047
:100970008208de0084817100f4ff27000482620097
:10098000848171000400280084826200610260009a
:1009900005f0a60000000600048271000700320086
:1009a0000000e800e0804800000006000002be00f1
:1009b0006000b800efff37006000b80000000600dc
:1009c000889fbe000004eb006138e10016003a0089
:1009d0000100e00008003a00c800de004800dd0029
:1009e000880020000100e00003003a00c800de009b
:1009f0004800dd00680444008184cf00e98454008d
:100a0000060034008908dd00f08314008703de004f
:100a1000878070000900dd000904440061021400b1
:100a20004f04be00000006000300e00008003a008a
:100a3000c811de004811dd00880020000300e0003e
:100a400003003a00c811de004811dd0068044400cc
:100a50008384cf00e9845400060034008919dd0046
:100a6000f08314008713de00878171000911dd0017
:100a700009044400e1021400e9ff370027002000c8
:100a800001f0a70017002000470bde00f60fb200b0
:100a9000040032000643e8000a0032004702b300b7
:100aa0000000060001037800f607b200060370009c
:100ab00002003a000703b300000006008702b300fb
:100ac0000000060001037800f607b200060370007c
:100ad000020032000770a000000006000760a000be
:100ae000000006000478a300040032000578a3008b
:100af000030032000168a30001003a000200be00ba
:100b00000160a00000000600881f78000304780040
:100b10000300e00007003d0060001000e0801800c6
:100b200060011900e081190002003b0001f02d0076
:100b3000030037000400070008f0a70001f0a00040
:100b40004f04780000000600889fbe008a9fbe0008
:100b500000827000040271000482710026003200dd
:100b60000004be000200be006011b8006b09200046
:100b7000950220000182cf000a0039000541b10032
:100b80000082cf00070039000541b1000982cf0083
:100b9000040039000541b1000882cf00010039008e
:100ba0000541b10005425200120032000a003b002c
:100bb00082817100610164008100d1000080d30056
:100bc0008984d3000884d3008b05e8000442e80040
:100bd000f7ff3a00070037000804440089844c00fe
:100be00000004800818048008b05e9000442e900cc
:100bf000f9ff3a00030007004f05be004f04be0096
:100c00000000060081002000618055000b003d00bf
:100c10000b00200061fe2f000100e1001d003400e8
:100c200082817100610164008904d1000884d300cd
:100c30000000e800faff3a00710020006100640043
:100c400003007000020060000900320061044400eb
:100c5000e0844c000988a500050032008b05e800ff
:100c60006808e10002003a008904d1000884d3003a
:100c7000f20f20000258e10005003d00c75ddd00d5
:100c8000f907b200898075000800780000000600ae
:100c90000bf827008b00780000000500889fbe003d
:100ca0008a9fbe00800478000200e0005b003200f2
:100cb00001407800814c780082814400f1f99f0066
:100cc000e20f51005500360091449800a14498006d
:100cd000e1f99f00d1f99f00e60f51004f00360067
:100ce000b1449800c1f99f00e80f51004b00360055
:100cf0000905ea00630565000a8444000a055100fd
:100d0000c1ff2f00010565000080fb008000eb00a3
:100d100012102000131020005c000700008cbe00a1
:100d20000a01440060b99f0071b99f00e80f5500a7
:100d30003a003600200498003104980040049800de
:100d40005104980020b99f0031b99f0040b99f001d
:100d500051b99f00f80f550030003600600498002c
:100d600071049800000c9800110c9800200c980059
:100d7000310c9800400c9800510c980020b19f0055
:100d800031b19f0040b19f0051b19f0060b19f0001
:100d900071b19f0000b99f0011b99f006401640008
:100da0007801410002044400020555006011b800ba
:100db0000203be000002be000403be006022b800b1
:100dc0000000720081807200020173008381730051
:100dd00010003700009cbe000294be004004980042
:100de000510498006204980073049800000c980065
:100df000110c9800220c9800330c9800400c9800bd
:100e0000510c9800620c9800730c98000a02b10013
:100e10000802b000ff0f5500eeff3e000900780009
:100e20004f05be004f04be000000060080007800a1
:100e3000040037003104e00002003a0000005100d5
:100e400000000600010178000108a300f9ff3a0044
:100e50008101780031017800f4ef2f000202420096
:100e60000281ea0002016200040828000401610016
:100e7000f7ff320083007800010178003104e000c0
:100e8000fdff3a000000510000000600020ab90010
:100e9000001bb9000200b80081004200810043003d
:040ea0000000060048
:020000040000fa
:100ea40006080000205f00000000000000000000b1
:100eb4000000000000000000002f000000000000ff
:100ec40000000000070000000700000000140000fc
:100ed4007f1400007f140000002400002a7f00001b
:100ee4002a120000002300001308000064620000be
:100ef40000360000495500002250000000000000a8
:100f04000503000000000000000000001c22000097
:100f14004100000000000000412200001c0000000d
:100f240000140000083e000008140000000800003f
:100f3400083e0000080800000000000000a00000b7
:100f44006000000000080000080800000808000015
:100f540000000000606000000000000000200000ad
:100f64001008000004020000003e00005149000087
:100f7400453e000000000000427f000040000000e9
:100f840000420000615100004946000000210000b9
:100f9400414500004b31000000180000141200000d
:100fa4007f1000000027000045450000453900007f
:100fb400003c00004a4900004930000000010000e4
:100fc40071090000050300000036000049490000d3
:100fd400493600000006000049490000291e0000af
:100fe4000000000036360000000000000000000091
:100ff4005636000000000000000800001422000023
:101004004100000000140000141400001414000037
:10101400000000004122000014080000000200004b
:101024000151000009060000003200004959000087
:10103400513e0000007c000012110000127c0000f0
:10104400007f00004949000049360000003e0000ce
:101054004141000041220000007f000041410000a6
:10106400221c0000007f00004949000049410000a3
:10107400007f00000909000009010000003e000093
:1010840041490000497a0000007f00000808000080
:10109400087f000000000000417f000041000000c4
:1010a40000200000404100003f010000007f0000dc
:1010b4000814000022410000007f000040400000ae
:1010c40040400000007f0000020c0000027f00008e
:1010d400007f000004080000107f0000003e0000b4
:1010e40041410000413e0000007f0000090900006a
:1010f40009060000003e000041510000215e00008e
:10110400007f000009190000294600000046000085
:10111400494900004931000000010000017f00003e
:1011240001010000003f000040400000403f00007b
:10113400001f000020400000201f0000003f0000ae
:1011440040380000403f0000006300001408000025
:101154001463000000070000087000000807000086
:1011640000610000514900004543000000000000f8
:101174007f41000041000000005500002a55000096
:101184002a55000000000000414100007f000000db
:1011940000040000020100000204000000400000fe
:1011a4004040000040400000000000000102000038
:1011b4000400000000200000545400005478000093
:1011c400007f00004844000044380000003800005c
:1011d400444400004420000000380000444400005f
:1011e400487f0000003800005454000054180000e8
:1011f400000800007e090000010200000018000041
:10120400a4a40000a47c0000007f000008040000e7
:101214000478000000000000447d0000400000004d
:1012240000400000808400007d000000007f00007a
:10123400102800004400000000000000417f00006e
:1012440040000000007c0000041800000478000046
:10125400007c00000804000004780000003800004e
:10126400444400004438000000fc00002424000032
:1012740024180000001800002424000018fc0000ba
:10128400007c00000804000004080000004800007e
:101294005454000054200000000400003f440000a7
:1012a40040200000003c000040400000207c000082
:1012b400001c000020400000201c0000003c000036
:1012c40040300000403c00000044000028100000b2
:1012d40028440000001c0000a0a00000a07c000026
:1012e40000440000645400004c440000000000006e
:1012f400087700000000000000000000007f0000ec
:10130400000000000000000077080000000000005a
:101314000010000008100000080000001414000071
:101324001414000014140000000800001020000031
:101334005f0000000000000000000000000000004a
:101344000000000000000000000000000000000099
:101354000000000000000000f80000000000000091
:101364000000000000000000333000000000000016
:1013740000000000100c0000061000000c06000025
:101384000000000000000000000000000000000059
:1013940000400000c078000040c000007840000019
:1013a400000400003f040000043f000004040000a7
:1013b4000000000070880000fc08000030000000fd
:1013c4000000000018200000ff2100001e000000a3
:1013d40000f0000008f0000000e000001800000029
:1013e40000000000211c0000031e0000211e00005c
:1013f40000000000f00800008870000000000000f9
:10140400001e0000212300002419000027210000f1
:1014140010100000160e0000000000000000000084
:1014240000000000000000000000000000000000b8
:101434000000000000000000e018000004020000aa
:101444000000000000000000071800002040000019
:10145400000000000204000018e00000000000008a
:1014640000000000402000001807000000000000f9
:101474000040000040800000f08000004040000078
:1014840000020000020100000f010000020200003f
:101494000000000000000000f00000000000000058
:1014a40000010000010100001f0100000101000013
:1014b4000000000000000000000000000000000028
:1014c40000800000b0700000000000000000000078
:1014d4000000000000000000000000000000000008
:1014e40000000000010100000101000001010000f2
:1014f40001000000000000000000000000000000e7
:101504000000000030300000000000000000000077
:1015140000000000000000000080000060180000cf
:101524000400000060180000060100000000000034
:1015340000000000e01000000808000010e00000b7
:10154400000000000f10000020200000100f000019
:101554000000000010100000f8000000000000006f
:1015640000000000202000003f20000020000000b8
:1015740000000000700800000808000088700000e7
:101584000000000030280000242200002130000068
:101594000000000030080000888800004830000087
:1015a400000000001820000020200000110e0000a0
:1015b4000000000000c0000020100000f80000003f
:1015c4000000000007040000242400003f24000061
:1015d40000000000f80800008888000008080000e7
:1015e400000000001921000020200000110e00005e
:1015f40000000000e01000008888000018000000cf
:10160400000000000f11000020200000110e000057
:10161400000000003808000008c800003808000076
:1016240000000000000000003f0000000000000077
:1016340000000000708800000808000088700000a6
:10164400000000001c22000021210000221c0000d8
:1016540000000000e01000000808000010e0000096
:10166400000000000031000022220000110f0000e1
:101674000000000000000000c0c0000000000000e6
:1016840000000000000000003030000000000000f6
:1016940000000000000000008000000000000000c6
:1016a4000000000000800000600000000000000056
:1016b400000000000080000040200000100800002e
:1016c40000000000010200000408000010200000d7
:1016d4000040000040400000404000004040000046
:1016e40000040000040400000404000004040000da
:1016f40000000000081000002040000080000000ee
:101704000000000020100000080400000201000096
:1017140000000000704800000808000008f0000005
:10172400000000000000000030360000010000004e
:1017340000c0000030c8000028e8000010e00000ed
:10174400000700001827000024230000140b0000e9
:101754000000000000c0000038e0000000000000ad
:10176400002000003c230000020200002738000093
:1017740020080000f888000088880000700000003d
:10178400002000003f20000020200000110e000077
:1017940000c00000300800000808000008380000fd
:1017a400000700001820000020200000100800009e
:1017b40000080000f80800000808000010e000001d
:1017c400002000003f20000020200000100f000037
:1017d40000080000f888000088e8000008100000f5
:1017e400002000003f2000002023000020180000fb
:1017f40000080000f888000088e8000008100000d5
:10180400002000003f200000000300000000000052
:1018140000c0000030080000080800003800000084
:101824000007000018200000202200001e02000013
:1018340000080000f80800000000000008f800009c
:10184400082000003f21000001010000213f0000aa
:101854002000000008080000f8080000080000004c
:1018640000000000202000003f20000020000000b5
:10187400000000000008000008f80000080800004c
:1018840000c0000080800000807f00000000000095
:1018940000080000f8880000c028000018080000b4
:1018a400002000003f200000012600003820000036
:1018b40000080000f808000000000000000000001c
:1018c400002000003f200000202000002030000005
:1018d40000080000f8f8000000f80000f808000014
:1018e400002000003f0000003f0000003f200000f7
:1018f40000080000f8300000c000000008f80000f4
:10190400082000003f20000000070000183f0000ee
:1019140000e00000100800000808000010e00000cb
:10192400000f00001020000020200000100f000015
:1019340000080000f80800000808000008f0000093
:10194400002000003f210000010100000100000010
:1019540000e00000100800000808000010e000008b
:10196400000f00001824000024380000504f00002d
:1019740000080000f88800008888000088700000d3
:10198400002000003f200000000300000c30000095
:1019940020000000708800000808000008380000db
:1019a400000000003820000021210000221c00005b
:1019b4000018000008080000f808000008180000db
:1019c40000000000002000003f2000000000000094
:1019d40000080000f80800000000000008f80000fb
:1019e400080000001f20000020200000201f00002d
:1019f400000800007888000000000000c8380000db
:101a04000800000000070000380e0000010000007c
:101a140000f8000008000000f800000008f80000ca
:101a2400000300003c070000000700003c03000026
:101a3400000800001868000080800000681800009a
:101a440008200000302c0000030300002c300000ac
:101a54002008000038c8000000c800003808000052
:101a640000000000002000003f20000000000000f3
:101a7400001000000808000008c800003808000032
:101a8400002000003826000021200000201800005b
:101a94000000000000000000fe020000020200003e
:101aa40000000000000000007f40000040400000f3
:101ab400000000000c300000c00000000000000026
:101ac40000000000000000000106000038c0000013
:101ad400000000000202000002fe000000000000fe
:101ae4000000000040400000407f000000000000b3
:101af40000000000000400000202000002040000d4
:101b040000000000000000000000000000000000d1
:101b140000000000000000000000000000000000c1
:101b24000080000080800000808000008080000031
:101b34008000000002020000040000000000000019
:101b44000000000000000000000000000000000091
:101b54000000000000800000808000008000000081
:101b6400000000001924000022220000223f00008f
:101b740020080000f8000000808000000000000041
:101b8400000000003f11000020200000110e0000a2
:101b940000000000000000008080000080000000c1
:101ba400000000000e1100002020000020110000a1
:101bb40000000000000000008080000088f80000a1
:101bc400000000000e11000020200000103f000063
:101bd40020000000008000008080000080000000e1
:101be400000000001f220000222200002213000037
:101bf4000000000080800000f08800008888000059
:101c040018000000202000003f20000020000000f9
:101c14000000000000800000808000008080000040
:101c2400000000006b940000949400009360000096
:101c340000080000f8000000808000008000000020
:101c4400002000003f21000000000000203f0000b1
:101c540020000000809800009800000000000000b0
:101c640000000000202000003f20000020000000b1
:101c740000000000000000008098000098000000b0
:101c840000000000c0800000808000007f00000091
:101c940000080000f80000000080000080800000c0
:101ca400002000003f240000022d0000302000002e
:101cb4000000000008080000f80000000000000018
:101cc40000000000202000003f2000002000000051
:101cd4000080000080800000808000008080000080
:101ce400002000003f200000003f00002000000012
:101cf4003f80000080000000808000008000000021
:101d0400002000003f21000000000000203f0000f0
:101d1400200000000080000080800000800000009f
:101d2400000000001f20000020200000201f0000f1
:101d3400008000008000000080800000000000009f
:101d440000800000ffa1000020200000110e000010
:101d5400000000000000000080800000808000007f
:101d6400000000000e11000020200000a0ff000071
:101d740080800000808000000080000080800000df
:101d840000200000203f000021200000000100008e
:101d940000000000008000008080000080800000bf
:101da4000000000033240000242400002419000053
:101db4000000000080800000e0800000800000003f
:101dc40000000000000000001f20000020000000b0
:101dd40000800000800000000000000080800000ff
:101de400000000001f20000020200000103f000021
:101df400208000008080000000000000808000003f
:101e040080000000010e0000300800000601000000
:101e1400008000008000000080000000808000003e
:101e2400800f0000300c0000030c0000300f000095
:101e3400000000008080000000800000808000001e
:101e440000000000203100002e0e000031200000b0
:101e540000800000808000000000000080800000fe
:101e640080800000818e00007018000006010000d0
:101e7400000000008080000080800000808000005e
:101e840000000000213000002c220000213000005e
:101e94000000000000000000008000007c02000040
:101ea4000200000000000000000000003f400000ad
:101eb400400000000000000000ff000000000000df
:101ec400000000000000000000ff0000000000000f
:101ed40000000000020200007c80000000000000fe
:101ee40000000000404000003f000000000000002f
:101ef40000000000060100000102000002040000ce
:101f040004000000000000000000000000000000c9
:101f140000100000102000005f000000000000001e
:101f240000000000000000000000000000000000ad
:101f3400000000000000000000000000000000009d
:101f4400000000000000000000000000000000008d
:101f5400000000000000000000000000000000007d
:101f640000f80000fcfc0000fcf800000000000089
:101f7400000000000000000000000000000000005d
:101f840000000000737300007300000000000000f4
:101f9400000000000000000000000000000000003d
:101fa400001e00003e3e000000000000003e000055
:101fb4003e1e0000000000000000000000000000c1
:101fc400000000000000000000000000000000000d
:101fd400000000000000000000000000303000009d
:101fe40030fe0000fe3000003030000030fe000003
:101ff400fe30000030300000000000000c0c000037
:102004000c7f00007f0c00000c0c00000c7f000013
:102014007f0c00000c0c0000000000000000000019
:10202400f0f8000098fe000098980000fe98000068
:1020340098180000000000000000000000000000ec
:1020440018190000197f0000191900007f190000f9
:102054001f0f00000000000000000000000000004e
:10206400003800003838000080c00000e070000034
:102074003800000000000000000000000000000024
:10208400001c00000e070000030100001c1c0000df
:102094001c00000000000000000000000000000020
:1020a40038fc0000c4c40000fc380000000000003c
:1020b400008000000000000000000000000000009c
:1020c4001e3f000021210000333f00001e1e0000bf
:1020d40037230000000000000000000000000000a2
:1020e400002000003c3c00001c0000000000000038
:1020f40000000000000000000000000000000000dc
:1021040000000000000000000000000000000000cb
:1021140000000000000000000000000000000000bb
:1021240000c00000e0f00000381c00000c040000b7
:102134000400000000000000000000000000000097
:1021440000030000070f00001c38000030200000ce
:10215400200000000000000000000000000000005b
:1021640000040000040c00001c380000f0e0000033
:10217400c00000000000000000000000000000009b
:102184000020000020300000381c00000f07000071
:1021940003000000000000000000000000800000b8
:1021a40088900000e0e00000fcfc0000e0e000009b
:1021b4009088000080000000000000000001000082
:1021c40011090000070700003f3f00000707000057
:1021d40009110000010000000000000000000000e0
:1021e4000080000080800000f0f00000808000008b
:1021f400800000000000000000000000000000005b
:1022040000010000010100000f0f000001010000a7
:1022140001000000000000000000000000000000b9
:1022240000000000000000000000000000000000aa
:10223400000000000000000000000000000000009a
:102244000040000078780000380000000000000022
:10225400000000000000000000000000000000007a
:10226400808000008080000080800000808000006a
:10227400808000000000000000000000000000005a
:102284000101000001010000010100000101000042
:102294000101000000000000000000000000000038
:1022a400000000000000000000000000000000002a
:1022b400000000000000000000000000000000001a
:1022c4000000000038380000380000000000000062
:1022d40000000000000000000000000000000000fa
:1022e40000000000000000000000000080c00000aa
:1022f400e0700000381c0000000000000000000036
:1023040020300000381c00000e070000030100000c
:1023140000000000000000000000000000000000b9
:10232400f8fc0000fc04000084e4000074fc0000dd
:10233400fcf80000000000000000000000000000a5
:102344001f3f00003f2e000027210000203f000017
:102354003f1f00000000000000000000000000001b
:102364006060000060f00000fcfc00000000000061
:102374000000000000000000000000000000000059
:1023840020200000203f00003f3f000020200000ec
:102394002000000000000000000000000000000019
:1023a400181c00001c04000004840000ccfc000085
:1023b4007830000000000000000000000000000071
:1023c400303800003c2e0000272300002138000094
:1023d4003838000000000000000000000000000089
:1023e400181c00001c84000084840000cc7c0000c5
:1023f4007830000000000000000000000000000031
:10240400183800003821000021210000333e00006c
:102414001e0c00000000000000000000000000008e
:1024240080c000006030000018fc0000fcfc0000cc
:102434000000000000000000000000000000000098
:102444000303000003230000233f00003f3f00007c
:102454002323000000000000000000000000000032
:10246400fcfc0000fc8400008484000084840000e0
:102474000404000000000000000000000000000050
:10248400193900003921000021210000333f0000e8
:102494001f0e00000000000000000000000000000b
:1024a400e0f00000f89c00008c84000084840000ac
:1024b4008000000000000000000000000000000098
:1024c4001f3f00003f21000021210000213f0000a8
:1024d4003f1f00000000000000000000000000009a
:1024e4003c3c00003c0400000404000004840000a0
:1024f400fcfc00007c000000000000000000000064
:1025040000000000003800003c3e0000070300000b
:1025140001000000000000000000000000000000b6
:10252400787c0000fcc40000c484000084fc00002b
:102534007c780000000000000000000000000000a3
:102544001e3e00003f21000021230000233f000025
:102554003e1e00000000000000000000000000001b
:10256400f8fc0000fc8400008484000084fc00006b
:10257400fcf8000000000000000000000000000063
:10258400000100002121000021310000391f00005a
:102594000f07000000000000000000000000000021
:1025a40000000000007000007070000000000000d7
:1025b4000000000000000000000000000000000017
:1025c40000000000000e00000e0e000000000000dd
:1025d40000000000000000000000000000000000f7
:1025e4000000000000700000707000000000000097
:1025f40000000000000000000000000000000000d7
:1026040000000000101e00001e0e0000000000006c
:1026140000000000000000000000000000000000b6
:1026240080c00000e0700000381c00000e060000ae
:102634000200000000000000000000000000000094
:1026440001030000070e00001c3800007060000049
:1026540040000000000000000000000000600000d6
:102664006060000060600000606000006060000066
:102674006060000060000000000000000006000030
:102684000606000006060000060600000606000016
:102694000606000006000000000000000000000024
:1026a400020600000e1c000038700000e0c00000ac
:1026b4008000000000000000000000000000000096
:1026c40040600000703800001c0e0000070300008a
:1026d40001000000000000000000000000000000f5
:1026e400181c00000c0e000006860000cefc000042
:1026f4007c38000000000000000000000000000022
:10270400000000000000000073730000730000006c
:1027140000000000000000000000000000000000b5
:10272400fcfe0000fe02000002c20000c2c2000063
:10273400fefe0000fc00000000000000000000009d
:102744003f3f00007f60000060630000636300009f
:1027540063430000030000000000000000000000cc
:10276400e0f00000f81c00000c0c00001cf8000055
:10277400f0e0000000000000000000000000000085
:102784003f3f00003f02000002020000023f000041
:102794003f3f0000000000000000000000000000b7
:1027a40004fc0000fcfc00008484000084fc0000a5
:1027b400fc780000000000000000000000000000a1
:1027c400203f00003f3f000021210000213f000086
:1027d4003f1e000000000000000000000000000098
:1027e400f0f80000fc0c000004040000041c0000cd
:1027f4001c180000000000000000000000000000a1
:102804000f1f00003f30000020200000203800008f
:102814003818000000000000000000000000000064
:1028240004fc0000fcfc0000040400000cfc00009c
:10283400f8f00000000000000000000000000000ac
:10284400203f00003f3f000020200000303f0000f8
:102854001f0f000000000000000000000000000046
:1028640004fc0000fcfc00008484000084c400001c
:10287400cc1c00000000000000000000000000006c
:10288400203f00003f3f00002121000021230000e1
:1028940033380000000000000000000000000000c9
:1028a40004fc0000fcfc00008484000084c40000dc
:1028b400cc1c00000000000000000000000000002c
:1028c400203f00003f3f0000210100000103000001
:1028d40003000000000000000000000000000000f1
:1028e400f0f80000fc0c000004040000043c0000ac
:1028f4003c38000000000000000000000000000060
:102904000f1f00003f30000020220000223e000084
:102914003e3e000000000000000000000000000037
:10292400fcfc0000fc80000080800000fcfc000037
:10293400fc00000000000000000000000000000097
:102944003f3f00003f010000010100003f3f000045
:102954003f00000000000000000000000000000034
:102964000004000004fc0000fcfc0000040400005f
:102974000000000000000000000000000000000053
:1029840000200000203f00003f3f00002020000006
:102994000000000000000000000000000000000033
:1029a400000000000000000004040000fcfc000023
:1029b400fc0400000400000000000000001e0000f1
:1029c4001e3e000020200000202000003f3f0000a9
:1029d4001f000000000000000000000000000000d4
:1029e40004fc0000fcfc0000c0e00000703c00009f
:1029f4001c0c0000000000000000000000000000ab
:102a0400203f00003f3f0000030700000e3c000091
:102a1400383000000000000000000000000000004a
:102a240004fc0000fcfc00000400000000000000a6
:102a34000000000000000000000000000000000092
:102a4400203f00003f3f0000202000002030000015
:102a5400383c0000000000000000000000000000fe
:102a6400fcfc0000fc780000f0e00000f0780000be
:102a7400fcfc0000fc00000000000000000000005e
:102a84003f3f00003f000000000100000000000084
:102a94003f3f00003f000000000000000000000075
:102aa400fcfc0000fc700000e0c00000800000009e
:102ab400fcfc0000fc00000000000000000000001e
:102ac4003f3f00003f00000000010000030700003a
:102ad4003f3f00003f000000000000000000000035
:102ae400e0f00000f81c00000c0c00000c1c0000be
:102af400f8f00000e000000000000000000000000a
:102b0400070f00001f38000030300000303800008c
:102b14001f0f00000700000000000000000000007c
:102b240004fc0000fcfc00008484000084fc000021
:102b3400fc7800000000000000000000000000001d
:102b4400203f00003f3f0000210100000101000080
:102b54000100000000000000000000000000000070
:102b6400e0f80000f81c00000c0400000c1c00003d
:102b7400f8f80000e0000000000000000000000081
:102b8400071f00001f180000185c00005e7e000094
:102b94007f7f0000470000000000000000000000ec
:102ba40004fc0000fcfc00008484000084fc0000a1
:102bb400fc7800000000000000000000000000009d
:102bc400203f00003f3f000001010000033f0000e0
:102bd4003f3c000000000000000000000000000076
:102be40078fc0000fc8400008484000084bc0000a5
:102bf4003c3800000000000000000000000000005d
:102c04001c3c00003d21000021210000213f000068
:102c14003f1e000000000000000000000000000053
:102c24001c0c000004040000fcfc0000fc04000078
:102c3400040c00001c000000000000000000000064
:102c440000000000202000003f3f00003f20000063
:102c54002000000000000000000000000000000050
:102c6400fcfc0000fc00000000000000fcfc000074
:102c7400fc00000000000000000000000000000054
:102c84001f3f00003f200000202000003f3f0000c5
:102c94001f00000000000000000000000000000011
:102ca400fcfc0000fc00000000000000fcfc000034
:102cb400fc00000000000000000000000000000014
:102cc400070f00001f380000303800001f0f0000fd
:102cd40007000000000000000000000000000000e9
:102ce400fcfc0000fc00000000800000000000006c
:102cf400fcfc0000fc0000000000000000000000dc
:102d0400030f00003f3c00003c0f00003c3c00006f
:102d14003f0f00000300000000000000000000005e
:102d24001c3c00007ce00000c0e000007c3c000093
:102d34001c00000000000000000000000000000073
:102d4400383c00003e070000030700003e3c000042
:102d54003800000000000000000000000000000037
:102d64007cfc0000fc80000000800000fcfc0000f3
:102d74007c000000000000000000000000000000d3
:102d840000200000213f00003f3f00002120000000
:102d9400000000000000000000000000000000002f
:102da4003c1c00000c04000084c40000e47c00000f
:102db4003c1c0000000000000000000000000000b7
:102dc400383c00003e270000232100002030000092
:102dd400383c00000000000000000000000000007b
:102de40000000000fcfc0000fc04000004040000df
:102df40004000000000000000000000000000000cb
:102e0400000000003f3f00003f20000020200000a1
:102e1400200000000000000000000000000000008e
:102e24001c38000070e00000c080000000000000ba
:102e3400000000000000000000000000000000008e
:102e4400000000000000000001030000070e000065
:102e54001c180000302000002000000000000000ca
:102e6400000000000404000004040000fcfc000056
:102e7400fc00000000000000000000000000000052
:102e84000000000020200000202000003f3f000040
:102e94003f000000000000000000000000000000ef
:102ea40020300000381c00000e0e00001c3800000a
:102eb40030200000000000000000000000000000be
:102ec40000000000000000000000000000000000fe
:102ed40000000000000000000000000000000000ee
:102ee40000000000000000000000000000000000de
:102ef400000000000000000000000000c0c000004e
:102f0400c0c00000c0c00000c0c00000c0c00000bd
:102f1400c0c00000c0c00000c000000000000000ed
:102f24000c0c00003c3000003000000000000000e9
:102f3400000000000000000000000000000000008d
:102f4400000000000000000000000000000000007d
:102f5400000000000000000000000000000000006d
:102f6400004000004040000040400000c0c000009d
:102f740080000000000000000000000000000000cd
:102f84001c3e00003e220000222200003f1f0000e1
:102f94003f200000000000000000000000000000ce
:102fa40004fc0000fcfc00004040000040c00000a5
:102fb400c0800000000000000000000000000000cd
:102fc400203f00001f3f000020200000203f0000a1
:102fd4003f1f00000000000000000000000000008f
:102fe40080c00000c040000040400000c0c000009d
:102ff400800000000000000000000000000000004d
:103004001f3f00003f20000020200000393900004d
:103014001900000000000000000000000000000093
:1030240080c00000c040000040440000fcfc0000e0
:10303400fc0400000000000000000000000000008c
:103044001f3f00003f200000202000003f1f000021
:103054003f2000000000000000000000000000000d
:1030640080c00000c040000040400000c0c000001c
:1030740080000000000000000000000000000000cc
:103084001f3f00003f220000222200003b3b0000c3
:103094001b00000000000000000000000000000011
:1030a40080800000f8fc0000fc8400009c9c000070
:1030b40018000000000000000000000000000000f4
:1030c400212100003f3f00003f21000021010000ba
:1030d40000000000000000000000000000000000ec
:1030e40080c00000c040000040400000c0800000dc
:1030f400c0400000000000000000000000000000cc
:1031040047cf0000df98000098980000ffff000000
:103114007f0000000000000000000000000000002c
:1031240004fc0000fcfc00008040000040c00000e3
:10313400c08000000000000000000000000000004b
:10314400203f00003f3f000001000000003f00005e
:103154003f3f0000000000000000000000000000ed
:103164000040000040400000dcdc0000dc00000007
:10317400000000000000000000000000000000004b
:1031840000200000202000003f3f00003f200000fe
:1031940020200000000000000000000000000000eb
:1031a400000000000040000040400000dcdc0000a3
:1031b400dc0000000000000000000000000000002f
:1031c40020600000e080000080c00000ffff0000dd
:1031d4007f0000000000000000000000000000006c
:1031e40004fc0000fcfc00000000000080c00000a3
:1031f400c0400000000000000000000000000000cb
:10320400203f00003f3f0000020700000f3d000088
:103214003830000000000000000000000000000042
:103224000004000004040000fcfc0000fc0000009a
:10323400000000000000000000000000000000008a
:1032440000200000202000003f3f00003f2000003d
:10325400202000000000000000000000000000002a
:10326400c0c00000c040000040c00000404000005a
:10327400c0c000008000000000000000000000004a
:103284003f3f00003f000000003f0000000000003e
:103294003f3f00003f00000000000000000000006d
:1032a400c0c00000c040000040400000c0c000009a
:1032b400800000000000000000000000000000008a
:1032c4003f3f00003f000000000000003f3f0000bf
:1032d4003f000000000000000000000000000000ab
:1032e40080c00000c040000040400000c0c000009a
:1032f400800000000000000000000000000000004a
:103304001f3f00003f200000202000003f3f00003e
:103314001f0000000000000000000000000000008a
:1033240040c0000080c000004040000040c00000d9
:10333400c080000000000000000000000000000049
:1033440080ff0000ffff000090100000101f00002d
:103354001f0f0000000000000000000000800000bb
:10336400c0c000004040000040c0000080c0000019
:10337400400000000000000000000000000f0000fa
:103384001f1f00001010000090ff0000ffff00004e
:1033940080000000000000000000000000000000a9
:1033a40040c00000c0c0000080c00000c0c00000d9
:1033b400c0800000000000000000000000000000c9
:1033c400203f00003f3f00002100000000010000fa
:1033d40001010000000000000000000000000000e7
:1033e40080c00000c04000004040000040c0000019
:1033f4008000000000000000000000000000000049
:10340400193b000023260000262600003c3d000056
:10341400190000000000000000000000000000008f
:1034240040400000e0f00000f84000004040000090
:103434004000000000000000000000000000000048
:10344400000000001f3f00003f200000383800004b
:103454001800000000000000000000000000000050
:10346400c0c00000c000000000000000c0c0000098
:10347400c000000000000000000000000000000088
:103484001f3f00003f200000202000003f1f0000dd
:103494003f200000000000000000000000000000c9
:1034a400c0c00000c000000000000000c0c0000058
:1034b400c000000000000000000000000000000048
:1034c400070f00001f380000303800001f0f0000f5
:1034d40007000000000000000000000000000000e1
:1034e400c0c00000c0000000000000000000000098
:1034f400c0c00000c0000000000000000000000088
:10350400070f00003f380000380e00003838000074
:103514003f0f000007000000000000000000000052
:10352400c0c00000c000000000c00000c0c0000017
:103534000000000000000000000000000000000087
:10354400303900003f0f00000f3f00003930000009
:103554000000000000000000000000000000000067
:1035640000c00000c0c000000000000000c0000057
:10357400c0c00000000000000000000000000000c7
:10358400808700008f9f0000d8f80000783f00007b
:103594000f07000000000000000000000000000011
:1035a400c0c000004040000040c00000c0c0000097
:1035b4000000000000000000000000000000000007
:1035c400313800003c2e0000272300003138000071
:1035d40000000000000000000000000000000000e7
:1035e40080800000c07800007c3c000004040000df
:1035f40004040000000000000000000000000000bf
:1036040001010000031e00003e3c000020200000d9
:103614002020000000000000000000000000000066
:103624000000000000000000fefe0000fe0000009c
:103634000000000000000000000000000000000086
:1036440000000000000000007f7f00007f000000f9
:103654000000000000000000000000000000000066
:1036640004040000040400003c7c000078c0000056
:103674008080000000000000000000000000000046
:1036840020200000202000003c3e00001e0300001b
:1036940001010000000000000000000000380000ec
:1036a4003c3c0000040c00001c38000030200000ea
:1036b4003c3c00001c000000000000000000000072
:1036c40000000000000000000000000000000000f6
:1036d4000000000000000000000000005175000020
:1036e40069650000726f00002070000061730000c3
:1036f40061720000204d00005045000049000000a8
:020000040000fa
:103704000000fa0000002400b1002000bb060700fe
:10371400e0cab3003b04070050cdb30039040700ee
:1037240000c8b3003704070080cab300350407009b
:10373400f0c3b3003304070030cdb30031040700f5
:103744000040eb002f04070000c4b3002d04070061
:10375400d0c8b3002b04070040c1b30029040700fc
:1037640000c2b300270407000040eb002504070053
:1037740010cab3002304070080ccb300210407005f
:10378400a0cdb3001f04070020c1b3001d0407002f
:1037940010c8b3001b040700f0ccb30019040700e1
:1037a40090cdb3001704070010cfb3001504070031
:1037b400b0cdb3001304070000c4b3001104070024
:1037c40040cab3000f04070060cab3000d04070029
:1037d400e0c2b3000b040700f0cab30009040700f9
:1037e4006b000700320007000080fa0000000600aa
:1037f4000000fa001f0407000080fa000000060021
:103804000000fa001f0407000080fa000000060010
:103814000200fa00000f7800808020001e08780063
:103824001e0078009040780080802000214098009d
:103834001e00e8009040780080802000314098000d
:103844001e80e8009040780080802000414098006d
:103854009e007800638040009040780080802000c3
:1038640051409800808020008040eb006140980027
:103874000080fa00000006000200fa00004f780001
:103884001e4078000004e000040032008080200024
:1038940011c0b3006140980003003700808020000d
:1038a4008040eb00614098000080fa0000000600b0
:1038b4000400fa000000eb00000f78000040eb0069
:1038c4002047980010c2b300ce0307000040eb006d
:1038d400cc030700f0c7b300ca03070020c2b3003b
:1038e400c80307000040eb00c603070070c0b30024
:1038f400c40307000000eb00000f78001600370037
:10390400fe05070000cfb3001206070000c4b30091
:10391400100607000040eb0020479800080037001d
:10392400408120001e004000104078000906070076
:103934001e0fe8002e4090000040e8002047980049
:103944002e409000ef4f5000f5ff36001e0fe900a7
:10395400ee0507001e0fe800f03f20009e007800ef
:10396400808f5000e6ff36000080fa000000060059
:103974000200fa00004f780010c8b300a10307004a
:103984001e4078009f0307000080fa000000060034
:103994000000fa00024020008000eb00408120007b
:1039a400bdf407000080fa00000006000000fa00e1
:1039b40002402000f10f200040812000b6f40700ef
:1039c4000080fa00000006000200fa00004f7800b0
:1039d4001e4078000004e0000300320070cab30007
:1039e400880307000200370060cab300850307009c
:1039f4000080fa00000006000600fa00000f7800bc
:103a040011079800424798001e0078000000e0006b
:103a140059003500970307000080fb009e0f5000fb
:103a2400570034001e0090000000e00056003500ee
:103a3400940307008080fb001e009000808f5000dc
:103a4400530034004e4090000080fb00e10f500012
:103a540005003200e20f5000300032000000e000a8
:103a6400170032004b0037001e0090000000e000f9
:103a740001003d00670040004380de00c700dd0018
:103a84009e8040004700dd001e004000428120006f
:103a940062407800004178001e00900067006000da
:103aa400130020000018dd00004078000040710081
:103ab400004178004081200002f078003500370092
:103ac4001e0090000000e00001003d00670040007f
:103ad4004380de00c700dd009e8040004700dd001b
:103ae4001e004000428120006240780000417800be
:103af4001e00900067006000130020000018dd0025
:103b04000040780000c0ea000040610000417800f5
:103b14004081200002f078001e0037001e00900053
:103b24000000e00001003d00670040004380de002b
:103b3400c700dd009e8040004700dd001e004000fd
:103b44004281200062407800004178001e0090000d
:103b540067006000130020000018dd0000407800ba
:103b640000406900004178004081200002f07800a4
:103b740000000000070037000000000005003700c7
:103b840000000000030037000000000001003700bf
:103b9400000000000080fa00000006001c00fa008b
:103ba400100f9800210f9800320f9800430f9800cf
:103bb400245f9800be0890001e089000008050000a
:103bc40000f0a7000000ea0070079800ce089000fb
:103bd4002e0890000080500000f0a7000000ea00ca
:103be400000f98009e089000010f7800ae08900026
:103bf400110798009e0890003e089000808f5000a6
:103c0400030034000080eb00200798000200370016
:103c14001000200020079800ae0890004e08900085
:103c2400808f5000030034000080eb0030079800c0
:103c3400020037001000200030079800fe009000ba
:103c44000e089000808f5000390035000e08900057
:103c540000004000800078007e009000008050004a
:103c6400cf80de0040079800510798000000eb0069
:103c740060079800290037002e5990009e0090009c
:103c84001e0078005cff07004e009000de009000ec
:103c9400e00f5000e08f58000c003d000e0890002b
:103ca40000004000cf80de004e019000de01900055
:103cb40002004000838048004007980051079800a4
:103cc4002e0090001e0f4000110037008e08900057
:103cd4007e0090000080500000004000cf80de0095
:103ce4004e019000de0190000200400083804800f5
:103cf40040079800510798002e0090001e0f4000c6
:103d04009e0090003e009000008040001007980044
:103d14006e0090000000e80060079800ee0090003c
:103d24007e009000808f5000d3ff34003a003700ab
:103d34007e00900000004000800078000e08900093
:103d440000805000cf80de004007980051079800a3
:103d54000000eb00600798002b0037002e599000fc
:103d64009e0090001e00780023ff07004e00900084
:103d7400de009000e00f5000e08f58000e003d0080
:103d84007e00900000004000cf80de004e019000d5
:103d9400de01900002004000838048004007980044
:103da400510798009e0090003e0090000080400063
:103db4001007980011003700fe0090000e089000d4
:103dc4000080500000004000cf80de004e019000d3
:103dd400de01900002004000838048004007980004
:103de400510798002e0090001e0f40009e00900086
:103df4003e00900000804000100798006e00900084
:103e04000000e80060079800ee0090000e089000a3
:103e1400808f5000d1ff34000080fa0000000600bb
:103e24000a00fa001007980021079800320798004a
:103e3400034f98009e0090002e009000808f500049
:103e44000e0034009e009000010f7800ae00900038
:103e5400110798009e00780021079800070037009a
:103e64000e4990009e0090003e009000e2fe070084
:103e74001e0090000000e800100798009e009000cb
:103e84002e009000808f5000f5ff34000080fa006f
:103e9400000006000a00fa001007980021079800a5
:103ea40032079800034f98009e0090002e00900067
:103eb400808f50000e0034009e009000010f7800a7
:103ec400ae009000110798009e007800210798002a
:103ed400070037000e499000be0090001e009000bd
:103ee400c5fe07001e0090000000e80010079800bf
:103ef4009e0090002e009000808f5000f5ff34004b
:103f04000080fa00000006000a00fa00000f7800a2
:103f1400110798002207980033079800044f98006f
:103f24008e4990001e019000ae0090001e007800a3
:103f3400d8ff07008e4990003e019000ae0090002b
:103f44001e007800d3ff07008e4990001e01780000
:103f5400be0090001e009000b1ff07008e49900043
:103f64002e019000be0090001e009000acff0700e0
:103f74000080fa00000006000c00fa001007980008
:103f8400210798003207980043079800244f9800af
:103f94009e009000010f780006003700ae499000a3
:103fa4001e017800ce0090002e0090009cff0700b8
:103fb4001e0fe8003e0090009e007800808f5000a5
:103fc400f6ff34000080fa00000006000e00fa003c
:103fd400000f780011079800220798003307980013
:103fe4004407980055079800464f98004e4a9000a1
:103ff400be0190002e0190009e0090001e007800eb
:10400400e6fe07004e4a9000de0190004e0190004b
:10401400be0090002e009000e0fe07004e4a900083
:104024009e0190001e017800de0090004e0090007a
:10403400dafe07000080fa00000006000400fa001f
:10404400100798000000eb00000f7800070037000d
:104054001e0090001e004000904078004081200027
:104064001e004000014878001e0fe800f03f2000c9
:104074009e007800808f5000f5ff36000080fa0023
:10408400000006001200fa0050079800610798002b
:1040940072079800035798007e009000610f10008b
:1040a4001000200010079800fe009000e0ff2f0091
:1040b4000088b90000007800200798000000eb0099
:1040c40030079800fe00900041079800ee00900031
:1040d4007e009000008040000e5190008000780027
:1040e4005e00900044fe0700ee0090007e00900009
:1040f400008050000e519000800078005e00900017
:104104003dfe0700de0090007e009000008040002d
:104114000e519000ee00900037fe0700de00900084
:104124007e009000008050000e519000ee00900040
:1041340031fe0700530037001e0078000000e00045
:10414400080035004e0090000000e9004007980088
:104154002e0090000080e800200798002e009000b8
:104164001e0f40003e0090000000e8003007980059
:104174001e0090000080e800100798001e009000c8
:104184001e0f4000ee0090004e0090008080400022
:104194005e0190003e009000000041000e5190002e
:1041a40015fe0700ee0090004e0090008080400055
:1041b4005e0190003e009000000051000e519000fe
:1041c4000dfe0700ee0090004e009000808050002d
:1041d4005e0190003e009000000041000e519000ee
:1041e40005fe0700ee0090004e0090008080500015
:1041f4005e0190003e009000000051000e519000be
:10420400fdfd0700ee0090003e009000808040001d
:104214005e0190004e009000000041000e5190009d
:10422400f5fd0700ee0090003e0090008080400005
:104234005e0190004e009000000051000e5190006d
:10424400edfd0700ee0090003e00900080805000dd
:104254005e0190004e009000000041000e5190005d
:10426400e5fd0700ee0090003e00900080805000c5
:104274005e0190004e009000000051000e5190002d
:10428400ddfd0700be0090004e009000808f5000be
:10429400a9ff35000080fa00000006001800fa00ab
:1042a400100f9800210f9800625798000000eb004f
:1042b400000f78000000eb00100798000000eb00ee
:1042c400200798000000eb00000f98008080200079
:1042d40030409000674060000004e00091003a0024
:1042e4006e5090008000fb008080200040409000d1
:1042f4000080fb000081500080802000204090005e
:104304008080fb0080802000304090000080fb0013
:104314004300de00004078000080fb000088b90004
:10432400000078000090b9000000780064004000ac
:10433400000f78000000eb00100798006f003700b2
:104344000000eb0020079800630037008080200005
:10435400100178002e0090009e0140008080200013
:10436400204090008080fb001e0090000088b9006f
:1043740000007800008041000000410010407800f7
:104384000080fb00000f98000040eb00604798009d
:104394004b0037006e4090000080fb0011002000ad
:1043a4000008dd00800078000e08900000806000a6
:1043b4000000e00020003200808020006040900077
:1043c4000004e0000e003a001e009000c300dd006f
:1043d4002e089000808040006e4090000080fb001a
:1043e40000804000800078001e0990002e0090009c
:1043f4000000410012c0b3007ffd07002d0037000c
:104404001e009000c300dd002e0890008080400054
:104414006e4090000080fb00008040008000780027
:104424001e0990002e009000000041000041eb00a6
:1044340071fd07001f00370080802000604090005d
:104444000004e0000e003a001e009000c300dd00ee
:104454002e089000808040006e4090000080fb0099
:1044640000804000800078001e0990002e0090001b
:10447400000041000041eb005ffd07000d00370024
:104484001e009000c300dd002e08900080804000d4
:104494006e4090000080fb000080400080007800a7
:1044a4001e0990002e0090000000410012c0b300cd
:1044b40051fd07006e4090000040e80060479800fe
:1044c4006e409000e74f5000b2ff36002e0090007f
:1044d4000000e80020079800808020002040900021
:1044e4008080fb002e009000808f500097ff3e00dc
:1044f4001e0090000000e800100798008080200053
:10450400304090000080fb004300de000040780053
:104514008080fb001e009000808f500088ff3e00ca
:10452400770037006e5090008000fb0080802000f0
:10453400404090000080fb000081500080802000fb
:10454400204090008080fb0080802000304090005c
:104554000080fb000088b900000078000000e00043
:1045640001003d00670040004380de000090b90078
:104574000000780064004000000f78008080200074
:10458400100078001e004000104078000080fb00fe
:104594004007980070002000700798000000eb00ae
:1045a40050079800500037000000eb0060079800a7
:1045b40044003700ce0090007e0090000088de00aa
:1045c40061006000004078000004e0001600320042
:1045d40080802000604090000004e00009003a0060
:1045e400ae0890006e009000808040001e0990008c
:1045f4005e0090000000410012c0b300fefc070002
:104604001e003700ae0890006e00900080804000cd
:104614001e0990005e009000000041000041eb0084
:10462400f5fc0700150037008080200060409000f2
:104634000004e00009003a00ae0890006e0090000b
:10464400808040001e0990005e0090000000410040
:104654000041eb00e8fc070008003700ae089000ba
:104664006e009000808040001e0990005e00900063
:104674000000410012c0b300dffc07007e00900080
:104684000000e900700798007e0090000000e00040
:1046940009003d0070002000700798001e0fe8001c
:1046a40080802000100078001e0040001040780038
:1046b4000080fb00400798006e0090000000e800b6
:1046c4006007980080802000304090008080fb00cc
:1046d4006e009000808f5000b6ff3c005e0090009a
:1046e4000000e800500798008080200020409000df
:1046f4008080fb005e009000808f5000aaff3c0089
:104704000080fa00000006000800fa001007980074
:1047140021079800320798003e009000c2f107007c
:10472400104798009e009000e00f2000808f5000fa
:104734000a003a001e4090008080fb008080200028
:10474400204090000080fb000088b9000000780041
:104754000108200000805000100798009e0090007f
:10476400f00f2000808f50000d003a001e40900092
:104774008080fb0080802000204090000080fb00af
:104784000088b90000007800010820000080500073
:10479400cf00de00008040000080d10010079800a8
:1047a4000040eb00004f7800100037003e009000fe
:1047b400104178003e0090000000e80030079800a7
:1047c4009e80fb0080802000204090000080fb0041
:1047d4000088b900800078001e009000008040002e
:1047e400ae009000adfe07001e4fe8001e40900092
:1047f4009e40780080cf5000ecff39000080fa0022
:10480400000006000400fa00204798000040eb0076
:10481400004f78003902070000cfb3004d020700b3
:104824001e4078004b0207002e409000490207000a
:10483400360207000080fa00000006000400fa00b7
:104844002047980000c4b300004f78002b020700f3
:1048540000cfb3003f0207001e4078003d0207006e
:104864002e4090003b020700280207000080fa0057
:10487400000006000000fa0000c8b3000080fa003f
:10488400000006000000fa0000c4b3000080fa0033
:10489400000006000600fa0010079800210798009f
:1048a4001e009000100f78002e00900090007800f9
:1048b4001e009000010878002e0090001e08780069
:0848c4000080fa00000006006c
:020000040000fa
:1048cc0000080000080000000000000010080000b4
:1048dc000400000002000000474767004100000090
:1048ec00140800000004000002000000000000009a
:1048fc0000000000000000000000000000000000ac
:10490c00000000000000000000000000000000009b
:10491c00000000000000000000000000000000008b
:10492c00000000000000000000000000000000007b
:10493c00000000000000000000000000000000006b
:10494c00000000000000000000000000000000005b
:10495c00000000000000000000000000000000004b
:10496c00000000000000000000000000000000003b
:10497c00000000000000000000000000000000002b
:10498c00000000000000000000000000000000001b
:10499c00000000000000000000000000000000000b
:1049ac0000000000fcfcfc000c0c0c000c0c0c00bf
:1049bc000000c000c0c08000c0c0c000c0800000ab
:1049cc0080c0c000c0c080000000000000fefe00df
:1049dc00fe80c000c0c0c000c0800000000000000d
:1049ec008080c000c0c0c000c0800000000000007b
:1049fc008080c000c0c0c00080fefe00fe00000031
:104a0c0000808000c0c0c000c080fe00fefe000020
:104a1c000000800080c0c000c0c0c000800000004a
:104a2c000000800080c0c000c0c08000fefefe0000
:104a3c00000000000000000000000000000000006a
:104a4c000000000000000000000000000000ff005b
:104a5c00ffff8300838383008380000000ffff003f
:104a6c00ff0100000001ff00ffff0100000001003a
:104a7c00ffffff0000000000ffffff00c18080006f
:104a8c0080c1ff00ff3e0000003eff00ffcd8c0008
:104a9c008c8c8f00cfcf0000003eff00ffc1800048
:104aac008080c100ffffff0000003e00ffffc1003f
:104abc0080808000c1ffff00ff0000003effff0070
:104acc00cd8c8c008c8fcf00cf0000003effff0000
:104adc00c180800080c1ff00ffff000000000000cb
:104aec0000000000000000000000000000000000ba
:104afc0000000000000000000001010001010100a5
:104b0c000101010001000000010101000000000092
:104b1c000001010001000000000001000101000083
:104b2c000000010001010000010101000100000072
:104b3c000000000000000000010101000101010063
:104b4c000000000000000100010101000100010053
:104b5c000101000000000000010101000101000042
:104b6c000101010000000000000001000101010032
:104b7c000101000000000000000101000101010022
:104b8c000001010001000000000000000000000016
:104b9c000000000000000000000000000000000009
:104bac000000fc00fcfc0000000000000000000005
:104bbc008080c000c0c0c000c08000000000fe00ab
:104bcc00fefe8000c0c0c000c0c08000000000001d
:104bdc0000808000c0c0c000c0c080008000000009
:104bec0000c0c000c080c000c0c000000000800039
:104bfc0080c0c000c0c0c00080000000c0c0f80071
:104c0c00f8f8c000c0c0000000808000c0c0c00028
:104c1c00c0c080008000000000c0c000c080c00088
:104c2c00c0c04000c0c08000000000000080c00078
:104c3c00c040000000000000000000000000000068
:104c4c0000000000000000000000000000ffff005a
:104c5c00ff808000808080000070f900fd9c8c003b
:104c6c008cccff00ffff000000ffff00ffc18000a5
:104c7c008080c100ffff3e0000003e00ffffc1002e
:104c8c0080808000c1ffff003e000000ffffff009e
:104c9c00030101000100000070f9fd009c8c8c00e8
:104cac00ccffff00ff00000000ffff00ff80800032
:104cbc0080003e00ffffc10080808000c1ffff002c
:104ccc003e000000ffffff00030101000100030094
:104cdc000f3ffe00f8c0fc00ff1f030000000000a7
:104cec0000000000000000000000000000000000b8
:104cfc0000000000000000000101010001010100a2
:104d0c00010100000000010001010100000101008f
:104d1c00010000000101010000010100010100007f
:104d2c000000000000000000000101000101010072
:104d3c000000000000000100010100000000000064
:104d4c000000000000010100010100000101010050
:104d5c000000000000010100010101000000000042
:104d6c000001010001010100000000000000010031
:104d7c00010100000000000000000000181d1f00d1
:104d8c000f03000000000000000000000000000005
:104d9c000000000000000000000000000000000007
:104dac0000000000000000000000000000000000f7
:104dbc0000000000000000000000000000000000e7
:104dcc0000000000000000000000000000000000d7
:104ddc0000000000000000000000000000000000c7
:104dec0000000000000000000000000000000000b7
:104dfc0000000000000000000000000000000000a7
:104e0c000000000000000000000000000000000096
:104e1c000000000000000000000000000000000086
:104e2c000000000000000000000000000000000076
:104e3c000000000000000000000000000000000066
:104e4c00000000000808000008000000000000003e
:044e5c000000000052
:020000040000fa
:104e60000000fa008220ef008400a9009400a8004e
:104e70000080fa00000006000000fa002023ef0086
:104e80002223ef002423ef003023ef002823ef003c
:104e900021e3a80025e3a8004119800000fe2f00af
:104ea000008060000010a0004019880041198000b7
:104eb000f00f2e00008060000090a00040198800d4
:104ec0000080fa00000006000000fa0021088000bf
:104ed000f0fc2f00008060000050a0002008880037
:104ee00004c1a9000421a90000102e0010088800a8
:104ef00005e1a8009460a8008460a9000080fa0081
:104f0000000006000000fa00010e800030ff2f00b4
:104f100000806000000e8800010e8000c0ff2f009e
:104f200000806000000e8800110e80000000280044
:104f300000806000100e8800210e80000000280014
:104f4000808060003073200001007000200e880017
:104f5000c901a800c881a900c801a800610e80008d
:104f6000f0f32f0000806000600e8800610e80006a
:104f700000fc2f0080806000b00320000100700062
:104f8000600e8800d621ef00c1e1a8000080fa0081
:104f9000000006000000fa00e134800000fe2f004f
:104fa000008060000010a000e0348800e134800040
:104fb000f00f2e00808060000030200001007000a3
:104fc000e0348800e021ef00e421ef00010f8000d1
:104fd000f08f2f00808060000050200001007000e2
:104fe000000f8800e161a8000080eb00300f88000e
:104ff0000080fa00000006000000fa00b0ff2f0059
:1050000060198800d0382800401688008620a90042
:1050100099ff0700bbff0700deff0700aaff07009c
:10502000320007008eff0700b6f90700304080000d
:105030000000e00003003200e10f500011003200d8
:105040001f0037005700070000408000cf80de00bf
:1050500093ed07000002be00804080009140800078
:105060000001be000400be00a5ed07006bed0700c7
:10507000000078001040880010408000b00e8800ca
:105080000f0037004700070000408000cf80de009f
:1050900083ed07000002be00804080009140800048
:1050a0000001be000400be0095ed07005bed0700a7
:1050b0000000780010408800d621ef0000000000ba
:1050c00070992800d3f9070002b72900a100200039
:1050d000000120008dfd0700f6f9070000002c00fc
:1050e000810a200046000700d0ff37000000fa00c8
:1050f0000422ef0007e2a8000080fa00000006008a
:105100000000fa000602a8000080fa000000060075
:105110000000fa000642a8000080fa000000060025
:105120000000fa000622a8000080fa000000060035
:105130000000fa000682a80006a2a9000080fa007a
:10514000000006000000fa000682a80006a2a800df
:105150000080fa00000006000400fa0020479800d2
:105160002e4090000000fb001010880040108000ce
:105170004f00de00004078000080fb00000f780048
:105180001e0078000080fa00000006000000fa000f
:105190000662a80000108000004078000080fa003d
:1051a000000006000000fa002023a8009004200060
:1051b00001002000120007002023a90000000000c9
:1051c00000198000610060000000e000fcff320078
:1051d000001880004200de0000408800014080008e
:1051e000f03f200000806000004088000080fa004e
:1051f000000006000000fa000080fa00000006002f
:020000040000fa
:10520000f03fb1000180b10006003500ee03090057
:1052100000000000403fb1000180b100fbff3d00f5
:105220001000b000203fb0000200350000800900ef
:08523000000000000000060070
:020000040000fa
:0200000401f009
:04000c008000000070
:020000040000fa
:0200000401f009
:040014005f00000089
:020000040000fa
:0200000401f009
:04001c00ddff000004
:00000001FF
