:020000040000fa
:080000000002040000000000f2
:020000040000fa
:04000800f6020000fc
:020000040000fa
:04000c00f6020000f8
:020000040000fa
:04001000f6020000f4
:020000040000fa
:04001400f6020000f0
:020000040000fa
:04001800f6020000ec
:020000040000fa
:04001c00f6020000e8
:020000040000fa
:04002000f6020000e4
:020000040000fa
:04002400f6020000e0
:020000040000fa
:04002800f6020000dc
:020000040000fa
:04002c00f6020000d8
:020000040000fa
:04003000f6020000d4
:020000040000fa
:04003400c8020000fe
:020000040000fa
:04003800f6020000cc
:020000040000fa
:04003c00f6020000c8
:020000040000fa
:04004000f6020000c4
:020000040000fa
:04004400f6020000c0
:020000040000fa
:04004800f6020000bc
:020000040000fa
:04004c00f6020000b8
:020000040000fa
:04005000f6020000b4
:020000040000fa
:04005400f6020000b0
:020000040000fa
:04005800f6020000ac
:020000040000fa
:04005c00f6020000a8
:020000040000fa
:04006000f6020000a4
:020000040000fa
:04006400f6020000a0
:020000040000fa
:04006800f60200009c
:020000040000fa
:04006c00f602000098
:020000040000fa
:04007000f602000094
:020000040000fa
:04007400f602000090
:020000040000fa
:04007800f60200008c
:020000040000fa
:04007c00f602000088
:020000040000fa
:04008000f602000084
:020000040000fa
:04008400f602000080
:020000040000fa
:04008800f60200007c
:020000040000fa
:04008c00f602000078
:020000040000fa
:04009000f602000074
:020000040000fa
:04009400f602000070
:020000040000fa
:04009800f60200006c
:020000040000fa
:04009c00f602000068
:020000040000fa
:0400a000f602000064
:020000040000fa
:0400a400f602000060
:020000040000fa
:0400a800f60200005c
:020000040000fa
:0400ac00f602000058
:020000040000fa
:0400b000f602000054
:020000040000fa
:0400b400f602000050
:020000040000fa
:0400b800f60200004c
:020000040000fa
:0400bc00f602000048
:020000040000fa
:0400c000f602000044
:020000040000fa
:0400c400f602000040
:020000040000fa
:0400c800f60200003c
:020000040000fa
:0400cc00f602000038
:020000040000fa
:0400d000f602000034
:020000040000fa
:0400d400f602000030
:020000040000fa
:0400d800f60200002c
:020000040000fa
:0400dc00f602000028
:020000040000fa
:0400e000f602000024
:020000040000fa
:0400e400f602000020
:020000040000fa
:0400e800f60200001c
:020000040000fa
:0400ec00f602000018
:020000040000fa
:0400f000f602000014
:020000040000fa
:0400f400f602000010
:020000040000fa
:0400f800f60200000c
:020000040000fa
:0400fc00f602000008
:020000040000fa
:04010000f602000003
:020000040000fa
:04010400f6020000ff
:020000040000fa
:04010800f6020000fb
:020000040000fa
:04010c00f6020000f7
:020000040000fa
:04011000f6020000f3
:020000040000fa
:04011400f6020000ef
:020000040000fa
:04011800f6020000eb
:020000040000fa
:04011c00f6020000e7
:020000040000fa
:04012000f6020000e3
:020000040000fa
:04012400f6020000df
:020000040000fa
:04012800f6020000db
:020000040000fa
:04012c00f6020000d7
:020000040000fa
:04013000f6020000d3
:020000040000fa
:04013400f6020000cf
:020000040000fa
:04013800f6020000cb
:020000040000fa
:04013c00f6020000c7
:020000040000fa
:04014000f6020000c3
:020000040000fa
:04014400f6020000bf
:020000040000fa
:04014800f6020000bb
:020000040000fa
:04014c00f6020000b7
:020000040000fa
:04015000f6020000b3
:020000040000fa
:04015400f6020000af
:020000040000fa
:04015800f6020000ab
:020000040000fa
:04015c00f6020000a7
:020000040000fa
:04016000f6020000a3
:020000040000fa
:04016400f60200009f
:020000040000fa
:04020800f6020000fa
:020000040000fa
:04020c00f6020000f6
:020000040000fa
:04021000f6020000f2
:020000040000fa
:04021400f6020000ee
:020000040000fa
:04021800f6020000ea
:020000040000fa
:04021c00f6020000e6
:020000040000fa
:04022000f6020000e2
:020000040000fa
:04022400f6020000de
:020000040000fa
:04022800f6020000da
:020000040000fa
:04022c00f6020000d6
:020000040000fa
:04023000f6020000d2
:020000040000fa
:04023400c8020000fc
:020000040000fa
:04023800f6020000ca
:020000040000fa
:04023c00f6020000c6
:020000040000fa
:04024000f6020000c2
:020000040000fa
:04024400f6020000be
:020000040000fa
:04024800f6020000ba
:020000040000fa
:04024c00f6020000b6
:020000040000fa
:04025000f6020000b2
:020000040000fa
:04025400f6020000ae
:020000040000fa
:04025800f6020000aa
:020000040000fa
:04025c00f6020000a6
:020000040000fa
:04026000f6020000a2
:020000040000fa
:04026400f60200009e
:020000040000fa
:04026800f60200009a
:020000040000fa
:04026c00f602000096
:020000040000fa
:04027000f602000092
:020000040000fa
:04027400f60200008e
:020000040000fa
:04027800f60200008a
:020000040000fa
:04027c00f602000086
:020000040000fa
:04028000f602000082
:020000040000fa
:04028400f60200007e
:020000040000fa
:04028800f60200007a
:020000040000fa
:04028c00f602000076
:020000040000fa
:04029000f602000072
:020000040000fa
:04029400f60200006e
:020000040000fa
:04029800f60200006a
:020000040000fa
:04029c00f602000066
:020000040000fa
:0402a000f602000062
:020000040000fa
:0402a400f60200005e
:020000040000fa
:0402a800f60200005a
:020000040000fa
:0402ac00f602000056
:020000040000fa
:0402b000f602000052
:020000040000fa
:0402b400f60200004e
:020000040000fa
:0402b800f60200004a
:020000040000fa
:0402bc00f602000046
:020000040000fa
:0402c000f602000042
:020000040000fa
:0402c400f60200003e
:020000040000fa
:0402c800f60200003a
:020000040000fa
:0402cc00f602000036
:020000040000fa
:0402d000f602000032
:020000040000fa
:0402d400f60200002e
:020000040000fa
:0402d800f60200002a
:020000040000fa
:0402dc00f602000026
:020000040000fa
:0402e000f602000022
:020000040000fa
:0402e400f60200001e
:020000040000fa
:0402e800f60200001a
:020000040000fa
:0402ec00f602000016
:020000040000fa
:0402f000f602000012
:020000040000fa
:0402f400f60200000e
:020000040000fa
:0402f800f60200000a
:020000040000fa
:0402fc00f602000006
:020000040000fa
:04030000f602000001
:020000040000fa
:04030400f6020000fd
:020000040000fa
:04030800f6020000f9
:020000040000fa
:04030c00f6020000f5
:020000040000fa
:04031000f6020000f1
:020000040000fa
:04031400f6020000ed
:020000040000fa
:04031800f6020000e9
:020000040000fa
:04031c00f6020000e5
:020000040000fa
:04032000f6020000e1
:020000040000fa
:04032400f6020000dd
:020000040000fa
:04032800f6020000d9
:020000040000fa
:04032c00f6020000d5
:020000040000fa
:04033000f6020000d1
:020000040000fa
:04033400f6020000cd
:020000040000fa
:04033800f6020000c9
:020000040000fa
:04033c00f6020000c5
:020000040000fa
:04034000f6020000c1
:020000040000fa
:04034400f6020000bd
:020000040000fa
:04034800f6020000b9
:020000040000fa
:04034c00f6020000b5
:020000040000fa
:04035000f6020000b1
:020000040000fa
:04035400f6020000ad
:020000040000fa
:04035800f6020000a9
:020000040000fa
:04035c00f6020000a5
:020000040000fa
:04036000f6020000a1
:020000040000fa
:04036400f60200009d
:020000040000fa
:100400000f8020000e7f24000e01880000000000f5
:10041000000020000000e000020032000001200087
:100420002002880014000700720007000000e000ae
:1004300003003a0000002000010020000200370005
:100440000000200001002000810f70000100320038
:1004500014000700000020000000e000020032004d
:100460000000020000000000fc020200000000008a
:100470000040da000000fe004440a9000000200017
:100480000000e0000300320000002000a00188000e
:100490004440a800000006008a1f78008b1f7800e7
:1004a0000000060091018800800478000000eb0045
:1004b0001a003700e284440032a0b4009905ba0063
:1004c000e284440032a0b4009906ba00e2844400f9
:1004d00032a0b4000006eb00476fde00fd07b2005b
:1004e000636ce10003003a00ebff07000000eb0043
:1004f0000a003700606ce10004003a00005deb0088
:100500008b05e900fdff3e00040037006168e10053
:10051000010032000086eb000b00070019c7ba008b
:100520001905ba000e04e00003003a000a00e000da
:10053000e0ff3a0000000600fe07b2009e018800be
:100540008a047800f5ff3700395dba008b05e900b1
:100550000c003200295dba008b05e900080032006a
:100560000c00e00003003a00e284440032a0b40032
:10057000f5ff370019ddba008b05e900faff3a00f4
:100580008904e800e184440032a0b40000000600c1
:100590003600f800809fbe00829fbe00849fbe0090
:1005a000869fbe003400f80000002000a0018800f3
:1005b0000000fa00cce2a80040fe2100110020005b
:1005c0002c000700cce2a9008460a9000080fa009a
:1005d0003400f9004f03be004f02be004f01be00c1
:1005e0004f00be003600f900004006000040da006f
:0805f0000000fe000000050000
:020000040000fa
:1005f8000000fa000080eb0060198800c822ef00b4
:1006080004000700cd02a8008460a9000d000700bf
:10061800ffff37000000fa002108800000032000d7
:10062800010070002008880004c1a9000421a90065
:100638000080eb001008880005e1a8000080fa009f
:10064800000006000000fa009460a8002105800060
:10065800f0ff280080806000000026000100700084
:0c066800200588000080fa000000060059
:020000040000fa
:10067400f03fb1000180b10006003500ee0309002f
:1006840000000000403fb1000180b100fbff3d00cd
:100694001000b000203fb0000200350000800900c7
:0806a400000000000000060048
:020000040000fa
:0200000401f009
:04000c008000000070
:020000040000fa
:0200000401f009
:040014005f00000089
:020000040000fa
:0200000401f009
:04001c00ddff000004
:00000001FF
