:020000040000fa
:080000000002040000000000f2
:020000040000fa
:04000800e60300000b
:020000040000fa
:04000c00e603000007
:020000040000fa
:04001000e603000003
:020000040000fa
:04001400e6030000ff
:020000040000fa
:04001800e6030000fb
:020000040000fa
:04001c00e6030000f7
:020000040000fa
:04002000e6030000f3
:020000040000fa
:04002400e6030000ef
:020000040000fa
:04002800e6030000eb
:020000040000fa
:04002c00e6030000e7
:020000040000fa
:04003000e6030000e3
:020000040000fa
:04003400e6030000df
:020000040000fa
:04003800e6030000db
:020000040000fa
:04003c00e6030000d7
:020000040000fa
:04004000e6030000d3
:020000040000fa
:04004400e6030000cf
:020000040000fa
:04004800e6030000cb
:020000040000fa
:04004c00e6030000c7
:020000040000fa
:04005000e6030000c3
:020000040000fa
:04005400880300001d
:020000040000fa
:04005800c8020000da
:020000040000fa
:04005c00e6030000b7
:020000040000fa
:04006000e6030000b3
:020000040000fa
:04006400e6030000af
:020000040000fa
:04006800e6030000ab
:020000040000fa
:04006c00e6030000a7
:020000040000fa
:04007000e6030000a3
:020000040000fa
:04007400e60300009f
:020000040000fa
:04007800e60300009b
:020000040000fa
:04007c00e603000097
:020000040000fa
:04008000e603000093
:020000040000fa
:04008400e60300008f
:020000040000fa
:04008800e60300008b
:020000040000fa
:04008c00e603000087
:020000040000fa
:04009000e603000083
:020000040000fa
:04009400e60300007f
:020000040000fa
:04009800e60300007b
:020000040000fa
:04009c00e603000077
:020000040000fa
:0400a000e603000073
:020000040000fa
:0400a400e60300006f
:020000040000fa
:0400a800e60300006b
:020000040000fa
:0400ac00e603000067
:020000040000fa
:0400b000e603000063
:020000040000fa
:0400b400e60300005f
:020000040000fa
:0400b800e60300005b
:020000040000fa
:0400bc00e603000057
:020000040000fa
:0400c000e603000053
:020000040000fa
:0400c400e60300004f
:020000040000fa
:0400c800e60300004b
:020000040000fa
:0400cc00e603000047
:020000040000fa
:0400d000e603000043
:020000040000fa
:0400d400e60300003f
:020000040000fa
:0400d800e60300003b
:020000040000fa
:0400dc00e603000037
:020000040000fa
:0400e000e603000033
:020000040000fa
:0400e400e60300002f
:020000040000fa
:0400e800e60300002b
:020000040000fa
:0400ec00e603000027
:020000040000fa
:0400f000e603000023
:020000040000fa
:0400f400e60300001f
:020000040000fa
:0400f800e60300001b
:020000040000fa
:0400fc00e603000017
:020000040000fa
:04010000e603000012
:020000040000fa
:04010400e60300000e
:020000040000fa
:04010800e60300000a
:020000040000fa
:04010c00e603000006
:020000040000fa
:04011000e603000002
:020000040000fa
:04011400e6030000fe
:020000040000fa
:04011800e6030000fa
:020000040000fa
:04011c00e6030000f6
:020000040000fa
:04012000e6030000f2
:020000040000fa
:04012400e6030000ee
:020000040000fa
:04012800e6030000ea
:020000040000fa
:04012c00e6030000e6
:020000040000fa
:04013000e6030000e2
:020000040000fa
:04013400e6030000de
:020000040000fa
:04013800e6030000da
:020000040000fa
:04013c00e6030000d6
:020000040000fa
:04014000e6030000d2
:020000040000fa
:04014400e6030000ce
:020000040000fa
:04014800e6030000ca
:020000040000fa
:04014c00e6030000c6
:020000040000fa
:04015000e6030000c2
:020000040000fa
:04015400e6030000be
:020000040000fa
:04015800e6030000ba
:020000040000fa
:04015c00e6030000b6
:020000040000fa
:04016000e6030000b2
:020000040000fa
:04016400e6030000ae
:020000040000fa
:04020800e603000009
:020000040000fa
:04020c00e603000005
:020000040000fa
:04021000e603000001
:020000040000fa
:04021400e6030000fd
:020000040000fa
:04021800e6030000f9
:020000040000fa
:04021c00e6030000f5
:020000040000fa
:04022000e6030000f1
:020000040000fa
:04022400e6030000ed
:020000040000fa
:04022800e6030000e9
:020000040000fa
:04022c00e6030000e5
:020000040000fa
:04023000e6030000e1
:020000040000fa
:04023400e6030000dd
:020000040000fa
:04023800e6030000d9
:020000040000fa
:04023c00e6030000d5
:020000040000fa
:04024000e6030000d1
:020000040000fa
:04024400e6030000cd
:020000040000fa
:04024800e6030000c9
:020000040000fa
:04024c00e6030000c5
:020000040000fa
:04025000e6030000c1
:020000040000fa
:04025400880300001b
:020000040000fa
:04025800c8020000d8
:020000040000fa
:04025c00e6030000b5
:020000040000fa
:04026000e6030000b1
:020000040000fa
:04026400e6030000ad
:020000040000fa
:04026800e6030000a9
:020000040000fa
:04026c00e6030000a5
:020000040000fa
:04027000e6030000a1
:020000040000fa
:04027400e60300009d
:020000040000fa
:04027800e603000099
:020000040000fa
:04027c00e603000095
:020000040000fa
:04028000e603000091
:020000040000fa
:04028400e60300008d
:020000040000fa
:04028800e603000089
:020000040000fa
:04028c00e603000085
:020000040000fa
:04029000e603000081
:020000040000fa
:04029400e60300007d
:020000040000fa
:04029800e603000079
:020000040000fa
:04029c00e603000075
:020000040000fa
:0402a000e603000071
:020000040000fa
:0402a400e60300006d
:020000040000fa
:0402a800e603000069
:020000040000fa
:0402ac00e603000065
:020000040000fa
:0402b000e603000061
:020000040000fa
:0402b400e60300005d
:020000040000fa
:0402b800e603000059
:020000040000fa
:0402bc00e603000055
:020000040000fa
:0402c000e603000051
:020000040000fa
:0402c400e60300004d
:020000040000fa
:0402c800e603000049
:020000040000fa
:0402cc00e603000045
:020000040000fa
:0402d000e603000041
:020000040000fa
:0402d400e60300003d
:020000040000fa
:0402d800e603000039
:020000040000fa
:0402dc00e603000035
:020000040000fa
:0402e000e603000031
:020000040000fa
:0402e400e60300002d
:020000040000fa
:0402e800e603000029
:020000040000fa
:0402ec00e603000025
:020000040000fa
:0402f000e603000021
:020000040000fa
:0402f400e60300001d
:020000040000fa
:0402f800e603000019
:020000040000fa
:0402fc00e603000015
:020000040000fa
:04030000e603000010
:020000040000fa
:04030400e60300000c
:020000040000fa
:04030800e603000008
:020000040000fa
:04030c00e603000004
:020000040000fa
:04031000e603000000
:020000040000fa
:04031400e6030000fc
:020000040000fa
:04031800e6030000f8
:020000040000fa
:04031c00e6030000f4
:020000040000fa
:04032000e6030000f0
:020000040000fa
:04032400e6030000ec
:020000040000fa
:04032800e6030000e8
:020000040000fa
:04032c00e6030000e4
:020000040000fa
:04033000e6030000e0
:020000040000fa
:04033400e6030000dc
:020000040000fa
:04033800e6030000d8
:020000040000fa
:04033c00e6030000d4
:020000040000fa
:04034000e6030000d0
:020000040000fa
:04034400e6030000cc
:020000040000fa
:04034800e6030000c8
:020000040000fa
:04034c00e6030000c4
:020000040000fa
:04035000e6030000c0
:020000040000fa
:04035400e6030000bc
:020000040000fa
:04035800e6030000b8
:020000040000fa
:04035c00e6030000b4
:020000040000fa
:04036000e6030000b0
:020000040000fa
:04036400e6030000ac
:020000040000fa
:100400008f8020000e7f24000e0188000000000075
:10041000000020000000e000020032000001200087
:100420002002880014000700ea0007000000e00036
:1004300003003a00808e20000100200002003700f7
:100440000000200001002000810f70000100320038
:1004500014000700000020000000e000020032004d
:100460000000020000000000f20602000000000090
:100470000040da000000fe004440a9000000200017
:100480000000e0000300320000002000a00188000e
:100490004440a800000006008a1f78008b1f7800e7
:1004a0000000060091018800800478000000eb0045
:1004b0001a003700e284440032a0b4009905ba0063
:1004c000e284440032a0b4009906ba00e2844400f9
:1004d00032a0b4000006eb00476fde00fd07b2005b
:1004e000636ce10003003a00ebff07000000eb0043
:1004f0000a003700606ce10004003a00005deb0088
:100500008b05e900fdff3e00040037006168e10053
:10051000010032000086eb000b00070019c7ba008b
:100520001905ba000e04e00003003a000a00e000da
:10053000e0ff3a0000000600fe07b2009e018800be
:100540008a047800f5ff3700395dba008b05e900b1
:100550000c003200295dba008b05e900080032006a
:100560000c00e00003003a00e284440032a0b40032
:10057000f5ff370019ddba008b05e900faff3a00f4
:100580008904e800e184440032a0b40000000600c1
:100590003600f800809fbe00829fbe00849fbe0090
:1005a000869fbe003400f80000002000a0018800f3
:1005b0000600fa0051020700001880004200de0029
:1005c0001040880011408000f03f20000080600053
:1005d0001040880012408000b04721000090b90010
:1005e000c388de004f90de00008f50000103200022
:1005f0001e8f40001e0078002011880012408000ed
:10060000706626000090b900c288de004f90de00c0
:1006100000805000100798001e00900071662600b0
:100620000181b9004299de00cf80de0081005100d7
:100630006a09b90082007800010050001007980094
:100640001e0090000003b00010079800000000009a
:100650001111800000102000008060000000e00008
:10066000fbff32001e009000201188001140800026
:10067000a000200000017800110009008200d800cd
:100680008000fd00200798002e0090000003b000bd
:1006900020079800000000001111800000102000c9
:1006a000008060000000e000fbff32002e009000a0
:1006b00020118800000000001111800000102000af
:1006c000008060000000e000fbff3200a00020007e
:1006d000201188000000000011118000001020008f
:1006e000008060000000e000fbff32008580a90070
:1006f0000080fa003400f9004f03be004f02be0034
:100700004f01be004f00be003600f9000040060059
:100710003600f800809fbe00829fbe00849fbe000e
:10072000869fbe003400f80000002000a001880071
:100730000000fa0001003700cc62a8001011800010
:10074000610060000000e000fbff3a0000002400b0
:100750002100200090020700cc62a9003011800027
:1007600041062000810f50000900320031072000af
:10077000810f50000400320011062000810f50004c
:1007800006003200080037000028ef00060037009e
:1007900010002000004088000300370020002000e7
:1007a00000408800000000008560a9000080fa0079
:1007b0003400f9004f03be004f02be004f01be00df
:1007c0004f00be003600f900004006000040da008d
:1007d0000000fe00000005000003be001f0007002f
:1007e0006011b8000470a70007f0a10007f8a3008b
:1007f00017003a006509b1000d0032000d00350008
:10080000860220000628e1000300350003002800ce
:100810006000b80002000500000040008180480030
:1008200002014900838149008502e900faff3a008c
:1008300000000600f88f4200050034008100d1005e
:100840000080d3008502e800fcff3a0000000600ab
:100850006011b8008000eb0000000500c70ade0050
:10086000f107b200f50fb20008003200e1cf4200fc
:10087000020032000170a00024000500810f70000a
:10088000010032000408050044000500810f7000db
:1008900002003a00140005008502e9000000400053
:1008a00081c04800fcff3b000170a000240005004f
:1008b000889fbe008a9fbe0030044200b0844a0078
:1008c00030054b0090854b006000b1000898be00d9
:1008d0000a90be000440e10005c8e10006d0e10036
:1008e00007d8e10002003100680040001008e8006d
:1008f0004f05be004f04be0000000600889fbe00ea
:100900008a9fbe003004be002005be0004185400bb
:1009100005985c0006185d0007985d001100200036
:100920000440e10005c8e10006d0e10007d8e1007d
:10093000010039008000eb00108810004f05be0058
:100940004f04be00000006001200fa00889fbe009f
:100950008a9fbe008c9fbe00e0b79f00f1b79f004a
:1009600082bf9f0093bf9f000605be000404be0027
:100970000000eb00d0b79f00c0b79f00b0b79f004a
:10098000a0b79f0090b79f00000678005fb1970066
:10099000cfb09700820141003fb097000200e00015
:1009a00004003d00370007007e805700c0ff0700ad
:1009b00003003700330007007e805700cfff070099
:1009c000dfb697000d00e0000c0035006fb2970015
:1009d000ffb297000fbb97009fbb9700100020004d
:1009e000010020006011b8000002720081827200d4
:1009f00002037300838373001b0007000c06e800ea
:100a000001042000810f5600e0ff3a000d00e000d5
:100a100004003d000802be000a03be007e805700ad
:100a2000a3ff07005fa897000000e00005003a0060
:100a30001fb29700afb297003fb39700cfb39700b4
:100a4000090007006fb09700ffb097000fb997003b
:100a50009fb997004f06be004f05be004f04be0071
:100a60000080fa00000006000100070000000600f8
:100a7000a4b79f00b5b79f00c6b79f00d7b79f0028
:100a8000000006004f09de0082817100b3b79f00ad
:100a90004f01de008180400082807000a1b79f007e
:100aa0008fb097004f09de00000040000200700088
:100ab00090b79f007fa897004f01de008180400023
:100ac0008280700081b79f000d0007004f3ade0062
:100ad0000000400004007000f0af9f000800070015
:100ae0000402420085824a0006034b0087834b00c4
:100af000dfff07000802be000a03be000000060078
:100b00002fb29700bfb297004fb39700dfb39700a3
:100b100000000600881f780018002000881f780059
:100b200089ff07008f87e9004f0478000000060066
:100b3000801feb0084ff07008f87e900000006009c
:100b4000889fbe008a9fbe00e00f5000e08f5800d3
:100b5000e00f5900e08f59000c003d006044b800e0
:100b60006055b8000000540081805c0002015d0007
:100b700083815d00180020001500070008003d007b
:100b8000180007000004eb00050037000004eb002c
:100b90000f00070002003d001200070018002000af
:100ba000dcff07000800e000060032006022b80009
:100bb0006033b8000000520081805a0002015b00df
:100bc00083815b004f05be004f04be00000006009d
:100bd000e00f5200e08f5a00e00f5b00e08f5b00f7
:100be000000006006044b8006055b80004025400dc
:100bf00085825c0006035d0087835d0000000600bf
:100c0000889fbe008a9fbe008c1f7800e00f5000b6
:100c1000e08f5800e00f5900e08f59000d003d00b3
:100c20006044b8006055b8000000540081805c004a
:100c300002015d0083815d001c0020000820e100ae
:100c400009a8e1000ab0e1000bb8e1000d003d0089
:100c5000080037000006eb00e00f5200e08f5a005a
:100c6000e00f5b00e08f5b0006003d006044b800d1
:100c70006055b8000402540085825c0006035d00e4
:100c800087835d00aaff07000c00e0000600320029
:100c90006022b8006033b8000000520081805a0022
:100ca00002015b0083815b004f0678004f05be00a8
:100cb0004f04be0000000600889fbe008a9fbe0051
:100cc0008c1f78000006eb00e00f5000e08f58000a
:100cd000e00f5900e08f590007003d006044b80064
:100ce0006055b8000000540081805c0002015d0086
:100cf00083815d001c002000e00f5200e08f5a004d
:100d0000e00f5b00e08f5b0007003d006044b8002f
:100d10006055b8000402540085825c0006035d0043
:100d200087835d000c00a2000c0007000c00e000af
:100d3000060032006022b8006033b80000005200a4
:100d400081805a0002015b0083815b004f067800be
:100d50004f05be004f04be0000000600889fbe0085
:100d60008a9fbe008c9fbe000404b8000506b80030
:100d70008904460060854e000606b8000a05460054
:100d8000e0854e000706b8008b054600040eb8004b
:100d9000890446000a854e00e0854d00050eb80026
:100da0000a0546008b854e00060eb8008b054600ee
:100db0000416b8000a0546008b854e000516b800db
:100dc0008b054600041eb8008b0546000800be00d7
:100dd0000a01be004f06be004f05be004f04be0014
:040de0000000060009
:020000040000fa
:100de4000000fa00b0ff2f006019880050002000b6
:100df4004016880001368000f00f2e0080806000cd
:100e04000030200001007000003688002135800089
:100e140000fe2f00008060000010a0002035880034
:100e24002100070003000700004080003f00070086
:100e3400fdff37000000fa002002a9000111800024
:100e440090ff2f00008060000011880020a2a900fc
:100e54002062a900b00020004011880023a2a9004c
:100e640023e2a9009580a8009560a80051058000a0
:100e740080ff2f00008060005000b3005005880000
:100e840041058000f0ff28008080600000002600fb
:100e9400010070004005880021e2a8002342a80058
:100ea4000080fa00000006000000fa002023ef0092
:100eb4002223ef002423ef003023ef002823ef0048
:100ec40021e3a80025e3a8004119800000fe2f00bb
:100ed400008060000010a0004019880041198000c3
:100ee400f00f2e00008060000090a00040198800e0
:100ef4000080fa00000006000000fa002023a80089
:100f04000000240021002000a20007002023a900e3
:100f14000000000000198000610060000000e00093
:100f2400fcff32000080fa00000006000200fa0014
:100f3400000f78001e007800e10f50000900320015
:100f4400e20f50004c0032000000e0008f003a0035
:100f5400cde2a900cdc2a900cda2a900cd82a900ed
:100f64008a003700cde2a800cdc2a900cda2a90015
:100f7400cd82a900204080003140800015fe07008a
:100f840004002800050720006033b80049ff07006b
:100f9400843e2000050020006033b800dcfe07001a
:100fa4000000be007b000700cde2a900cdc2a8006e
:100fb400cda2a900cd82a90020408000314080004c
:100fc40004fe070004002800050720006033b80071
:100fd40038ff0700843e2000050020006033b8007d
:100fe400cbfe07000000be006a000700cde2a900a6
:100ff400cdc2a900cda2a800cd82a90020408000c6
:1010040031408000f3fd070004002800050720009c
:101014006033b80027ff0700843e2000050020004d
:101024006033b800bafe07000000be005900070094
:10103400cde2a900cdc2a900cda2a900cd82a8000d
:101044002040800031408000e2fd070004002800b9
:10105400050720006033b80016ff0700843e200017
:10106400050020006033b800a9fe07000000be00a0
:101074004800070045003700cde2a900cdc2a90011
:10108400cda2a900cd82a80020408000314080007c
:10109400d0fd070004002800050720006033b800d5
:1010a40004ff0700843e2000050020006033b800e0
:1010b40097fe07000000be0036000700cde2a9003d
:1010c400cdc2a900cda2a800cd82a90020408000f5
:1010d40031408000bffd0700040028000507200000
:1010e4006033b800f3fe0700843e200005002000b2
:1010f4006033b80086fe07000000be00250007002c
:10110400cde2a900cdc2a800cda2a900cd82a9003c
:101114002040800031408000aefd0700040028001c
:10112400050720006033b800e2fe0700843e20007b
:10113400050020006033b80075fe07000000be0003
:1011440014000700cde2a800cdc2a900cda2a900d9
:10115400cd82a90020408000314080009dfd070021
:1011640004002800050720006033b800d1fe070002
:10117400843e2000050020006033b80064fe0700b0
:101184000000be0003000700000000000080fa0019
:041194000000060051
:020000040000fa
:10119800f03fb1000180b10006003500ee03090000
:1011a80000000000403fb1000180b100fbff3d009e
:1011b8001000b000203fb000020035000080090098
:0811c800000000000000060019
:020000040000fa
:1011d00000080000040000000000000004080000f7
:1011e0000400000002000000cdcccc003d00000057
:0411f00000000000fb
:020000040000fa
:0200000401f009
:04000c008000000070
:020000040000fa
:0200000401f009
:040014005f00000089
:020000040000fa
:0200000401f009
:04001c00ddff000004
:00000001FF
