:020000040000fa
:080000000002040000000000f2
:020000040000fa
:04000800c80200002a
:020000040000fa
:04000c00c802000026
:020000040000fa
:04001000c802000022
:020000040000fa
:04001400c80200001e
:020000040000fa
:04001800c80200001a
:020000040000fa
:04001c00c802000016
:020000040000fa
:04002000c802000012
:020000040000fa
:04002400c80200000e
:020000040000fa
:04002800c80200000a
:020000040000fa
:04002c00c802000006
:020000040000fa
:04003000c802000002
:020000040000fa
:04003400c8020000fe
:020000040000fa
:04003800c8020000fa
:020000040000fa
:04003c00c8020000f6
:020000040000fa
:04004000c8020000f2
:020000040000fa
:04004400c8020000ee
:020000040000fa
:04004800c8020000ea
:020000040000fa
:04004c00c8020000e6
:020000040000fa
:04005000c8020000e2
:020000040000fa
:04005400c8020000de
:020000040000fa
:04005800c8020000da
:020000040000fa
:04005c00c8020000d6
:020000040000fa
:04006000c8020000d2
:020000040000fa
:04006400c8020000ce
:020000040000fa
:04006800c8020000ca
:020000040000fa
:04006c00c8020000c6
:020000040000fa
:04007000c8020000c2
:020000040000fa
:04007400c8020000be
:020000040000fa
:04007800c8020000ba
:020000040000fa
:04007c00c8020000b6
:020000040000fa
:04008000c8020000b2
:020000040000fa
:04008400c8020000ae
:020000040000fa
:04008800c8020000aa
:020000040000fa
:04008c00c8020000a6
:020000040000fa
:04009000c8020000a2
:020000040000fa
:04009400c80200009e
:020000040000fa
:04009800c80200009a
:020000040000fa
:04009c00c802000096
:020000040000fa
:0400a000c802000092
:020000040000fa
:0400a400c80200008e
:020000040000fa
:0400a800c80200008a
:020000040000fa
:0400ac00c802000086
:020000040000fa
:0400b000c802000082
:020000040000fa
:0400b400c80200007e
:020000040000fa
:0400b800c80200007a
:020000040000fa
:0400bc00c802000076
:020000040000fa
:0400c000c802000072
:020000040000fa
:0400c400c80200006e
:020000040000fa
:0400c800c80200006a
:020000040000fa
:0400cc00c802000066
:020000040000fa
:0400d000c802000062
:020000040000fa
:0400d400c80200005e
:020000040000fa
:0400d800c80200005a
:020000040000fa
:0400dc00c802000056
:020000040000fa
:0400e000c802000052
:020000040000fa
:0400e400c80200004e
:020000040000fa
:0400e800c80200004a
:020000040000fa
:0400ec00c802000046
:020000040000fa
:0400f000c802000042
:020000040000fa
:0400f400c80200003e
:020000040000fa
:0400f800c80200003a
:020000040000fa
:0400fc00c802000036
:020000040000fa
:04010000c802000031
:020000040000fa
:04010400c80200002d
:020000040000fa
:04010800c802000029
:020000040000fa
:04010c00c802000025
:020000040000fa
:04011000c802000021
:020000040000fa
:04011400c80200001d
:020000040000fa
:04011800c802000019
:020000040000fa
:04011c00c802000015
:020000040000fa
:04012000c802000011
:020000040000fa
:04012400c80200000d
:020000040000fa
:04012800c802000009
:020000040000fa
:04012c00c802000005
:020000040000fa
:04013000c802000001
:020000040000fa
:04013400c8020000fd
:020000040000fa
:04013800c8020000f9
:020000040000fa
:04013c00c8020000f5
:020000040000fa
:04014000c8020000f1
:020000040000fa
:04014400c8020000ed
:020000040000fa
:04014800c8020000e9
:020000040000fa
:04014c00c8020000e5
:020000040000fa
:04015000c8020000e1
:020000040000fa
:04015400c8020000dd
:020000040000fa
:04015800c8020000d9
:020000040000fa
:04015c00c8020000d5
:020000040000fa
:04016000c8020000d1
:020000040000fa
:04016400c8020000cd
:020000040000fa
:04020800c802000028
:020000040000fa
:04020c00c802000024
:020000040000fa
:04021000c802000020
:020000040000fa
:04021400c80200001c
:020000040000fa
:04021800c802000018
:020000040000fa
:04021c00c802000014
:020000040000fa
:04022000c802000010
:020000040000fa
:04022400c80200000c
:020000040000fa
:04022800c802000008
:020000040000fa
:04022c00c802000004
:020000040000fa
:04023000c802000000
:020000040000fa
:04023400c8020000fc
:020000040000fa
:04023800c8020000f8
:020000040000fa
:04023c00c8020000f4
:020000040000fa
:04024000c8020000f0
:020000040000fa
:04024400c8020000ec
:020000040000fa
:04024800c8020000e8
:020000040000fa
:04024c00c8020000e4
:020000040000fa
:04025000c8020000e0
:020000040000fa
:04025400c8020000dc
:020000040000fa
:04025800c8020000d8
:020000040000fa
:04025c00c8020000d4
:020000040000fa
:04026000c8020000d0
:020000040000fa
:04026400c8020000cc
:020000040000fa
:04026800c8020000c8
:020000040000fa
:04026c00c8020000c4
:020000040000fa
:04027000c8020000c0
:020000040000fa
:04027400c8020000bc
:020000040000fa
:04027800c8020000b8
:020000040000fa
:04027c00c8020000b4
:020000040000fa
:04028000c8020000b0
:020000040000fa
:04028400c8020000ac
:020000040000fa
:04028800c8020000a8
:020000040000fa
:04028c00c8020000a4
:020000040000fa
:04029000c8020000a0
:020000040000fa
:04029400c80200009c
:020000040000fa
:04029800c802000098
:020000040000fa
:04029c00c802000094
:020000040000fa
:0402a000c802000090
:020000040000fa
:0402a400c80200008c
:020000040000fa
:0402a800c802000088
:020000040000fa
:0402ac00c802000084
:020000040000fa
:0402b000c802000080
:020000040000fa
:0402b400c80200007c
:020000040000fa
:0402b800c802000078
:020000040000fa
:0402bc00c802000074
:020000040000fa
:0402c000c802000070
:020000040000fa
:0402c400c80200006c
:020000040000fa
:0402c800c802000068
:020000040000fa
:0402cc00c802000064
:020000040000fa
:0402d000c802000060
:020000040000fa
:0402d400c80200005c
:020000040000fa
:0402d800c802000058
:020000040000fa
:0402dc00c802000054
:020000040000fa
:0402e000c802000050
:020000040000fa
:0402e400c80200004c
:020000040000fa
:0402e800c802000048
:020000040000fa
:0402ec00c802000044
:020000040000fa
:0402f000c802000040
:020000040000fa
:0402f400c80200003c
:020000040000fa
:0402f800c802000038
:020000040000fa
:0402fc00c802000034
:020000040000fa
:04030000c80200002f
:020000040000fa
:04030400c80200002b
:020000040000fa
:04030800c802000027
:020000040000fa
:04030c00c802000023
:020000040000fa
:04031000c80200001f
:020000040000fa
:04031400c80200001b
:020000040000fa
:04031800c802000017
:020000040000fa
:04031c00c802000013
:020000040000fa
:04032000c80200000f
:020000040000fa
:04032400c80200000b
:020000040000fa
:04032800c802000007
:020000040000fa
:04032c00c802000003
:020000040000fa
:04033000c8020000ff
:020000040000fa
:04033400c8020000fb
:020000040000fa
:04033800c8020000f7
:020000040000fa
:04033c00c8020000f3
:020000040000fa
:04034000c8020000ef
:020000040000fa
:04034400c8020000eb
:020000040000fa
:04034800c8020000e7
:020000040000fa
:04034c00c8020000e3
:020000040000fa
:04035000c8020000df
:020000040000fa
:04035400c8020000db
:020000040000fa
:04035800c8020000d7
:020000040000fa
:04035c00c8020000d3
:020000040000fa
:04036000c8020000cf
:020000040000fa
:04036400c8020000cb
:020000040000fa
:100400006f8020000e7f24000e0188000000000095
:10041000000020000000e000020032000001200087
:1004200020028800140007005b0007000000e000c5
:1004300003003a0000702000010020000200370095
:100440000000200001002000810f70000100320038
:1004500014000700000020000000e000020032004d
:100460000000020000000000020602000000000080
:100470000040da000000fe004440a9000000200017
:100480000000e0000300320000002000a00188000e
:100490004440a800000006008a1f78008b1f7800e7
:1004a0000000060091018800800478000000eb0045
:1004b0001a003700e284440032a0b4009905ba0063
:1004c000e284440032a0b4009906ba00e2844400f9
:1004d00032a0b4000006eb00476fde00fd07b2005b
:1004e000636ce10003003a00ebff07000000eb0043
:1004f0000a003700606ce10004003a00005deb0088
:100500008b05e900fdff3e00040037006168e10053
:10051000010032000086eb000b00070019c7ba008b
:100520001905ba000e04e00003003a000a00e000da
:10053000e0ff3a0000000600fe07b2009e018800be
:100540008a047800f5ff3700395dba008b05e900b1
:100550000c003200295dba008b05e900080032006a
:100560000c00e00003003a00e284440032a0b40032
:10057000f5ff370019ddba008b05e900faff3a00f4
:100580008904e800e184440032a0b40000000600c1
:100590000040da000000fe00000005000001be007f
:1005a0001c0007000470a70003f0a10003f8a300db
:1005b00013003a006509b10010003200090035004f
:1005c0006928e10002003500010028000000050054
:1005d00000004000818048008502e900fcff3a00ed
:1005e00000000600f88f4200050035008100d100b0
:1005f0000080d3008502e800fcff3a0000000600fe
:100600008000eb00000005004f89de0082017800c9
:1006100017013700c70ade00f107b200f50fb2007c
:1006200008003200e1cf4200020032000170a00059
:1006300024000500810f700001003200040805004d
:1006400044000500810f700002003a00140005000c
:100650008502e9000000400081c04800fcff3b002b
:100660000170a00024000500038368000700280033
:1006700007036300470ade000480a100c71ade00fa
:100680000580a100f70f20000720e10042003200a2
:100690000728e10040003200889fbe008a9fbe000c
:1006a0008c1f7800f107b200f307b2000400e000ed
:1006b000640032000170a0000500e0006800320014
:1006c0000370a00085054200eb07b1000204b800ea
:1006d0000302b8008484440060854a00020ab8001e
:1006e000848444000a854a00030ab80004054500d2
:1006f000040033000804d0008984d2000a85d200a7
:100700008b05e9006158e1003d0035000210200032
:10071000090161000308200089816100f7072000ba
:100720008783640008867300c84cde00c853dd0070
:10073000878474004855de000300e00006003200a4
:1007400082037600040032008904e80060054d0051
:100750000a88a3000c003a00f70f20000758e100b8
:1007600044003d000a70a100c75ddd000a857500e8
:100770008a007300090078004f0678004f05be001c
:100780004f04be00000006000a05d1008984d30092
:100790008b05e800f0ff3700881f7800060478001a
:1007a00090000700070278000001fd008101fd00b4
:1007b0008c00070087027800850372000778a30089
:1007c000050032000001fd008101fd009f000700cf
:1007d0004f04780000000600850372000748a3005c
:1007e00003003200f0ff2f00f1ff2700f8ff370071
:1007f0000000200001f8270088807000f4ff370017
:10080000880178004848dd00808171004848de009a
:10081000c850dd0001007000c850de0006047800fa
:100820000b0178001600070088807000d2ff3700a7
:100830000500e00005003200170020003a00070024
:100840009dff370081037000f9ff3a0086007800b1
:100850004f0678004f05be004f04be0000000500a3
:1008600083037100f9ff3200270020002e000700eb
:1008700094ff370001f8270086807000f4ff3700ee
:100880000100e00026003200610111007810e10053
:1008900023003c006022b8007010e1000400350025
:1008a00080027800010078008000eb0070015100a8
:1008b0000200e0000900340070031100062add0088
:1008c000822ade008603dd00878272000200de00dd
:1008d000860bdd00070070008208de008481710055
:1008e000f4ff270004826200848171000400280064
:1008f000848262006102600005f0a600000006002c
:1009000004827100070032000000e800e080480027
:10091000000006000002be006000b800efff3700d4
:100920006000b80000000600889fbe000004eb00d5
:100930006138e10016003a000100e00008003a00ca
:10094000c800de004800dd00880020000100e00053
:1009500003003a00c800de004800dd0068044400df
:100960008184cf00e9845400060034008908dd004a
:10097000f08314008703de00878070000900dd002b
:1009800009044400610214004f04be000000060088
:100990000300e00008003a00c811de004811dd0045
:1009a000880020000300e00003003a00c811de00c8
:1009b0004811dd00680444008384cf00e9845400ba
:1009c000060034008919dd00f08314008713de006f
:1009d000878171000911dd0009044400e10214005f
:1009e000e9ff37002700200001f0a70017002000d2
:1009f000470bde00f60fb200040032000643e800a9
:100a00000a0032004702b30000000600010378002c
:100a1000f607b2000603700002003a000703b300b5
:100a2000000006008702b300000006000103780002
:100a3000f607b20006037000020032000770a00043
:100a4000000006000760a000000006000478a30074
:100a5000040032000578a300030032000168a300ff
:100a600001003a000200be000160a0000000060084
:100a7000881f7800030478000300e00007003d00b1
:100a800060001000e080180060011900e08119008a
:100a900002003b0001f02d000300370004000700b6
:100aa00008f0a70001f0a0004f0478000000060045
:100ab000889fbe008a9fbe00008270000402710001
:100ac00004827100260032000004be000200be0055
:100ad0006011b8006b092000950220000182cf0050
:100ae0000a0039000541b1000082cf00070039003b
:100af0000541b1000982cf00040039000541b10071
:100b00000882cf00010039000541b10005425200c2
:100b1000120032000a003b00828171006101640012
:100b20008100d1000080d3008984d3000884d300e1
:100b30008b05e8000442e800f7ff3a0007003700a1
:100b40000804440089844c0000004800818048006b
:100b50008b05e9000442e900f9ff3a0003000700b1
:100b60004f05be004f04be000000060081002000bb
:100b7000618055000b003d000b00200061fe2f003e
:100b80000100e1001d0034008281710061016400f8
:100b90008904d1000884d3000000e800faff3a007d
:100ba000710020006100640003007000020060001a
:100bb0000900320061044400e0844c000988a5006b
:100bc000050032008b05e8006808e10002003a00e9
:100bd0008904d1000884d300f20f20000258e100fc
:100be00005003d00c75ddd00f907b2008980750092
:100bf00008007800000006000bf827008b00780042
:040c000000000500eb
:020000040000fa
:100c04000000fa00b0ff2f006019880010002000d7
:100c140040168800200007000f0007004500070069
:100c24003100070020408000cf80de0075fe070001
:100c34000002be0000408000114080000001be00a0
:100c44000400be0087fe070053fe07000000780082
:100c5400b02e8800f2ff37000000fa002002a9003d
:100c64000111800090ff2f000080600000118800b7
:100c740020a2a9002062a900b00020004011880031
:100c840023e2a9009560a80021e2a8002342a8005d
:100c94000080fa00000006000000fa002023ef00a4
:100ca4002223ef002423ef003023ef002823ef005a
:100cb40021e3a80025e3a8004119800000fe2f00cd
:100cc400008060000010a0004019880041198000d5
:100cd400f00f2e00008060000090a00040198800f2
:100ce4000080fa00000006000000fa002023a8009b
:100cf40000002400b1002000320007002023a900d6
:100d04000000000000198000610060000000e000a5
:100d1400fcff3200001880004200de002040880002
:100d24000000290001002000260007000080fa00ce
:100d3400000006000000fa00012e800030ff2f00a2
:100d440000806000002e8800012e8000c0ff2f006c
:100d540000806000002e8800112e80000000280012
:100d640000806000102e8800212e800000002800e2
:100d7400808060003073200001007000202e880005
:100d8400c905a900c885a800c805a800612e80006f
:100d9400f0f32f0000806000602e8800612e800038
:100da40000fc2f0080806000b00320000100700070
:100db400602e8800d625ef00c1e5a8000080fa0067
:040dc4000000060025
:020000040000fa
:100dc800f03fb1000180b10006003500ee030900d4
:100dd80000000000403fb1000180b100fbff3d0072
:100de8001000b000203fb00002003500008009006c
:080df8000000000000000600ed
:020000040000fa
:100e000004080000020000000000000000080000cc
:100e1000040000000200000000006000410000002b
:040e200000000000ce
:020000040000fa
:0200000401f009
:04000c008000000070
:020000040000fa
:0200000401f009
:040014005f00000089
:020000040000fa
:0200000401f009
:04001c00ddff000004
:00000001FF
