:020000040000fa
:080000000002040000000000f2
:020000040000fa
:04000800fc020000f6
:020000040000fa
:04000c00fc020000f2
:020000040000fa
:04001000fc020000ee
:020000040000fa
:04001400fc020000ea
:020000040000fa
:04001800fc020000e6
:020000040000fa
:04001c00fc020000e2
:020000040000fa
:04002000fc020000de
:020000040000fa
:04002400fc020000da
:020000040000fa
:04002800fc020000d6
:020000040000fa
:04002c00fc020000d2
:020000040000fa
:04003000fc020000ce
:020000040000fa
:04003400fc020000ca
:020000040000fa
:04003800fc020000c6
:020000040000fa
:04003c00fc020000c2
:020000040000fa
:04004000fc020000be
:020000040000fa
:04004400fc020000ba
:020000040000fa
:04004800fc020000b6
:020000040000fa
:04004c00fc020000b2
:020000040000fa
:04005000fc020000ae
:020000040000fa
:04005400fc020000aa
:020000040000fa
:04005800c8020000da
:020000040000fa
:04005c00fc020000a2
:020000040000fa
:04006000fc0200009e
:020000040000fa
:04006400fc0200009a
:020000040000fa
:04006800fc02000096
:020000040000fa
:04006c00fc02000092
:020000040000fa
:04007000fc0200008e
:020000040000fa
:04007400fc0200008a
:020000040000fa
:04007800fc02000086
:020000040000fa
:04007c00fc02000082
:020000040000fa
:04008000fc0200007e
:020000040000fa
:04008400fc0200007a
:020000040000fa
:04008800fc02000076
:020000040000fa
:04008c00fc02000072
:020000040000fa
:04009000fc0200006e
:020000040000fa
:04009400fc0200006a
:020000040000fa
:04009800fc02000066
:020000040000fa
:04009c00fc02000062
:020000040000fa
:0400a000fc0200005e
:020000040000fa
:0400a400fc0200005a
:020000040000fa
:0400a800fc02000056
:020000040000fa
:0400ac00fc02000052
:020000040000fa
:0400b000fc0200004e
:020000040000fa
:0400b400fc0200004a
:020000040000fa
:0400b800fc02000046
:020000040000fa
:0400bc00fc02000042
:020000040000fa
:0400c000fc0200003e
:020000040000fa
:0400c400fc0200003a
:020000040000fa
:0400c800fc02000036
:020000040000fa
:0400cc00fc02000032
:020000040000fa
:0400d000fc0200002e
:020000040000fa
:0400d400fc0200002a
:020000040000fa
:0400d800fc02000026
:020000040000fa
:0400dc00fc02000022
:020000040000fa
:0400e000fc0200001e
:020000040000fa
:0400e400fc0200001a
:020000040000fa
:0400e800fc02000016
:020000040000fa
:0400ec00fc02000012
:020000040000fa
:0400f000fc0200000e
:020000040000fa
:0400f400fc0200000a
:020000040000fa
:0400f800fc02000006
:020000040000fa
:0400fc00fc02000002
:020000040000fa
:04010000fc020000fd
:020000040000fa
:04010400fc020000f9
:020000040000fa
:04010800fc020000f5
:020000040000fa
:04010c00fc020000f1
:020000040000fa
:04011000fc020000ed
:020000040000fa
:04011400fc020000e9
:020000040000fa
:04011800fc020000e5
:020000040000fa
:04011c00fc020000e1
:020000040000fa
:04012000fc020000dd
:020000040000fa
:04012400fc020000d9
:020000040000fa
:04012800fc020000d5
:020000040000fa
:04012c00fc020000d1
:020000040000fa
:04013000fc020000cd
:020000040000fa
:04013400fc020000c9
:020000040000fa
:04013800fc020000c5
:020000040000fa
:04013c00fc020000c1
:020000040000fa
:04014000fc020000bd
:020000040000fa
:04014400fc020000b9
:020000040000fa
:04014800fc020000b5
:020000040000fa
:04014c00fc020000b1
:020000040000fa
:04015000fc020000ad
:020000040000fa
:04015400fc020000a9
:020000040000fa
:04015800fc020000a5
:020000040000fa
:04015c00fc020000a1
:020000040000fa
:04016000fc0200009d
:020000040000fa
:04016400fc02000099
:020000040000fa
:04020800fc020000f4
:020000040000fa
:04020c00fc020000f0
:020000040000fa
:04021000fc020000ec
:020000040000fa
:04021400fc020000e8
:020000040000fa
:04021800fc020000e4
:020000040000fa
:04021c00fc020000e0
:020000040000fa
:04022000fc020000dc
:020000040000fa
:04022400fc020000d8
:020000040000fa
:04022800fc020000d4
:020000040000fa
:04022c00fc020000d0
:020000040000fa
:04023000fc020000cc
:020000040000fa
:04023400fc020000c8
:020000040000fa
:04023800fc020000c4
:020000040000fa
:04023c00fc020000c0
:020000040000fa
:04024000fc020000bc
:020000040000fa
:04024400fc020000b8
:020000040000fa
:04024800fc020000b4
:020000040000fa
:04024c00fc020000b0
:020000040000fa
:04025000fc020000ac
:020000040000fa
:04025400fc020000a8
:020000040000fa
:04025800c8020000d8
:020000040000fa
:04025c00fc020000a0
:020000040000fa
:04026000fc0200009c
:020000040000fa
:04026400fc02000098
:020000040000fa
:04026800fc02000094
:020000040000fa
:04026c00fc02000090
:020000040000fa
:04027000fc0200008c
:020000040000fa
:04027400fc02000088
:020000040000fa
:04027800fc02000084
:020000040000fa
:04027c00fc02000080
:020000040000fa
:04028000fc0200007c
:020000040000fa
:04028400fc02000078
:020000040000fa
:04028800fc02000074
:020000040000fa
:04028c00fc02000070
:020000040000fa
:04029000fc0200006c
:020000040000fa
:04029400fc02000068
:020000040000fa
:04029800fc02000064
:020000040000fa
:04029c00fc02000060
:020000040000fa
:0402a000fc0200005c
:020000040000fa
:0402a400fc02000058
:020000040000fa
:0402a800fc02000054
:020000040000fa
:0402ac00fc02000050
:020000040000fa
:0402b000fc0200004c
:020000040000fa
:0402b400fc02000048
:020000040000fa
:0402b800fc02000044
:020000040000fa
:0402bc00fc02000040
:020000040000fa
:0402c000fc0200003c
:020000040000fa
:0402c400fc02000038
:020000040000fa
:0402c800fc02000034
:020000040000fa
:0402cc00fc02000030
:020000040000fa
:0402d000fc0200002c
:020000040000fa
:0402d400fc02000028
:020000040000fa
:0402d800fc02000024
:020000040000fa
:0402dc00fc02000020
:020000040000fa
:0402e000fc0200001c
:020000040000fa
:0402e400fc02000018
:020000040000fa
:0402e800fc02000014
:020000040000fa
:0402ec00fc02000010
:020000040000fa
:0402f000fc0200000c
:020000040000fa
:0402f400fc02000008
:020000040000fa
:0402f800fc02000004
:020000040000fa
:0402fc00fc02000000
:020000040000fa
:04030000fc020000fb
:020000040000fa
:04030400fc020000f7
:020000040000fa
:04030800fc020000f3
:020000040000fa
:04030c00fc020000ef
:020000040000fa
:04031000fc020000eb
:020000040000fa
:04031400fc020000e7
:020000040000fa
:04031800fc020000e3
:020000040000fa
:04031c00fc020000df
:020000040000fa
:04032000fc020000db
:020000040000fa
:04032400fc020000d7
:020000040000fa
:04032800fc020000d3
:020000040000fa
:04032c00fc020000cf
:020000040000fa
:04033000fc020000cb
:020000040000fa
:04033400fc020000c7
:020000040000fa
:04033800fc020000c3
:020000040000fa
:04033c00fc020000bf
:020000040000fa
:04034000fc020000bb
:020000040000fa
:04034400fc020000b7
:020000040000fa
:04034800fc020000b3
:020000040000fa
:04034c00fc020000af
:020000040000fa
:04035000fc020000ab
:020000040000fa
:04035400fc020000a7
:020000040000fa
:04035800fc020000a3
:020000040000fa
:04035c00fc0200009f
:020000040000fa
:04036000fc0200009b
:020000040000fa
:04036400fc02000097
:020000040000fa
:100400002f8020000e7f24000e01880000000000d5
:10041000000020000000e000020032000001200087
:100420002002880014000700750007000000e000ab
:1004300003003a00203620000100200002003700af
:100440000000200001002000810f70000100320038
:1004500014000700000020000000e000020032004d
:100460000000020000000000020302000000000083
:100470000040da000000fe004440a9000000200017
:100480000000e0000300320000002000a00188000e
:100490004440a800000006008a1f78008b1f7800e7
:1004a0000000060091018800800478000000eb0045
:1004b0001a003700e284440032a0b4009905ba0063
:1004c000e284440032a0b4009906ba00e2844400f9
:1004d00032a0b4000006eb00476fde00fd07b2005b
:1004e000636ce10003003a00ebff07000000eb0043
:1004f0000a003700606ce10004003a00005deb0088
:100500008b05e900fdff3e00040037006168e10053
:10051000010032000086eb000b00070019c7ba008b
:100520001905ba000e04e00003003a000a00e000da
:10053000e0ff3a0000000600fe07b2009e018800be
:100540008a047800f5ff3700395dba008b05e900b1
:100550000c003200295dba008b05e900080032006a
:100560000c00e00003003a00e284440032a0b40032
:10057000f5ff370019ddba008b05e900faff3a00f4
:100580008904e800e184440032a0b40000000600c1
:10059000809fbe003400f80000002000a001880009
:1005a0000000fa008580a9001006200020118800b4
:1005b0000000000011118000001020000080600089
:1005c0000000e000fbff3200a000200020118800a6
:1005d0000000000011118000001020000080600069
:1005e0000000e000fbff32000080fa003400f90058
:1005f0004f00be00004006000040da000000fe0090
:0406000000000500f1
:020000040000fa
:100604000000fa000080eb0060198800c822ef00a7
:100614002136800000fe2f00008060003000b3000f
:10062400203688002002a9000111800090ff2f00cd
:10063400008060000011880020a2a9002062a900a7
:10064400b00020004011880023a2a90023e2a900e1
:100654009580a80021e2a8002342a8006030200071
:100664000100200008000700100620002011880067
:10067400603020000100200003000700a0002000db
:0806840020118800ffff370080
:020000040000fa
:10068c00f03fb1000180b10006003500ee03090017
:10069c0000000000403fb1000180b100fbff3d00b5
:1006ac001000b000203fb0000200350000800900af
:0806bc00000000000000060030
:020000040000fa
:1006c400000800000200000000000000000000001c
:020000040000fa
:0200000401f009
:04000c008000000070
:020000040000fa
:0200000401f009
:040014005f00000089
:020000040000fa
:0200000401f009
:04001c00ddff000004
:00000001FF
